:020000040800F2
:10000000400C0020C1010008312B010851180108E3
:100010002D2B0108CDEF0008213A01080000000057
:10002000000000000000000000000000353401085E
:1000300005F0000800000000332B010839340108E6
:10004000253A0108DB010008DB010008DB0100089C
:10005000DB010008DB010008DB010008DB01000810
:10006000DB010008DB010008DB010008DB01000800
:10007000DB010008DB010008DB010008DB010008F0
:10008000DB010008DB010008DB010008DB010008E0
:10009000DB010008DB010008DB010008DB010008D0
:1000A000DB010008DB010008DB010008DB010008C0
:1000B000DB010008DB010008DB010008DB010008B0
:1000C000DB010008DB010008DB010008DB010008A0
:1000D000DB010008FD390108DB010008DB01000835
:1000E00019F00008DB010008DB010008DB01000853
:1000F000DB010008DB01000899350108DB0100087D
:10010000DB010008DB010008DB010008DB0100085F
:10011000DB010008DB01000889350108DB0100086C
:10012000DB010008DB010008DB010008DB0100083F
:10013000DB010008DB010008DB010008DB0100082F
:10014000DB010008DB010008DB010008DB0100081F
:10015000DB010008DB010008DB010008DB0100080F
:10016000DB010008DB010008DB010008DB010008FF
:10017000DB010008DB010008DB01000800000000D3
:10018000DB010008DB010008DB010008DB010008DF
:10019000DB010008DB010008DB010008DB010008CF
:1001A000D5280108DB010008D1EF0008DFF80CD0EA
:1001B00000F0A8F800480047AD4B0108400C0020B3
:1001C0000648804706480047FEE7FEE7FEE7FEE7F1
:1001D000FEE7FEE7FEE7FEE7FEE7FEE76D35010816
:1001E000AD0100082DE9F05F0546002092469B46D0
:1001F00088460646814640241BE02846414647463D
:10020000224600F06FF853465A46C01A914110D367
:1002100011461846224600F056F82D1A67EB0108E1
:100220004F4622460120002100F04DF817EB00094F
:100230004E41201EA4F10104DFDC484631462A4627
:100240004346BDE8F09F10B5441A0346944209D2D4
:100250008418114403E011F8013D04F8013D521ED9
:10026000F9D210BD40EA0104A40703D009E010C987
:10027000121F10C3042AFAD203E011F8014B03F84D
:10028000014B521EF9D210BDD2B201E000F8012B91
:10029000491EFBD270470022F6E710B513460A4606
:1002A00004461946FFF7F0FF204610BD30B504465E
:1002B0000020034600E05B1C934203D2E05CCD5C6F
:1002C000401BF8D030BD202A04DB203A00FA02F1AE
:1002D000002070479140C2F1200320FA03F3194334
:1002E00090407047202A04DB203A21FA02F00021D6
:1002F000704721FA02F3D040C2F120029140084336
:1003000019467047064C074D06E0E06840F00103CF
:1003100094E8070098471034AC42F6D3FFF74AFF41
:1003200030D3010850D3010870B58C1810F8015B68
:1003300015F0070301D110F8013B2A1106D110F87E
:10034000012B03E010F8016B01F8016B5B1EF9D182
:100350002B0705D40023521E0DD401F8013BFAE708
:1003600010F8013BCB1A921C03E013F8015B01F873
:10037000015B521EF9D5A142D8D3002070BD000008
:100380000C4B10B518680C4C05F0E8F90B4B1868CD
:1003900005F01EFA2368012200201A7698855885F8
:1003A00005F048FA064A2368126802B1DA610022B1
:1003B0009A7610BDB8000020BC000020B4000020D8
:1003C000B0000020014B83E8030070473804002090
:1003D000014B83E80300704740040020014B83E891
:1003E0000300704748040020704700BF704700BFFB
:1003F0002DE9F04F4F4E3368DA69B3F92250D469D2
:10040000B4F80CB083458BB07DD8E18981427AD3B2
:10041000216808914FF0FF31CBEB000B0791BBF146
:10042000FF3F6AD0177EB3F92A80A27CB3F92490EB
:1004300094F810A017FB02F34046069305F0FAF972
:100440003368069A0899099002FB0B109A6BDB69D6
:1004500004900592A27C03924FF0010BCDF808B0F6
:10046000DA7E01929B7E009328463B4652464946DF
:1004700004F07EFB079801301CD048F0020005F024
:10048000D9F92C4A079812680899069B03FB0013B8
:10049000916BD26905910493A37C0393CDF808B0C6
:1004A000D37E0193937E009352463B4649462846AD
:1004B00004F05EFB33681F4FDB695A7E1B7E9A4255
:1004C00014D9B8F1020F11D088F0040005F0B2F988
:1004D0003B68DB69187ED97E9A7E5B7E00FB0191CA
:1004E0000AFB02524B44284604F028FD9DF82400E4
:1004F00005F0A0F93368B3F92250627C15445D849D
:100500000BB0BDE8F08FA1680029F6D00F88B84283
:10051000F3D3B1F802E08645EFD34968C01B80B23F
:100520006768089701EB800731F920B0B7F902102E
:10053000079174E7BC000020044B1B68DB69DB6992
:1005400009B11A7C0A60587C704700BFBC000020CB
:1005500002230B80704700BFC3699A898A4202D880
:10056000DA898A4211D2986818B10388994201D277
:100570000020704742888A42FAD3C91A436833F888
:100580002100C043C0F3C03070470120704700BF56
:100590002DE9F04F3E4D2B68DA69B3F92A60D36933
:1005A00089B043B11A88904202D35988814205D25A
:1005B0009B68002BF6D109B0BDE8F08FD3F804801A
:1005C000DFF8CC90841A08EBC407304697F802B0E5
:1005D00005F030F98246286818F83420D0F81CE07D
:1005E000D0F838C09EF81830B0F92410B0F92200C5
:1005F000CDF814C006934FF0010C7B680493CDF83E
:100600000CB0CDF808C09EF81BC0CDF804C09EF811
:100610001AE0069BCDF800E004F0AAFA2B68DA692C
:10062000537E92F818B05B4523D9022E069320D052
:10063000D17E079101F036F8064601F01BF803F071
:1006400021F9D9F8002018F834C0D469B2F9220091
:1006500094F81BE00799B2F92440069B0CFB0E02AC
:1006600001FB034301FB0B4104F068FC304603F03F
:1006700009F9504605F0DEF82B687978D8695A8C6C
:10068000807E00FB01225A8409B0BDE8F08F00BFD4
:10069000BC000020114B70B41B68DD69EB6943B1ED
:1006A0001A88904202D35C88844205D29B68002B52
:1006B000F6D1184670BC70475E68AC7E821A06EBB5
:1006C000C2035B7813FB04F00029F3D016F8323034
:1006D00014FB03F30B6070BC704700BFBC0000202C
:1006E00001230B80704700BFC06950B103888B4263
:1006F00002D843888B4203D280680028F6D1704725
:100700000120704700B9704707F072BF08B9002098
:10071000704770B5064607F06BFF044638B3154DB9
:100720001549EA696B6B0132EA6113F83020013236
:1007300003F8302003EBC00332465E680B6806F115
:1007400008000021984731686A6B12F83130012B9C
:1007500001D9E86920B9013B02F83130204670BD6B
:100760000138013BE86102F83130204670BD0020BD
:1007700070BD00BF3007002028010020024B21F08F
:10078000030183E8030070475004002000B970475C
:1007900070B50A4C636BC600334405465968486817
:1007A00007F078FD626B6368616A164401330020CC
:1007B0006360716002F83500656270BD300700202B
:1007C00028B1034AD36B036003B15860D06370470C
:1007D00030070020F8B5894E96F828300446002BE3
:1007E0002FD00334356CF26B24F003040434A5429B
:1007F00038BF254662B152F8043C9D42144604D1EC
:1008000014E054F8043C9D4210D02468002CF8D128
:10081000F368B46B1C4454F8041C611A0B68002B79
:1008200065D14B689D426CDD002408E023680BB164
:1008300061685960616801B10B60A24253D02046E3
:10084000F8BD6F4B9A685868012186F828100AB9DC
:1008500082089A605A25356210272022402519689F
:100860003764B264356580274FF480724FF40075A9
:10087000B7653266B5664FF480674FF400624FF497
:100880008055A1F114033767B267C6F880504FF462
:1008900000574FF480424FF400450344C6F8887077
:1008A000C6F89020C6F898504FF480374FF40032C5
:1008B0004FF48025C6F8A070C6F8A820C6F8B0503E
:1008C000022201254FF40027B16373633261F060A7
:1008D000C6F8B8705D607562756007F0DBFC0AF001
:1008E00021FF35637DE72368F3632046F8BD0020D0
:1008F0000CF022FE54F8041C611A0B68002B93D1F3
:100900008FE7D6F8B8703D4A581B041DBB420C4413
:1009100072D2D2F8B070BB426CD2D2F8A870BB428F
:1009200066D2D2F8A070BB4260D2D2F898709F42D3
:100930005AD9D2F89070BB4254D2D2F88870BB42D8
:100940004ED2D2F88070BB4248D2926F934243D2CB
:10095000376F2A4ABB423DD2976EBB4238D2176EE0
:10096000BB4233D2976DBB422ED2176DBB4229D208
:10097000976CBB4224D2126C93420CD2F26873691A
:10098000521B2B44F260736110B944F8045C56E7C3
:1009900007F080FCF9E700223768D1F808E0FB1A7D
:1009A0003360CB68BEF1000F01D0CEF8043013B134
:1009B000C3F800E0E2E706EBC202C2F844E0DDE77C
:1009C0000122E9E70222E7E70322E5E70422E3E761
:1009D0000522E1E70622DFE70722DDE70822DBE761
:1009E0000922D9E70A22D7E70B22D5E70C22D3E761
:1009F0000D22D1E70E22CFE70F22CDE730070020EE
:100A000050040020F8B54A4C94F82830002B3DD013
:100A1000D4F8BC30464A3BBBD2F8B43023BBD2F842
:100A2000AC300BBBD2F8A430F3B9D2F89C30DBB9B0
:100A3000D2F89430C3B9D2F88C30ABB9D2F8843044
:100A400093B9D36F83B9536F73B9E36E63B9536EC0
:100A500053B9D36D43B9536D33B9D36C23B9536CC8
:100A600013B96FF00B00F8BD9B68002BF9D0002282
:100A700001E09B6843B159689B689142104684BF6E
:100A80000A461046002BF4D10C38F8BD294B9A6861
:100A90005868012184F828100AB982089A601968F8
:100AA000A1635A261022202526622264A5644027CD
:100AB00080264FF480724FF40075A1F1140327656E
:100AC000A6652266A5664FF480674FF400664FF472
:100AD00080524FF4005503442767A667C4F880206E
:100AE000C4F888504FF480474FF400464FF48032EA
:100AF0004FF40035C4F89070C4F89860C4F8A02092
:100B0000C4F8A850022201254FF480274FF4002694
:100B100063632261E060C4F8B070C4F8B8605D60DF
:100B20006562656007F0B6FB0AF0FCFD25636FE7C0
:100B30003007002050040020074AD169536B01316F
:100B4000D16113F83020013203F8302003EBC003E9
:100B500058680830704700BF30070020F8B5544C83
:100B600094F82830002B51D0D4F8BC30504A83BBC5
:100B7000D2F8B4306BBBD2F8AC3053BBD2F8A4304F
:100B80003BBBD2F89C3023BBD2F894300BBBD2F8DD
:100B90008C30F3B9D2F88430DBB9D36FCBB9536F53
:100BA000BBB9E36EABB9536E9BB9D36D8BB9536DC3
:100BB0007BB9D36C6BB9536C5BB96FF00B033D49D8
:100BC000DA1781FB0313C2EB6313206A00FB03F007
:100BD000F8BD9B68002BF8D0002201E09B6843B170
:100BE00059689B689142104684BF0A461046002B04
:100BF000F4D10C38B0F5800F0346E0D8226A2D4BB3
:100C000002FB00F0A3FB00235809F8BD2A4B9A68A9
:100C10005868012184F828100AB982089A60196876
:100C2000A1635A261022202526622264A56440274B
:100C300080264FF480724FF40075A1F114032765EC
:100C4000A6652266A5664FF480674FF400664FF4F0
:100C500080524FF4005503442767A667C4F88020EC
:100C6000C4F888504FF480474FF400464FF4803268
:100C70004FF40035C4F89070C4F89860C4F8A02010
:100C8000C4F8A850022201254FF480274FF4002613
:100C900063632261E060C4F8B070C4F8B8605D605E
:100CA0006562656007F0F6FA0AF03CFD25635BE7D4
:100CB000300700201F85EB515004002030B403683A
:100CC0000A4A53F8085C0446506B10F83530012B83
:100CD00003D9D16909B10139D161013B00F835303F
:100CE00000221046226030BC704700BF3007002051
:100CF000034B5B6B03EBC00040680830704700BFDC
:100D0000300700202DE9F0470E468C003E4F82B0A0
:100D10008146084600F0CEFCA31907EB83033A682E
:100D2000D3F80480824662B3BAF1000F34D1A5191A
:100D300007EB850501236869C5F804902B7200282C
:100D40005DD1B9F1000F18D0344407EB840499E861
:100D50000300E368D9F8087022690125591AD21BEB
:100D60000095334602F0EEFC6061304600F0A2FCD4
:100D7000002836D1237A002B3AD1404602B0BDE894
:100D8000F0873846214B40F82C3F01233B6003F0AD
:100D900029FEBAF1000FCAD0504602F057FD0546B1
:100DA000002002F06DFD00F0C3F800221146D9F8D2
:100DB000000000F0FBFAD9F8003034445A88198852
:100DC00007EB8404504602F08BFD28460125C4F849
:100DD0000490257202F03AFD304600F06BFC0028CA
:100DE000C8D0294602F07EFD404602B0BDE8F0873B
:100DF000606902F075FC404602B0BDE8F08702F081
:100E0000F5F8C5F814A09CE700050020B5D100084E
:100E10002DE9F041064610461446884600F04AFC8B
:100E2000C8B9A700184D3B1905EB8303DA68B24235
:100E300004D11B69434501D1BDE8F0813B1905EBA5
:100E400083035869B0B93C4405EB8404E660C4F8F8
:100E50001080BDE8F0810C4B04EB840403EB8404A8
:100E600063689A685968C2EB0802711ABDE8F041DC
:100E700002F034BD5B689A685968C2EB0802711AC7
:100E800002F0DEF8DFE700BF0005002038B5114AA8
:100E9000114B1268507C00EB800403EB84040125A5
:100EA000636825727BB100F005FC38B9237A03B979
:100EB00038BD6069BDE8384002F012BC2946BDE883
:100EC000384002F00FBD0146BDE838400348FFF747
:100ED00019BF00BFBC0000200005002098B2010827
:100EE000C3B2CAB29A1A92B230B415B2002DBCBFC6
:100EF000524215B2C0F30723C1F307229B1A9BB2DB
:100F0000090C1AB2C1EB1041002A89B20CB2BCBF65
:100F10005B421AB2002CBCBF49420CB202FB02F287
:100F200005FB0520A1B201FB010030BC704700BFEA
:100F30002DE9F041002182B0084600F01FFC04209A
:100F400004F078FC164B1B69DD6C1C6DA5F57F5712
:100F5000A4F57F5605F57F5504F57F5480463F3F45
:100F60003F353F3E3F346846ADF80070ADF8045061
:100F7000ADF80260ADF8064006F09AFB48B1234692
:100F80002A463146384603F0D9FF06F04FFA0028CA
:100F9000F5D1404604F04EFC02B0BDE8F08100BF40
:100FA000AC00002080B582B000AF7860054B1B68B4
:100FB000002B03D0034B1B687868984700BF0837A5
:100FC000BD4680BDF0070020012B12DCF8B50646B7
:100FD0001C2017460C461D46FFF7FCFBB8B154B168
:100FE00004610023836085618782C660036043607B
:100FF000F8BD00207047074B53F825200AB9F0E7E9
:101000001A461368002BFBD113690361E9E700203E
:10101000F8BD00BF10080020012B3BDC2DE9F84390
:1010200081461C2090460F461E46FFF7D3FB05461F
:1010300000287FD0414A002F31D00023DFF804E19F
:1010400052F8264003609EF8001007618E428661C8
:10105000A0F81480C0F80C904360836002DB731C1E
:101060008EF80030002C5DD021464C68002CFBD15E
:10107000D9F80000CB681B6883422CDD0968002981
:10108000F8D148B92E4B16361A68284642F8265031
:10109000BDE8F883002070472846BDE8F88352F881
:1010A0002610002930D0084600E018460368002BBF
:1010B000FBD1DFF890E000692B6028619EF800000A
:1010C000AE618642A5F81480C5F80C906B60AB60E9
:1010D000CBDB0C46C3E70AD04B6843B31D606B60A3
:1010E0008D4214BF0B4600234D602B60C9E7B8F159
:1010F000010FF1D104E0D9680C6884421946EBDB9A
:101100000B68002BF7D1E7E7DFF838E001609EF8C5
:10111000003086619E42A0F81480C0F80C904160B7
:101120008160D6DA42F82650D9F80000A9E742F8E3
:101130002650D5E70020BDE8F88300BF1008002046
:10114000BC00002008080020FFF73ABB00283CD074
:1011500070B48469012C03DD0123184670BC70470C
:101160001E4B1F4D1A789442A4BF621C1A7055F88A
:1011700024300BB92FE013465A68002AFBD1C2680D
:10118000116802E01B68002BE6D0DA681268914211
:10119000F8DB0DD05A68DAB110604260984214BF93
:1011A0001A46002258600023026070BC184670473F
:1011B000828A012AEED104E0D3681E68B142134648
:1011C000E8DC1A68002AF7D1E4E7012318467047E3
:1011D00045F82400E2E745F82400BEE708080020AF
:1011E000100800200F4A816952F8213098420AD035
:1011F00042680AB103681360036803B15A600023B0
:10120000036043607047036842F821302BB100222D
:101210005A604268002AEED1F0E74268002AEAD11B
:10122000EDE700BF1008002001280EDC084B53F842
:10123000200058B1C3681B681BB908E0C3681B686D
:1012400023B100680028F9D170470020704770472B
:101250001008002070B505460EF08AFB084E0544C4
:1012600007E000F01FF93068A042A8BF20460EF04A
:1012700073FB0EF07DFB2C1A002CF2DC70BD00BF5E
:10128000C000002008B100F001B870472DE9F04F10
:10129000454E83B0044600F01DFA33680746B3F9A3
:1012A000229000F043FA3268938C1FFA80FACAEB5E
:1012B00003031BB29384217800294DD0BFB2B046FE
:1012C00047F6FF71204603F029FA0146834620467F
:1012D00003F0E2F931688B8D03F00303012B58D042
:1012E000022B5AD085B24FF0000E4A8CB1F924304F
:1012F000ADF80230CEEB020292B210B2013B05F122
:10130000FF3E964448843B446A465946ADF8000087
:101310002046ADF80630ADF804E002F057FF336820
:10132000BDF802209A845946204602F0F9FB225C5F
:101330000A2A04EB000319D00D2A17D0BDF80000CB
:10134000D8F8002005445584197819B159785C1CE7
:101350000029B5D1B2F92430918D9A4421F00303CC
:10136000A2F824A0938503B0BDE8F08F3268918D78
:1013700001F00301013901298ABF118CA2F82290E2
:10138000518419780A29E0D1918C394491841978D3
:10139000DBE71FFA80FE7546A7E700EBD072C2F3C9
:1013A0004F0E85B2A1E700BFBC0000202DE9F04F31
:1013B000DFF8E8900446D9F800300088DF6C1D6D36
:1013C000638889B002EB05080F440138013B3A18E5
:1013D000434406A8ADF81870ADF81A80ADF81C208B
:1013E000ADF81E3006F064F900284ED0DFF8B0A04A
:1013F000CB461AE040F0020002F046FA216921B320
:10140000D4F80CE0A668638822888DE8404001206B
:10141000039002900E6838464146B047284602F0D5
:1014200033FA06F003F800282FD00020E66802F017
:101430002BFA054616B13379002BDBD125F00200DB
:1014400002F022FA21690029DAD1D9F80020DAF86D
:101450000030527CE06821469847E188C0B163883B
:101460002288A6680590A08802910121039001912D
:10147000009138464146049603F07AFB284602F074
:1014800003FA05F0D3FF0028CFD109B0BDE8F08FF3
:10149000012904BFDBF80030986BE0E7BC000020B6
:1014A000AC0000202DE9F041124F134EDFF84C80C4
:1014B00000253C681CB1A047041C18BF012404F09F
:1014C00029FE3368002818BF01244BB1984738B172
:1014D000D8F8003013B1012498473CB10125E8E762
:1014E000D8F80030002BF7D1002CF7D12846BDE802
:1014F000F08100BF340800203808002030080020A8
:10150000002850D0C388013B10B5848880681F2B09
:1015100047D8DFE803F0162346314646463C4646A8
:101520004646464646404646464646464646464661
:10153000464646464610A31002FB031150F8210010
:1015400010BD02FB04F200EBD104C843A35C00F021
:10155000070023FA00F000F0010010BD02FB04F2C6
:1015600000EB91046FEA4100A35C00F0060023FA4F
:1015700000F000F0030010BD02FB04F200EB510488
:10158000CB07A05C4CBF00F00F00000910BD02FBB0
:101590000404605C10BD631002FB031130F81100FD
:1015A00010BD002010BD7047013800B51F2853D86A
:1015B000DFE800F01827523752525244525252522A
:1015C0005252524A52525252525252525252525203
:1015D000525252100198891000FB013352F8230037
:1015E0005DF804FB019802EBD30200FB01F0DB4342
:1015F000105C03F0070320FA03F303F001005DF829
:1016000004FB019802EB930200FB01F06FEA430335
:10161000105C03F0060320FA03F303F003005DF807
:1016200004FB019802EB530200FB01F0DB07105CA6
:101630004CBF00F00F0000095DF804FB019800FBAF
:101640000122D05C5DF804FB0198491000FB0133D6
:1016500032F813005DF804FB00205DF804FB00BFC6
:10166000034B53F82000C36808219B6A184700BF4A
:101670001008002008B503F0A1FCBDE8084003F005
:1016800081BE00BF024B1B68DB6900215B68184705
:10169000BC000020024B1B68DB695B68184700BF79
:1016A000BC00002008B503F091FCBDE8084003F041
:1016B00069BE00BF01289ABF024B53F820000020EA
:1016C000704700BF78050020014B1B68187C7047ED
:1016D000BC000020024B1B68DB69587E704700BFCE
:1016E000BC00002038B50D46144603F0E7FC10B1ED
:1016F00000232B60236038BD044A054BB2F900205B
:10170000B3F9003002600B60704700BFF60700209D
:10171000F80700200448342335216122017002714A
:101720008370C370704700BFA40000200A4B1A6882
:10173000938D03F00C03082B05D00C2B03D0042B46
:1017400005D000207047D369187E40087047D369E0
:10175000187E0138704700BFBC000020024B53F8D0
:1017600020301B691868704710080020024B53F89E
:1017700020301B695868704710080020024B1B6816
:101780005884998400207047BC00002090B583B035
:1017900000AF334A324B1B6823F001031360314B17
:1017A00001221A6000BF2F4B1B68002BFBD12E4B70
:1017B0002E4A1A602C4B1B682D4A934200D0FEE73C
:1017C00002F0C6FC2B4B2E221A700EF0D7F82A48D6
:1017D0000BF0B0FA0DF072FB786003F0E9FC034601
:1017E000002B0CBF01230023DCB203F027FD0346CE
:1017F000002B0CBF01230023DBB22343DBB2002B01
:1018000009D003F0EBFC044603F02EFD0346194615
:10181000204604F009F80021002002F065F805F0E8
:1018200083F8164B1B68002B12D00DE0134B1B687E
:101830001B68002B03D0114B1B681B6898470F4B8C
:101840001B685B680D4A13600C4B1B68002BEDD1C5
:101850000B4B01221A707B6818460C37BD4690BDB1
:10186000002000E00830024000300240C2A507F42A
:10187000CDB5E8B5F407002064040020DC040020A6
:101880000008002010B582B028B90F4B1B68186EF5
:1018900008B902B010BDFFF74FF902AB446943F835
:1018A000080D1846FFF70AFA002CF2D02046FFF781
:1018B00043F902AC826844F8040D936898472046C7
:1018C000FFF7FCF902B010BDBC00002000B9704762
:1018D000014A114600F002B801F0FFFF2DE9F04780
:1018E000064684B000200C461546DFF8E48001F07F
:1018F000CBFFD8F80030814630461F6EFFF71CF949
:1019000003680090986901F0A1FF304B9C42009B56
:1019100004BFB3F90440B3F906501A895B89ADF8E6
:101920000840013A013B22442B448246ADF80C208A
:10193000ADF80E30ADF80A5004F06CF96846FFF7C8
:10194000BDF902A805F0B4FE10BB504601F07EFFC1
:10195000A7B3D8F800301B6E6BBB04F08DFA384685
:10196000FFF7EAF804ACD8F8003044F80C0D1F6615
:101970000068FFF7EBFB2046FFF7A0F903F0F8FF44
:1019800003F018FF484601F07FFF04B0BDE8F08780
:101990002A462146304600F06FFC05F047FD00283E
:1019A000D3D02A462146304600F066FC05F03EFDC5
:1019B0000028EDD1C9E701F03FFFCEE701F03CFF81
:1019C000484601F061FF04B0BDE8F08701F0FFFF79
:1019D000BC0000202DE9F0431D4D1E4C2E6896F8EA
:1019E00011E085B054F82E4006460F4690469946C1
:1019F00001E02468DCB1E3681A68042AF9D1DB6AE3
:101A00000121204698470546C0B12469A36898473C
:101A1000013017D00C9B0093029401954B4642462F
:101A20003946304600F0AEFA05B0BDE8F0837046A6
:101A3000FFF7FAFB044608B1C368E0E7002005B0F1
:101A4000BDE8F0830C9B044C43F001030C93E1E7E9
:101A5000BC00002010080020EC8A0108C0B1114B26
:101A600010B51B681B6E984282B0044616D0204603
:101A7000FFF762F8436901905BB90068FFF764FB08
:101A800001A8FFF71BF92046FEF780FE02B010BD4B
:101A90007047184602F054F90198EEE701F0CCFEC9
:101AA000E5E700BFBC0000202DE9F04FDFF85CB196
:101AB000544CDBF800506F7CE457012C064687B08D
:101AC000894692461D46384640F38A8003F076FBED
:101AD0000446384603F0B8FB0746002E7DD005A922
:101AE00004A8FFF709FE049A0599B6F900C0B6F9F3
:101AF0000200B6F904E0B6F9063014440F44013C84
:101B00002CEAEC72013F20EAE071029203917445E5
:101B1000D4BFC2EB0402C2EB0E029F42D4BFC1EBA2
:101B20000701C1EB030114460F460134013705B923
:101B30007D42002C4DDD002F4BDD109B0093224693
:101B40002B4603990298FFF745FF804600284FD0A7
:101B500000F08AF88742064604D0DBF80030986C23
:101B600000284BD1404600F081F93D4600240EE0AC
:101B7000AD1BACB95046C847234B1B683444FF200B
:101B800003B198474046FFF7A1FEA74212DDAE42DF
:101B9000EEDD2946404600F04FF9AD1B002CE9D0A0
:101BA000039B02994046E21800F08AF94046FFF78D
:101BB00069FEDFE74046FFF751FF002000F056F9CD
:101BC000B74206D0DBF80030986C10B1332106F034
:101BD00083FA002007B0BDE8F08F03960296A6E7CF
:101BE00003F096FA0446384603F0BCFA074674E759
:101BF0005046C847012007B0BDE8F08F322106F0FB
:101C00006BFAAFE70C080020E0060020BC000020C3
:101C100030B583B018B90446204603B030BDFEF796
:101C20008BFF036802AD1B6945F8040D9B6898475C
:101C300003F0BEFF04462846FFF740F8204603B0F5
:101C400030BD00BF70B110B582B0FEF775FF02ABBA
:101C500000F1180443F8040D1846FFF72FF820464A
:101C600002B010BD704700BF10B582B060B1FEF782
:101C700063FF02ABB0F90A4043F8040D1846FFF7C2
:101C80001DF8204602B010BD044B1B68186E0446B8
:101C90000028ECD1204602B010BD00BFBC000020DF
:101CA0002DE9F04FDFF888B189B0064605273046A8
:101CB000FEF742FF034607A8B3F90080B3F90440DA
:101CC000B3F90290B3F906500793C8EB040401344A
:101CD000D3F824A0C9EB0505FEF7F0FF002C05F1B1
:101CE000010555DD002D53DDBAF1000F55D104F08B
:101CF00053FB86427FD04A4B01934FF0010A49467D
:101D000040462B462246CDF808B0CDF800A000F0A2
:101D100039F980463046FEF70FFF0790C0F824805F
:101D2000B8F1000F60D0836ADFF8089143F4803384
:101D3000836207A8FEF7C2FF404600F097F80590BF
:101D4000504602F061F84046FFF77CFF354A364BBB
:101D50001978136805FB04F29200344C984730461A
:101D60002568C9F8006004F041FB2060304606F0A9
:101D7000A5F8002210462560C9F8002002F044F8BA
:101D8000059800F073F83046FEF7B2FF406AF0B9EC
:101D9000013F8CD109B0BDE8F08F5046FEF7CCFE74
:101DA000034608A8B3F9045040F8083DB3F90640CB
:101DB000FEF784FFA8450FD04A464146504600F042
:101DC0007FF83046FEF794FF406A0028E0D000F02C
:101DD000ABF809B0BDE8F08FA145D4D04A464146E2
:101DE000504600F06DF8ECE707A8FEF767FF3046B5
:101DF00006F064F8CCE703F0C5F9824603F008FA70
:101E0000544503DC85427FF776AFA2468542A8BFE2
:101E100005462A465146304605F0E8F954466AE739
:101E2000A4D2010828010020E40600202C0700208D
:101E3000EC8A0108B80C002010B50C4682B060B1E5
:101E4000FEF77AFEB0F90A300190A342C8BF448180
:101E500001A8FEF733FF02B010BD034B1B68186EDC
:101E60000028EDD102B010BDBC000020F0B5134F2A
:101E70003B6883B01E6ED8B10446B6B903F0FCFFD0
:101E80002046FEF759FE02AD3B6845F8040D1C667E
:101E90000068FFF75BF92846FEF710FF03F068FDC6
:101EA00003F088FC304603B0F0BD01F0C5FCE5E767
:101EB00001F0C2FC304603B0F0BD00BFBC00002002
:101EC00030B50C4683B0154628B9164B1B68186E02
:101ED00008B903B030BDFEF72FFE2DB224B2C58085
:101EE0008480009003F066FC009B586920B9684626
:101EF000FEF7E4FE03B030BDFEF71EFE009A01902F
:101F0000B2F90830B2F90A20C280838013B10AB155
:101F10000480458001A8FEF7D1FE6846FEF7CEFE9C
:101F2000E8E700BFBC00002000B9704770B584B07E
:101F30000446FEF701FE014601A8B1F90460B1F9BB
:101F400006500A894B89019132442B44013A013BE6
:101F5000ADF80860ADF80C20ADF80E30ADF80A50C1
:101F6000FEF7ACFE02A805F0A3FB40B12A463146BD
:101F7000204600F063F905F059FA0028F6D104B0C4
:101F800070BD00BF2DE9F04FDFF82C8187B0D8F885
:101F9000004081468A4617461E461299637C119876
:101FA0000022FFF711F800284DD003699B68054611
:101FB000984703F0FDFD00FB07F48346FEF7CEFDD6
:101FC000109B073413F001034FEAD4043FD0002ED6
:101FD0002CDD002B42D004FB06F01830FEF792FBFC
:101FE000034668B30022029218460393FEF7A4FD4D
:101FF000024606A8029BA2F8049040F8042DA2F81D
:1020000006A017815681D460C2F810B053611560E4
:10201000FEF754FE129B2B61D8F80020039BAB60A7
:10202000527CAA61184607B0BDE8F08F002C34D16D
:10203000204676428642A8BF064693B3002ECADCED
:102040002846FFF781F8002007B0BDE8F08F002890
:10205000B8BF0330801000EB4000B8E700933A4669
:1020600033465146484601F0DDFD029004FB06F080
:102070001830FEF74BFB03460028B5D128460393E2
:10208000FFF762F8029B002BDDD01846FEF77EFBBF
:10209000039B184607B0BDE8F08F1838B0FBF4F08A
:1020A000C7E700933A4633465146484601F0BAFD29
:1020B000002E0290DADCC3E7BC0000202DE9F04FCF
:1020C000594C5A4BD4F800C0DFF868919CF8115075
:1020D000D9F8006053F825408BB02369002E00F03A
:1020E00088801746DCF8602080460D46002A00F004
:1020F0008580E2681268072A78D04D4A9A1AB2FAA7
:1021000082F25209002A71D04046FEF715FD0346BF
:102110000AA8B3F908B040F8083DB3F90AA0DB6893
:102120000593FEF7CBFD404B18680BEB0504B0F9A7
:102130000C30013CE41AB0F90830002CCCBFC4EBE1
:102140000B045C469D42BDBF591B641A1D4600210D
:10215000002C50DD0AEB0703B0F90EE0B0F90A00DD
:102160000791013BCEEB0303002BC8BFC3EB0A0A68
:10217000B842C5BFC31BC3EB0A0A00230746BAF126
:10218000000F069337DD4046FFF75CFD264B0799AD
:102190001A68069BD2F860C003FB0B1100EB8106A6
:1021A000BCF1000F30D06046FEF7C6FCB0F9043039
:1021B000D0F80C800AAAED1AB0F9063042F8040DE6
:1021C000AD001835FF1A08FB075707441046FEF705
:1021D00075FD87B1059B0193CDF80080D9F80050BB
:1021E0005346224631463846A84704E03A46294637
:1021F00040460CF0D1FB0BB0BDE8F08FE2681268EE
:10220000B2FA82F252097DE7507CDFF82CE0CDF87B
:1022100004A04FEA8B020292009433463A462946C4
:10222000DEF80040A047E6E7BC00002010080020D0
:10223000EC8A01081C080020180800202DE9F04154
:1022400082B00F4690460646FEF776FC036802AC65
:10225000DB6844F8040D16215B6A002098470546A8
:102260002046FEF72BFD1DB1424639463046A847B1
:1022700002B0BDE8F08100BF2DE9F04FA1B00D9193
:1022800010B921B0BDE8F08F92460746FEF754FC26
:1022900020AB446943F81C0D1846FEF70FFD384685
:1022A000FFF7B6FC0828054602DD002C00F0D980B7
:1022B00001234FF0000B38461F930A93CDF878B0F6
:1022C000FEF73AFC0168DFF8688409690446D8F82B
:1022D0000000E3684D68B4F908100F9320AE23693D
:1022E0001491407CB4F90A10099346F8144DD4F8BF
:1022F00014901691FFF7B4F9D8F800100890487CB4
:10230000FFF734FA04463046FEF7D8FC099A0A9BD8
:10231000082A40F2A080102A13468CBF042302230F
:10232000CDF828B00E93A54200F0AC81D8F800306B
:10233000587CFFF713FA149B06469800FEF7E2F963
:10234000129000289DD03846FFF77CFC0746B9F173
:10235000000F00F0F5804846FEF7EEFB169B1C9040
:10236000002B40F38B8100230C930F9BCDF840A0F2
:10237000FB1815931DAB11934FF0010819468368A4
:1023800000221D925B690C9A9847159B0F9A9B1A25
:102390000B93149B8342044600F03181099B012B6F
:1023A00000F0F280002845D01AAB13931298FEF784
:1023B000C3FB099B1A90082B07461D9A40F2D48054
:1023C0000E9B0B99A34602FB031A81463AF8020BB7
:1023D000A847B047BBF1010B49F8040BF6D1089BA5
:1023E0001F2B04D838461A46214601F023FD0A9ACD
:1023F000059200220392089A1D9802920D9A1A9B48
:1024000010990493104401232246CDF80480CDF89E
:10241000008002F0ADFB1398FEF750FC1C981D9B4A
:102420008268119957690C9A1C441D94B847044658
:102430000028BBD1159A0F990C9B0A441592109A4B
:1024400001321092169A01339A420C9300F01681D1
:102450001C98119993E7012A6ED11EAB0E920A9334
:1024600061E73846FEF768FB20ABB0F9088043F817
:10247000100D02460168B0F90A00089018460E696E
:10248000D2F80CB009920E93FEF718FCA848A9499F
:1024900000687368407C0C9351F820100C69236825
:1024A0000A93FFF7DDF80828099A40D910288CBF55
:1024B0002023102309938CBF4FF004094FF0020929
:1024C000A64200F02D82202D00F09E81102D7FF479
:1024D000D8AE08FB09F0FEF715F9109000283FF47C
:1024E000D0AEFEF729FB1E903846FEF725FB1C9068
:1024F000236900F118020B92002B00F0228273690D
:10250000002B00F01E82B0F908008000FEF7FAF8F8
:102510000F90002840F069821D900E98FEF7CEFBC8
:102520001EA8FEF7CBFB1098FEF730F9A9E60823AA
:1025300009934FF00109C3E70E93CDF828B0F2E6F6
:102540000A9B05930F9B03930124099B049002931C
:10255000149A169B0D9801945146009402F008FBC2
:102560001298FEF713F98CE60E9B0B99A14602FB1D
:10257000031B82461BF8010BA847B047B9F10109BC
:102580004AF8040BF6D12AE700283FF453AF179618
:102590000C9F0A9EDDF84090DDF834A0DDF844B0D1
:1025A0001395DDF874E00B9D05960EF0070006907C
:1025B0000AEB0E00BEF1000FB8BF0EF1070E05EBDF
:1025C000EE0E0F9DCDF810E02246012349460395FB
:1025D000CDF80880CDF80480CDF8008003F0DAF95A
:1025E0001C981D9B82681C44594653691D943A46A9
:1025F000984704460028D4D1139D179E1AE71298D5
:10260000FEF79AFA099B1A90082B8146149FDDF871
:102610002CA0044629D93AF8020BA847B047013F3D
:1026200044F8040BF7D1089B1F2B04D848461A46E0
:10263000149901F0FFFB0A9A059220AB1A460D98F7
:1026400052F8183D0493144600220392089A02920D
:10265000CDF80480CDF800800123149A109902F07F
:1026600087FA2046FEF72AFBE4E61AF8010BA84792
:10267000B047013F44F8040BF7D1D4E71CA8FEF79C
:102680001DFB6DE73846FFF7DDFA0746B9F1000F8D
:1026900000F0A9804846FEF74FFA169B1C90002BCD
:1026A00040F39D8000261DABCDF82CA0DDF834A0B2
:1026B000B146012598468368CDF874905B6932462F
:1026C00041469847149B834204462DD0099B012B19
:1026D00055D008B30B9B03EB060B0A9B1D98059383
:1026E0000E9B0F9A039203FB0073099A02920493C4
:1026F00022465044012359460195009502F038FACC
:102700001C981D9B82681C44414653691D943246A7
:10271000984704460028E0D10F9B01361F44169BC2
:10272000B3425CDD1C98C6E70897B3461F4604E039
:10273000BC00002010080020A3461C9883680BF101
:1027400001045B692246414698478742F4D00999C3
:1027500002910B990A9A089F0592C6EB0B030F9AF8
:10276000049731440F9E0392013301950095149A0A
:10277000504606FB0377264602F0FAF9CFE7002819
:10278000CAD00B9B089603EB060BDDF874E00A98A1
:1027900005900EF0070006900AEB0E00BEF1000F48
:1027A000B8BF0EF1070E07EBEE0E0F9ECDF810E04E
:1027B000224601235946039602950195009503F0A0
:1027C000E9F81C981D9B82681C44414653691D947E
:1027D000089A984704460028D7D1089E9CE71CA871
:1027E000FEF76CFA4DE50A9B05930F9B03930124BA
:1027F000099B04900293149A169B0D9801945146DC
:10280000009402F0B5F93CE509FB08F0FDF77AFF0A
:102810000B9000283FF435ADFEF78EF91E90384638
:10282000FEF78AF91C90256900F1180745B34FEAB5
:10283000880B012619E0B9F1040F19D0B9F1010F85
:1028400016D000221E990998029001230592039246
:10285000049101965146009642460D989A4402F022
:1028600087F9089B013B089350D0B9F1020FE2D1E0
:1028700038461E9925694B464246A8475F44E0E723
:102880000C950126089C14E0B9F1040F00F08D812D
:10289000994500F035810C9D05950395099D02959C
:1028A0001E9D01960096049502F062F9013C2DD020
:1028B000DA460123B9F1020F514642460D980AEB60
:1028C000030BE1D108944FEA88050124DDF87890E4
:1028D000BB4646465BF8040B0A9B9847013E29F825
:1028E000020BF7D11E9B099A0292049351460123D1
:1028F000059603960194009442460D989A4402F07E
:1029000037F9089B013B2F440893DFD10E98FEF75F
:10291000D5F91EA8FEF7D2F90B98FDF737FFB0E402
:102920000124183200260492CDF80CB00295089BC1
:102930000D980596424651460194009402F018F90C
:102940009FE400250126089C16E0B9F1040F00F071
:10295000FC80994500F0A4801E9F0897099F02976C
:10296000089F0595039501960096049702F000F9DB
:10297000013C3FF4D2ADDA460123B9F1020F5146D2
:1029800042460D980AEB030BDFD14FEA48060C9D37
:1029900008940A9F0A9601241E9EDDF82CB0C146B9
:1029A0003BF8020BA847B847B9F1010926F8020B1A
:1029B000F6D10B9E1E9A099B0293B6460A9E04927C
:1029C00001235146B644CDF81490CDF80C900194F3
:1029D000009442460D98CDF82CE09A4402F0C8F8D5
:1029E000089B013B0893D7D197E5FEF7A5F81D900A
:1029F00000283FF492AD4FEA480337460A93012579
:102A00000C940B9E19E0B9F1040F30D0B9F1010F0D
:102A100028D000221E990998029001230592039262
:102A2000049101955146009542460D989A4402F052
:102A30009FF8089B013B08932BD0B9F1020FE2D11C
:102A4000DDF878B01D994B46424630467C69A04778
:102A50000A9C1D9826440C9C59464B4642462469C4
:102A6000A047D6E7DDF878B01D990223ECE73046A1
:102A70001D997C69DDF878B002234246A0470C9C82
:102A80001D9824694B4659464246A0470A9B1E445E
:102A9000BFE71DA8FEF712F90F98FDF777FE3CE59A
:102AA00008FA03F60C9D08940A9F0A964C461E9E4F
:102AB000DDF82CB0C1463BF8020BA847B847B9F186
:102AC000010906F8010BF6D10B9E1E9A099B029391
:102AD000B6460A9E049201235146B644CDF814909E
:102AE000CDF80C900194009442460D98CDF82CE05E
:102AF0009A4402F03DF8089B013B0893D7D10CE5BE
:102B000008944FEA88054C46DDF87890BB46464667
:102B10005BF8040B0A9B9847013E09F8010BF7D1BB
:102B20001E9B099A0292049351460123059603962F
:102B30000194009442460D989A4402F019F8089BBB
:102B4000013B2F440893DFD1E0E64FEA48060C9D95
:102B500008940A9F0A9601241E9EDDF82CB0C146F7
:102B60003BF8020BA847B847B9F1010946F8040B36
:102B7000F6D10B9E1E9A099B0293B6460A9E0492BA
:102B800001235146B644CDF81490CDF80C90019431
:102B9000009442460D98CDF82CE09A4401F0E8FFED
:102BA000089B013B0893D7D1B7E408944FEA880506
:102BB0000124DDF87890BB4646465BF8040B0A9B7F
:102BC0009847013E49F8040BF7D11E9B099A0292DF
:102BD00004935146012305960396019400944246BE
:102BE0000D989A4401F0C4FF089B013B2F440893C1
:102BF000DFD18BE6184B194A196A70B500290CBF52
:102C00000646002682B09157012923DD03EB860298
:102C10001469651C1561ECB9956853F82630264691
:102C20002C4600E01C4601348C420ABF002494600C
:102C30009660A342F6D0FEF7F7FA019050B1C36850
:102C400021215B6A01A89847034618B1224629460C
:102C50000198984702B070BD4C0500200C08002078
:102C600030B50C4D6B6A83B0044653B12A6A0A4BE7
:102C7000002A18BF00240129B8BF0121195503B04B
:102C800030BD2846054B40F8243F019101F0AAFED3
:102C90000199EBE74C0500200C080020CDD100087D
:102CA000094B1A6A002A18BF002003EB800210B4F7
:102CB0009469002C04DB43F820104FF0FF3393613C
:102CC0005DF8044B704700BF4C050020164B174AB7
:102CD000196A30B500290CBF0446002483B012578E
:102CE000012A05DD03EB84042369013B23610BB159
:102CF00003B030BD05460120A840FEF753F9284631
:102D0000A568A561FEF790FA01900028F0D0C3688D
:102D100022215B6A01A8984703460028E8D029468B
:102D20000198984703B030BD4C0500200C080020E6
:102D300020B321B322B3B2F900C0B1F90630F0B527
:102D4000B1F90050B2F902E0B1F90240B2F90470F1
:102D5000B2F90660B1F904206545A8BF6546A645ED
:102D60007146A8BF2146BA42B8BF3A46B342B8BF7F
:102D70003346058041808280C380F0BD7047114694
:102D80000B684A6842600360704700BF78B170B456
:102D9000068844888588C38889B292B20E44144458
:102DA00029440680448070BC1A448180C2807047E8
:102DB00070B4104D2B686A68934204460FD093E8B4
:102DC00007000D4E84E80700B34214BF0C333C3BB0
:102DD0002B60207A003018BF012070BC7047074A72
:102DE000934206BF3C3393E8070013E9070084E8E9
:102DF0000700EEE71C0100206006002024060020EA
:102E0000034B09CBC01AB0FA80F04009704700BFED
:102E10001C010020F0B5374E336D85B00446002B01
:102E200055D094E80700344C344DF36C256001AD67
:102E300085E807000BB128469847314FD7F800E0E6
:102E40007B689E4538D0B3422A4C9DF80C2035D083
:102E500013F8041C914212D03C3495E80700A342B9
:102E600083E807001BD00C339E457B601BD0B36CFE
:102E70000BB12846984700F053FD05B0F0BDA3F113
:102E80000C018E45E8D0A1422ED03C340C39097A91
:102E90009142E2D1B34214BF0C3B2346DDE7154B10
:102EA0007B609E45E3D1174B9E4514BF0EF10C038A
:102EB000AEF13C033B60DAE7124CCEE796F84410E3
:102EC00091420BD095E8070086E80700CBE7304633
:102ED0000D4B40F8503F01F085FDA2E706F13C04A0
:102EE000A645EFD02146D1E701F13C0403F13001C2
:102EF000CDE700BF24060020C40C0020FD630008BD
:102F00001C0100206006002059D20008094A1368FD
:102F100051688B420CD010B5074CA34293E80300D4
:102F200014BF0833503B136004F03EF8012010BD7D
:102F3000002070471401002018060020F0B5164C40
:102F4000059E2568069CB5F908E0B5F90C7070453A
:102F5000B8BF7046BA42A8BF3A4690421ADCB5F9EB
:102F60000A70B5F90E50B942B8BF3946AB42A8BF96
:102F70002B468B4203DAF0BD25682DB12C46E5685F
:102F80002D6835F00405F7D106940596BDE8F040AC
:102F900002F0C8BAF0BD00BFBC000020B0F90220AA
:102FA000B1F906309A4214DCB1F90220B0F90630CA
:102FB0009A420EDCB0F90020B1F904309A4208DCE4
:102FC000B0F90400B1F900308342CCBF00200120E9
:102FD00070470020704700BF08B5034B01467422BC
:102FE0001868FDF730F908BDBC00002000B9704733
:102FF00030B5044683B00BF0C7FB2046FDF79CFDBF
:1030000002AD45F8040D0068FEF7ECF82846FDF720
:1030100055FE2046FDF790FD01900068FDF7D0FBBE
:10302000019BD868FDF7B2FB019BD869FDF7AEFBA9
:103030002846FDF743FE2046FDF7A8FB03B030BD50
:1030400000B970472DE9F04FABB00D4616461D9202
:103050001C91FDF771FDB0F90430046827909D4282
:10306000129400F081810020FEF700FF9F4B129A1E
:103070001B689269597C20900846279D21918242C5
:1030800018BF5A74B5F9043007931846B5F90810FB
:10309000B5F906301992B5F90A2013931C46091A9E
:1030A000121B0E460B911A922146144632460132EB
:1030B0002B8A1B92224601329B071E9240F13781D8
:1030C0001C9B6A6903921B1A1D9A1493002BA2EB96
:1030D000010440F3BB810993DDF86C9000234FF0AD
:1030E000010A1193002C40F3BC811E9B169301230F
:1030F000179415934FF0000B129E7D4BB0691B5631
:10310000012B40F39D810023ADF8A230ADF8A03033
:1031100002F054F8431EB069ADF8A43002F094F800
:103120000138ADF8A6002798524600F1140105F0C9
:1031300017FE2290002800F0F9802798524600F1EF
:10314000140105F00DFE2490002800F0EA80279B72
:10315000D868002840F09581169A5A4500F0DD8025
:103160001B9B119923909A000BFB031305EB830320
:103170000E93C4EB0B030C93139B159923441893E4
:103180004FEA8A0301FB02F204935B461F92D34687
:10319000C8469A46179B534500F307811A9B53452F
:1031A000B4BF002301231093139B119C53440F932E
:1031B000189BA0455344089300F0A0801498079BE7
:1031C0000E9D0344C0EB04090A935FE00B9BA342EE
:1031D0006CDB109B002B69D0BDF9A020BA4240F3F4
:1031E000758200230593B9F1000FC0F2CA800C9BD1
:1031F000002BC0F2C6801A4649460398FEF780F9B4
:10320000030E40F0BE80BDF9A030069A9A420FDB53
:10321000BDF9A2200F998A420ADCBDF9A4200699C3
:103220008A4205DBBDF9A6200F998A4280F2A2806E
:103230009F4223DBBDF9A230089883421EDCBDF912
:10324000A430BB421ADBBDF9A630834216DB304600
:10325000284B239E1B6846F07F41FF229847199A0E
:10326000254B53F822301B691B689847229B00931B
:103270000246129B089938460AF0B6FC059B2B6261
:103280005C44049BA0451D44D94437D05246214696
:103290000398FEF735F9030E0646F1D0079BE318B5
:1032A00006930A9B1F19099BA3428FDDBDF9A0302D
:1032B000BB421A4668DCBDF9A23008998B424FF038
:1032C00000036FDC0D93BDF9A430BB4204DBBDF9F4
:1032D000A630089A93426BDA002305930D9B002BCE
:1032E00081D1BDF9A02013468FE700BFBC000020AC
:1032F0000C080020C4000020100800200E9B1F991D
:10330000159A0B440E930C9B1946169B924411443C
:1033100053450C917FF43EAF279B186824990AF01F
:10332000C5F8279B229918680AF0C0F8279D1C9BB6
:103330001B9A1D99AB801E98E9801344013B4A1EDD
:1033400002442B81199B6A81219A1946914202D02D
:10335000A54B1B685A742098FEF788FD27A8FDF737
:10336000ADFC2BB0BDE8F08FB0F906309E427FF483
:103370007AAEF3E7249B2A6A06980093129B0AF020
:1033800033FCBDF9A03053E7069A934207DCBDF940
:10339000A2200F99914202DB002205923DE7002313
:1033A00005936BE7059313462FE700231093FBE685
:1033B000279BB3F90420BA422DDCB3F90810B942B7
:1033C00029DBB3F906E00898864524DCB3F90A1036
:1033D000814220DB58692593E8B1BB1A1946059351
:1033E000089BCEEB03031A462393FEF789F8030EDE
:1033F000259B10D0B3F90410B3F90820521A239971
:1034000002FB011205990A4403EB82031B6A059330
:1034100043F07F400BE0129B186800282DD0C36852
:10342000089A5B6939469847059040F07F40199AA1
:103430006E4B53F822301B695B68984723904DE729
:10344000F368304628A91B6B98476CE60022099266
:10345000149A119633464FF0FF391344CA460B9322
:1034600040E64FF0FF331A9A1693159300231793F3
:103470001346234493461A933EE605904FF07F404F
:10348000D5E7FDF759FB169B26905B4500F0A6801B
:103490001B9B11999A000BFB031305EB83030D9300
:1034A000C4EB0B030C93139B1599234401FB02F20D
:1034B00018934FEA8A0310920493079A149B1344BB
:1034C000C8460A93D946179B4B4500F3AF801A9B19
:1034D0004B45B4BF002301230F93139B4B440E9322
:1034E000189B4B440893119B984569D0149A0D9DE5
:1034F0001C46C2EB030B4A4621460398FEF700F830
:103500000646002856D0079BE31806930A9B1F190E
:10351000099BA3426CDC0B9BA34269DB0F9B002B36
:1035200066D0BDF9A030BB42D8BF012300F3CB80E9
:10353000BDF9A22008998A4207DCBDF9A420BA424D
:1035400003DBBDF9A6208A427DDA0022059263B131
:10355000BBF1000F62DB0C9B002B5FDB1A46594668
:103560000398FDF7CDFF002858D1BDF9A030069A89
:103570009A420EDBBDF9A2200E998A4209DCBDF900
:10358000A42006998A4204DBBDF9A6200E998A423E
:103590003DDA9F420CDBBDF9A23008998B4207DC73
:1035A000BDF9A430BB4203DBBDF9A6308B4240DA43
:1035B000059B2B625444049B44451D44D3449AD13B
:1035C0000D9B1099159A0B440D930C9B1946169B55
:1035D0009144114499450C917FF475AF26A8FDF7ED
:1035E0006DFB279B99E600BFBC000020100800205F
:1035F000BDF9A030BB4217DD069A934211DCBDF93C
:10360000A2200E9991420CDB00220592B7E7249B81
:103610002A6A06980093129B0AF0E6FABDF9A030D8
:10362000B7E700230593C3E7002381E700230F9347
:1036300053E7269B53F82620229B00933846129B83
:103640000AF0D2FAB4E7279A0592B2F90420BA42F6
:103650000DDC0598B0F90810B94208DBB0F906E0B6
:1036600008998E4503DCB0F90A0088420DDA129AF7
:10367000106800283FF469AFC2681F933946536948
:10368000089A98471F9B059061E72593BB1A1F93E3
:10369000CEEB01021946059B23925869FDF730FFD6
:1036A000259B0028E3D00598B0F90410B0F9082054
:1036B000521A239902FB01121F990A4400EB82025D
:1036C000126A059243E70023059341E7BDF9A23052
:1036D000089A93423FF785AD01230D93F3E500BFB0
:1036E00000B9704730B583B00446FDF725FA038A68
:1036F00000909B0705D56D462846FDF7DFFA03B01D
:1037000030BD2046FDF718FA02AD0346006845F8C3
:10371000043DFDF71BFD2846FDF7D0FA6846FDF78E
:10372000CDFA20460AF036FE2046FDF705FA038A58
:10373000009043F002036D4603822846FDF7BEFA6F
:1037400003B030BD2DE9F043048883B0BDF8286094
:10375000002C5BD04488002C51D0C468002C52D07F
:10376000A468002C52D017468846054606F0010290
:1037700000212B48FDF728FC814600283FD02888EF
:103780006B8803FB00F080002030FCF7BFFF04468D
:1037900000283FD0C9F80800FDF7CEF929886A88CB
:1037A0000346013902A8013A41443A4440F8083D31
:1037B0001E825D61A3F80480DF8019815A81C3F8FD
:1037C0000090FDF77BFAEB682BB105F10C01204668
:1037D00005F06EFB98B9B307204611D5FDF7ACF99B
:1037E00002AD0346006845F8043DFDF7AFFC2846EE
:1037F000FDF764FA20460AF0CDFD204600E00020E7
:1038000003B0BDE8F083C588202DACD0204603B0BE
:10381000BDE8F0834846FDF797FC2046F0E700BF7F
:10382000FCB3010808B5034B74221968FCF70BFDC3
:1038300008BD00BFBC00002008B501F06DFF02F01C
:1038400097F8BDE8084002F0E5B900BF70B50A4D31
:103850002A680128567C01D9304670BD0446FDF720
:10386000E3FC0028F8D02B685C74FFF7E5FF034BFE
:1038700030461C6070BD00BFBC0000205C0C002006
:1038800001F06CBF01F0A4BF01F0D4BF034B1B6873
:103890000246D86902B1DA61704700BFBC0000205F
:1038A000024BDA69D8611046704700BF90050020CE
:1038B000014B1860704700BFAC000020024B1A6833
:1038C00018601046704700BFC4000020024B5A68C1
:1038D00058601046704700BFC400002001F0CABF06
:1038E00001F0E2BF02F02CB870B4094A094B12682B
:1038F000094E527C094D53F822303080DC68246A2E
:103900000A462A8001461846234670BC184700BF65
:10391000BC00002010080020F6070020F807002057
:10392000024B1B6803B11847704700BF7C0600209C
:10393000024B1A6802B91860FFF7F2BFC4050020F5
:1039400000B970472DE9F041DFF8B480D8F80040A5
:10395000A04282B0054640D06F461CB917E0FDF783
:10396000ADF9A4B12046FDF7E7F884680090A542C0
:103970003846F4D12846FDF7DFF8009B82680190B5
:1039800001A89A60FDF79AF93846FDF797F928469D
:10399000FDF7D2F8D8F804400090A542184B29D082
:1039A00001AE1CB910E0FDF789F96CB12046FDF7B6
:1039B000C3F844680190A54203463046F3D1009A0B
:1039C00052685A60FDF77AF93846FDF777F92846CC
:1039D000FCF7DCFE02B0BDE8F081FDF7ADF802AE09
:1039E000836846F8040D3046C8F800306F46FDF78E
:1039F00065F9CCE742685A603846FDF75FF9E6E7BB
:103A0000B406002010B582B018B90124204602B0D7
:103A100010BD0C46FDF790F802AB828943F8040D07
:103A20002242184614BF01240024FDF747F920461E
:103A300002B010BD30B50A4B1C68002383B0036090
:103A40005CB105462046FDF777F802AB026943F802
:103A5000040D2A601846FDF731F9204603B030BD49
:103A6000B406002070B5002382B00B6018B904467C
:103A7000204602B070BD0D46FDF75EF884680190E7
:103A800001AE2CB93046FDF719F9204602B070BDE1
:103A90003046FDF713F92046FDF74EF80369019013
:103AA0002B60EFE730B5134C85B00C22214605465C
:103AB000FCF7FCFB78B1E368A3B195E8070001AD22
:103AC00085E8070002A928469847034695E80700BD
:103AD00084E807000BB105B030BD2846FFF79AF91E
:103AE00005B030BD2846FFF795F995E8070084E852
:103AF0000700F0E780050020F8B5084E0468336839
:103B000005461B6820469847336807465B68204691
:103B10009847204428603846F8BD00BF240800209C
:103B2000F8B569B1074F05460C4600263B682846A4
:103B30005B689847013C05440644F7D13046F8BD20
:103B40000E46FBE7240800202DE9F843089C0546B3
:103B500089469846AB6849465F6828464346561CE6
:103B6000B847013C3246F5D1BDE8F883F8B5B0F965
:103B70000040B0F904500C1BAC422BDAB0F9021033
:103B800005692344013B521AE61005FB0265DF4339
:103B900007F00707FF21143504F0070401FA07F2C4
:103BA00041FA04F4D6EBE306D7B2E4B200EB050227
:103BB000435D10D0013E1C43002E02F10103445529
:103BC00005DD18463246FCF768FB034633441C7893
:103BD0003C431C70F8BD3C401C434455F8BD00BF3D
:103BE00070B4B0F902600369B0F90040921B03FBA6
:103BF00002F2091B143202EBE1028025835C01F022
:103C0000070145FA01F11943815470BC704700BFA8
:103C100003460021B3F906201B69143003FB02F2AE
:103C2000FCF73BBB2DE9F04302F10F0424116400C3
:103C30001D4603FB04F383B0804603F114001646CF
:103C40008946FCF763FD074690B1FCF775FF014616
:103C500002A8094A40F8041D01238E80CD800C6122
:103C6000A1F80080A1F802908A608B81FDF726F808
:103C7000384603B0BDE8F08318D30108B0F9063028
:103C800093423CDDF0B50D68B0F90470BD4234DA02
:103C900006694FEAE50E06FB02E6143605F0070357
:103CA000845D04FA03F3013F013613F0FF03CEEB0A
:103CB000E702304408D122B310F8013B083525F063
:103CC0000705013A002BF6D01E0634D45B00DBB2A8
:103CD0001C0605F10105F9D55F062C4605D55B00EC
:103CE000DBB25E0604F10104F9D404F00703072BEC
:103CF00009D0621B501C0D60F0BD0020F0BD0020FB
:103D000070471046F0BD002AF3DD0678FF2E00F163
:103D100001070DD1831803E017F8016BFF2E07D1BF
:103D2000BB4204F10804F7D1E3E77600F6B20134B0
:103D30003306FAD4DDE7FF2B08BFEC1DD5D0CBE767
:103D400030B583B00546FCF7F7FE02AB848943F833
:103D5000040D013C24B284811846FCF7AFFF14B96E
:103D60002846FCF713FD03B030BD00BFF0B583B0AB
:103D7000C0B9224C23690546CBB1E0681F4E18B983
:103D80001F4B1868F060D8B123681C4F002623B37E
:103D900063681A4FC3B115B1A368184C2BB33046F2
:103DA00003B0F0BD154C236901AD002BE5D12046D1
:103DB000144B40F8143F0123236100F013FEDCE7AD
:103DC00001F0B6F9F060DFE7F8688000FCF702FD6B
:103DD000002808BF01267860DDE78000FCF7FAFCC8
:103DE000B0FA80F638607609D2E7E0688000FCF728
:103DF000F1FC002808BF0126A060D0E79005002054
:103E0000FC07002015D2000810B5094B1C7838B902
:103E100002464FF07F401A7000F05EFE204610BD53
:103E2000012200201A7000F057FE204610BD00BF8E
:103E300009080020082A10B40EDD102A1CDC00EB53
:103E40004101034650F8042B23F8022B9942F9D183
:103E500001205DF8044B7047022A11D0042A00F0BB
:103E60009080012A3CD00144034650F8042B03F80B
:103E7000012B9942F9D1EBE700205DF8044B704724
:103E800000F1100252F8103C01294FEA8313DBB213
:103E900023D052F80C4C240104F03004022943EAE8
:103EA00004031AD052F8084CA40004F00C040329AF
:103EB00043EA040311D052F8044C04F003042343F2
:103EC000043900F8013B02F11002C1D052F8103C55
:103ED00001294FEA8313DBB2DBD103700120B8E77D
:103EE00000F1200252F8203C01294FEAC313DBB253
:103EF000F3D052F81C4CA40104F04004022943EA18
:103F00000403EAD052F8184C640104F02004032999
:103F100043EA0403E1D052F8144C240104F01004E5
:103F2000042943EA0403D8D052F8104CE40004F00A
:103F30000804052943EA0403CFD052F80C4CA4002E
:103F400004F00404062943EA0403C6D052F8084CDE
:103F5000640004F00204073943EA040302F120027A
:103F6000BBD052F8244C04F00104234300F8013B79
:103F700052F8203C01294FEAC313DBB2B9D10370D8
:103F8000ACE700F1080454F8083C01294FEA031398
:103F9000DBB212D054F8042C02F00F0213430239A2
:103FA00000F8013B04F108043FF452AF54F8083C18
:103FB00001294FEA0313DBB2ECD103705DF8044B27
:103FC00008467047082A2DE9F0410C461F6805464F
:103FD0000CDD102A21DC1E69002E00F091802246A3
:103FE00029460223B0470120BDE8F081013A072AA3
:103FF00010D8DFE802F004510F770F0F0F9A00F18D
:10400000200858F8200CB847012C4FEAC010C6B25F
:1040100006D12E700120BDE8F0810020BDE8F081BE
:1040200058F81C0CB847022C46EA8010C6B2F0D0F3
:1040300058F8180CB847032C46EA4010C6B2E8D02E
:1040400058F8140CB847042C46EA0010C6B2E0D069
:1040500058F8100CB847052C46EAC000C6B2D8D0B4
:1040600058F80C0CB847062C46EA8000C6B2D0D0EF
:1040700058F8080CB847072C46EA4000C6B2C8D02A
:1040800058F8040CB847083C40EA060005F8010B54
:1040900008F12008B5D1BDE700F1100858F8100C60
:1040A000B847012C4FEA8010C6B2B2D058F80C0CB9
:1040B000B847022C46EA0010C6B2AAD058F8080C3D
:1040C000B847032C46EA8000C6B2A2D058F8040CC8
:1040D000B847043C40EA060005F8010B08F1100857
:1040E000DCD197E700F1080858F8080CB847012C14
:1040F0004FEA0010C6B20CD12E702046BDE8F08108
:10410000861E55F8040BB847013C26F8020FF8D17B
:1041100080E758F8040CB847023C40EA060005F86E
:10412000010B08F10808DFD174E71E693EB128468B
:10413000224601232946B0470120BDE8F0816E1ECA
:1041400055F8040BB847013C06F8010FF8D161E7B8
:1041500030B51A4DEB6F85B00BB105B030BD184BC3
:104160000FCB6C4607C404A924F8023B1B0C237038
:1041700011F8102D0123EB6705F1800404F8012BE1
:1041800011F8012F002AF9D1FDF7C4FA234610F8DF
:10419000012B194603F8012B0278002AF7D14A7047
:1041A0000BF0D0FB0EF02CFA064B0748C5F8943004
:1041B00005B0BDE8304000F015BC00BF640400202D
:1041C0003C8B010871D10008F8040020F0B52A4B9F
:1041D0001B6883B004460D467BB1002003F068FAEB
:1041E00048B16E4632462946204604F013FE03F0DD
:1041F0001DF90028F6D103B0F0BD106851681F4FBB
:104200006B4603C33B68BDF80000B3F84CE0B3F85D
:104210005060BDF80410BDF80220BDF806307044AF
:10422000324433447144ADF8000068466E46ADF840
:104230000410ADF80220ADF8063003F039FA50B999
:104240003B68598C9A8CDC6C186D091B121A5984C6
:104250009A8403B0F0BD3B68BDF80010BDF80220A1
:1042600059849A8429463246204604F0D3FD03F04F
:10427000DDF80028EFD1E3E720080020BC00002093
:104280002DE9F04F964C8FB01D462469199B05907F
:104290000026079193461E60002C00F0F080904BA2
:1042A000DF681C462FB98F4B1F68E760002F00F0B6
:1042B000F0808B4B8A4E1B680293002B00F0FF802E
:1042C000874B874C5B680393002B00F0EA80864A9B
:1042D000864B1268507C53F8203008931B690D936D
:1042E000FDF7BEF9804B04901B68587CFDF73EFA41
:1042F0007F4B0B90AF42A8BF2F46984200F0CE8074
:104300007C4BC31A18BF01230A93059B3B440C93B3
:104310000026013B09933446BA465F46189B57F87E
:10432000040B98474FEA1068B8F1FF0F814647D059
:10433000002C2BD16C4B059A1B68B3F908309519EA
:10434000AB4259DD5A1B069214461D46029B079943
:10435000099A344403EB8404089B019300940B46B0
:104360002846FEF7EBFD049B172B7EDD0A9B002BF6
:1043700044D00C9B06965D1B2E460B9D2068A847DB
:10438000013E44F8040BF9D1069E0124544BDD692B
:10439000002D38D15FFA88F2B8F1000F1AD1029BD4
:1043A000039A53F8263042F82630BAF1010A06F192
:1043B0000106BB46B1D1039C20460FB0BDE8F08F8B
:1043C000199B039A1B6842F82600199A43F00103CF
:1043D0001360EAE70299484B51F826101B6849F030
:1043E0007F409847199B039A1B6842F82600199A48
:1043F00043F001031360D8E70694A7E7384BDD6963
:104400000124002DC6D0029BB60033441C46039BFA
:104410001E443246214653465846A8475746ABF1FC
:10442000040207E023683360013F04F1040406F14D
:1044300004060FD052F8043F13F07F4FF2D02168EA
:1044400011F07F4F08BF3360013F04F1040406F10F
:104450000406EFD1199B039C1B68199A43F00103D2
:10446000204613600FB0BDE8F08F1A46069B204629
:10447000C3EB0A010D9B00F043F8012486E71848BE
:104480001E4B174A40F8143F0123136100F0AAFAAB
:1044900005E700F04DFE0746E0600AE700230A93B7
:1044A00033E7E0688000FCF795F90390606000282E
:1044B0007FF40DAF002420460FB0BDE8F08FB800A8
:1044C000FCF788F9306008B10290F9E67468002CB6
:1044D000F0D1F0688000FCF77DF970606CE700BFF8
:1044E00090050020FC070020BC00002010080020E0
:1044F0006154000859540008C400002015D2000877
:1045000000292ADD082A2DE9F04704465E6803DD0C
:10451000102A0CDDBDE8F087531E072B05D8DFE815
:1045200003F02A53047C0404041DBDE8F0875D6990
:1045300035B10A46AC4621460223BDE8F047604744
:1045400049000C446518671A34F8020DB047BC42A4
:1045500045F8040DF8D1BDE8F087704765186F1A6B
:1045600004EB810415F8010DB047BD4244F8040D79
:10457000F8D1BDE8F0874F1EFB1001F1804107F034
:10458000070A4FF0800801395A1E48FA0AF814F851
:10459000039004EB81055FFA88F81444CAF107031D
:1045A00008EA09001841B04745F80409BAF1000FBC
:1045B0005FD194F800904FF00108013C4FF0070ADA
:1045C000002FB2D0013FE9E74F1E07F00309BB10EF
:1045D00001F180414FEA4900C025013905415A1EC9
:1045E00014F8038004EB810AEDB2144405EA0803D1
:1045F000C0F1060043FA00F0B0474AF80409B9F1E7
:10460000000F44D1032594F80080A946013C002FF7
:104610008BD0013F4FEA4900E8E74F1E07F0010841
:104620007A1001F180414FEA8800F02301390341FB
:1046300002F1FF3EA55C04EB81095FFA83FA744442
:104640000AEA0503C0F1040043FA00F0B04749F854
:104650000409B8F1000F13D125784FF00F0A013C7F
:104660004FF00108002F3FF460AF013F4FEA880090
:10467000E6E74FEA48085FFA88F80AF1FF3A9FE751
:104680004FEA0A135FFA83FA4FF00008EAE7AD0039
:10469000EDB209F1FF39BAE770B584B004AB1D4A39
:1046A00043F8101D0190194613689847019058B3BC
:1046B000194B1B68DB695B692BB11B681BB1009947
:1046C000984704B070BD009B013B002B0093A8BF2E
:1046D00000241BDB01A8FFF70FFA0546FCF7D2FF09
:1046E000009B013B002B04440093F3DA04A900264D
:1046F00041F8046D2846FCF7CDFF039B9842B8BFF4
:104700001E1A301904B070BD04B070BD00252C46CF
:10471000ECE700BFD4000020BC00002030B583B01F
:10472000019000B3114B1B68DB695B690D4623B137
:104730005B6813B1984703B030BD002DD8BF00208F
:10474000F9DD002404E00A2807D00134A54207D08F
:1047500001A8FFF7D1F90028F5D1204603B030BDFC
:10476000284603B030BD03B030BD00BFBC00002000
:10477000B1F90030B0F900209A42B8BF0380B0F917
:104780000220B1F902309A42B8BF4380B0F9042048
:10479000B1F904309A42C8BF8380B0F90620B1F95C
:1047A00006309A42C8BFC380704700BFF0B5B2F967
:1047B00000C0B1F90050B1F90240B2F90230B2F9CB
:1047C00004E0B2F90670B1F90420B1F90660AC4515
:1047D0006146B8BF2946A342B8BF23467245A8BF69
:1047E0007246B7423C46A8BF34469142018043809E
:1047F0008280C48004DCA342CCBF00200120F0BD35
:104800000020F0BD2DE9F041394B1B685D7C012D86
:1048100082B003DD012002B0BDE8F081354E73683F
:10482000044613B1014628469847012C27D0022C94
:104830000FD0002CEED1AC003719DFF8B880BB6880
:10484000012B3AD001202644002B18BF013BB36056
:10485000E1E72846FCF7E8FC01900028DAD0C368BD
:104860000D215B6A01A8984704460028D2D033681E
:1048700003B1984702210198A0470020CBE706EB3F
:104880008506B7681FB1781CB0602046C3E728468C
:10489000FCF7CAFC01900028BCD0C3680D215B6AFC
:1048A00001A8984703460028B4D0214601989847AC
:1048B000B36801333846B360ADE72846FCF7B4FC73
:1048C000019088B1C3680D215B6A01A8984705462D
:1048D00050B1D8F8003003B1984700210198A8479B
:1048E000331900209B68AEE7BB680120ABE700BF2F
:1048F000BC000020C8060020F0B40B0E4FEA106484
:10490000124B02FB04F208BF20F07F41A3FB0232EE
:10491000D20900F0FF160D0AC2F1FF0705F0FF15DE
:1049200001F0FF13C0F3072402FB06F107FB05F0BB
:1049300044F0807407FB031102FB0400090A00F035
:10494000FF2001F0FF110843F0BC70478180808098
:104950002DE9F04F87B09246139A109B9DF8509026
:1049600001900291002A35D0129ADFF870B0DFF87A
:104970007080920002EB830304930023059203935B
:10498000129C029E019D574655F8040BDBF800303F
:1049900056F8041B020E09FB02F2A8FB02E2C2F366
:1049A000C71240F07F409847013C40F07F4047F8F5
:1049B000040BE9D1019A0599039B10460844029A19
:1049C00001908A4404990A440292139A01339A424C
:1049D0000393D5D107B0BDE8F08F00BFC40000201D
:1049E0008180808080B483B000AF7860064B1A6805
:1049F0007B685A60044A7B68136000BF0C37BD4671
:104A00005DF8047B704700BFD8040020F8B5064667
:104A10004AB18407C9B208D001E0830705D0013A42
:104A200000F8011BF9D13046F8BD97083B4657B353
:104A300001EB0124032F02F0030204EB044416D916
:104A400000F110033D46043D032D43F8104C43F89C
:104A50000C4C43F8084C43F8044C03F11003F2DC0F
:104A6000043FBB085D1C00EB0510A7EB830343B1BB
:104A7000012B046003D0022B446018BF846000EB5C
:104A80008300002ACFD0FBF708FC3046F8BD00BFFA
:104A900008B50B0E03D1030EFF2B0FD04BB10C4BFF
:104AA00002EB0212D2B21B6898470A4B5A681043B5
:104AB00008BD084B5A6841EA020008BD054B5B6817
:104AC00020F07F4002EB0212184340EA026008BD6A
:104AD000C40000202C010020024B5A685860104688
:104AE000704700BF2C010020044A054B1268527C1D
:104AF00053F822301B691B68184700BFBC00002018
:104B000010080020C0F30722C0F307439A4200B503
:104B1000C0B21FD0144900EB80007F3003EB830349
:104B200002EB8202A1FB00E07F337F32A1FB03E3B3
:104B3000C009A1FB021200EBC000D209DB0903EBA4
:104B4000800302EB420003EB40006B2888BF283053
:104B50005DF804FB9042DDD1044B0830A3FB00302C
:104B6000000978305DF804FB81808080F1F0F0F07E
:104B70002DE9F04FB64C91B0D4F800E01B9D1D9E7E
:104B80001E9F1F9CDDF868A00D95DDF870C00E9685
:104B9000079708940F9005920C93BEF1000F06D072
:104BA000DEF80040A44611B0BDE8F04F60474AEA85
:104BB0000503012B894600F09280CCF10803029393
:104BC0000C9B002B40F38880A24BCDF828E018689E
:104BD0000491F046E1460D9A049953181A460B9336
:104BE000B0F90A30013A9342099268DCB0F90E300C
:104BF0008B4264DB059B002B61DD0F9B079F0697B3
:104C00000026354603EB0A044CE0029BC9EB06067E
:104C100048FA03F313F0FF0308FA09F85FFA88F87B
:104C200002D1027C920738D4D0F83CE0DEF80020B4
:104C30000392089A0AB152F82330B0F908B0B0F9DB
:104C40000CC0CEF80030621E5945B8BF59466245C7
:104C50001346A8BF63468B421CDBB0F90A20049FB1
:104C6000B0F90EC0BA42B8BF3A46099FBC45A8BFCA
:104C7000BC4662450EDC407C774F57F82000D0F8E8
:104C80000CE0CDF800C0DEF810B0D847714B1868C2
:104C9000D0F83CE0039BCEF80030059B0135AB42D9
:104CA00054440CD0CAEB0401002EAED1069A029EE9
:104CB00092F800801346013306933346A8E7079A1B
:104CC0000E990A9B0A4407920B9A04920C9A01339C
:104CD0009A420A937FF47FAF11B0BDE8F08F5D4B2D
:104CE0001968B1F90A20C9EB0203002B40F3C28016
:104CF0000C98C41A002CEFDD06FB037307930C9B82
:104D0000B1F90E004B44013B1B1A002B02DDE41AE3
:104D1000002CE1DD0F98059D4319B1F90C00013B12
:104D20001B1A002B01DDEB1A0593B1F908000F9D4A
:104D3000854216DB0023059E002ECDDD487C4649CA
:104D400051F820000899C5681E93079B1D930E9B80
:104D50001F911C93CDF86CC01A9433460F996C6860
:104D600020E7059E431BF61A0CF1FF3505961F2D13
:104D7000E1D801A656F825F05D4E0008394E00082E
:104D8000374D0008214E0008374D0008374D000808
:104D9000374D0008154E0008374D0008374D000804
:104DA000374D0008374D0008374D0008374D0008D3
:104DB000374D0008074E0008374D0008374D0008F2
:104DC000374D0008374D0008374D0008374D0008B3
:104DD000374D0008F94D0008374D0008374D0008E1
:104DE000374D0008374D0008374D0008374D000893
:104DF000374D0008F94D0008079D0F9005EB830320
:104E00000793002397E7079D0F9005EB4303079354
:104E1000002390E7079D0F901D44079500238AE724
:104E2000079D05EB630507950F9D23F001000544E1
:104E30000F9503F001037EE7079D05EBA30507959A
:104E40000F9D23F0030005440F9503F0030372E761
:104E500020080020BC00002010080020079D05EB62
:104E6000E30507950F9D23F0070005440F9503F018
:104E7000070360E70C9C4A46234641E7124B30B4D7
:104E80001C68B4F90A308B420FDCB4F90E30994239
:104E90000BDCB4F90850B4F90C30A842B8BF28466E
:104EA0009A42A8BF1A46904201DD30BC7047074BBA
:104EB000647C53F82440E568AD681346AC460A4666
:104EC0000146204630BC6047BC000020100800208E
:104ED000184B1B68B3F90A208A421DDCB3F90E2077
:104EE000914219DCB3F90820824215DCB3F90C2099
:104EF000904211DC30B41A7CD2070ED40E4A5C7C8E
:104F0000DB6B52F824401B68E568AD690A46AC4685
:104F10000146204630BC604770475A7C064B53F828
:104F20002230DC68E4690A4601461846234630BC54
:104F3000184700BFBC0000201008002070B5154CB9
:104F40002468B4F90860B4F90C50B042B8BF3046D8
:104F5000AA42A8BF2A46824282B00BDBB4F90A609B
:104F6000B4F90E50B142B8BF3146AB42A8BF2B4690
:104F7000994201DD02B070BD657C074C54F82540B4
:104F8000E568009313460A46014620462C69A0476F
:104F900002B070BDBC00002010080020012801DD17
:104FA0000020704710B5FCF73FF928B1C36808210D
:104FB0009B6ABDE810401847002010BD024B1B68DB
:104FC0009B6B1868704700BFBC000020024B1B6839
:104FD000DB6B1868704700BFBC000020034B53F820
:104FE0002020D26803EB8000536A18471008002085
:104FF000012801DD0020704710B5FCF715F928B134
:10500000C3680C219B6ABDE810401847002010BD02
:10501000012801DD0020704710B5FCF705F928B123
:10502000C3680D219B6ABDE810401847002010BDE1
:10503000094B1B68587C012801DD0020704710B522
:10504000FCF7F2F828B1C36809219B6ABDE810405B
:105050001847002010BD00BFBC000020012801DD62
:105060000020704710B5FCF7DFF828B1C3680921AC
:105070009B6ABDE810401847002010BD10B5002005
:10508000FCF7D2F8041C4FF0010018BF0124FCF714
:10509000CBF800B10134204610BD00BF10B5064B5F
:1050A0001B68587CFCF7C0F828B1C3680221DB6A92
:1050B000BDE81040184710BDBC00002030B583B0DB
:1050C0000C461546FCF7B0F8019070B1C368042196
:1050D0005B6A0DEB01009847034630B101982A4600
:1050E00021469847002003B030BD012003B030BDF9
:1050F000012801DD0020704710B5FCF795F828B1B4
:10510000C3680E219B6ABDE810401847002010BDFF
:10511000012801DD0020704710B5FCF785F828B1A3
:10512000C36803219B6ABDE810401847002010BDEA
:1051300038B501252846FCF777F80024032178B11B
:10514000C3689B6A98478442B8BF04460DB920469D
:1051500038BD00252846FCF767F803210028EFD169
:10516000F1E700BF012801DD0020704710B5FCF712
:105170005BF828B1C36804219B6ABDE8104018475A
:10518000002010BD094B1B68587C012801DD002060
:10519000704710B5FCF748F828B1C36801219B6A35
:1051A000BDE810401847002010BD00BFBC00002023
:1051B000014B1868704700BFBC050020012801DDC5
:1051C0000020704710B5FCF72FF828B1C368012103
:1051D0009B6ABDE810401847002010BD38B5012576
:1051E0002846FCF721F80024012178B1C3689B6AA6
:1051F00098478442B8BF04460DB9204638BD002503
:105200002846FCF711F801210028EFD1F1E700BF93
:10521000094B1B68587C012801DD0020704710B540
:10522000FCF702F828B1C36802219B6ABDE8104070
:105230001847002010BD00BFBC000020014B58687B
:10524000704700BFBC050020012801DD0020704729
:1052500010B5FBF7E9FF28B1C36802219B6ABDE8DE
:1052600010401847002010BD38B501252846FBF72F
:10527000DBFF0024022178B1C3689B6A984784420F
:10528000B8BF04460DB9204638BD00252846FBF7B7
:10529000CBFF02210028EFD1F1E700BF2DE9F84351
:1052A00060B3856865B3DFF86480D8F8006006B342
:1052B0000768B7F5807F1FDC124B1B689F42A8BFB1
:1052C0001F46002F81460DDD043D002401E0D8F883
:1052D000006055F8040FFFF707FC46F8240001347E
:1052E000BC42F4D1084B1B680BB148469847D8F82C
:1052F00000603046BDE8F8830026FAE70646F8E786
:105300002E46F6E7D0000020B00500203C08002023
:105310002DE9F84360B3856865B3DFF86480D8F899
:10532000006006B30768B7F5807F1FDC124B1B686F
:105330009F42A8BF1F46002F81460DDD043D00247B
:1053400001E0D8F8006055F8040FFFF7CDFB46F8F0
:1053500024000134BC42F4D1084B1B680BB1484611
:105360009847D8F800603046BDE8F8830026FAE791
:105370000646F8E72E46F6E7D0000020B0050020EC
:105380003C080020044A054B1268527C53F8223036
:105390001B695B68184700BFBC0000201008002094
:1053A000A0F178030F2B10B52AD96B2802D99328C6
:1053B00032D9283819491A4BA1FB00429208A1FBA7
:1053C0000241A3FB00E302EB4204890801EB410127
:1053D000A0EB4400DB08A2EB410200EB400003EB32
:1053E000430303EB031302EB420200EB001002EB5A
:1053F000021203EB004000EB022040F07F4010BDA2
:1054000000EB001300EB031000EB003000F17840DC
:10541000083040F07F4010BD002010BDABAAAAAA02
:10542000398EE338C0F3C423094910B4CA5C094C6F
:10543000C0F3451300F01F00E35C085C5DF8044B0B
:10544000120402EB0323184440F07F40704700BF72
:1054500080B7010840B7010840F07F40704700BFA7
:10546000704700BF38B50B4D2C680CB1002038BD1B
:10547000094B18688000FBF7ADF9286038B1074880
:10548000074B40F8043FFFF7ADFA204638BD012036
:1054900038BD00BF3C080020D0000020B00500202F
:1054A0003DD200082DE9F84FFFF7E8FDB0F1000903
:1054B0002FDD194FDFF868B000252846FBF7B4FE52
:1054C00020B33B68284693F811805D74FFF766FDB2
:1054D000082818DC5BF82530104A1B69934212D06B
:1054E0002846FFF7BBFD061E0DDD00245FFA84FA97
:1054F0005046FFF747FF013402465146284600F068
:105500009FF9A642F2D13B6883F811800135A94585
:10551000D3D1BDE8F88F00BFBC000020449F010834
:10552000100800202DE9F04F85B081460F9D0E9C9C
:10553000ED68D5F824806F6916460D469A46B8F195
:10554000000F0FD001210FA8C047804650B10F981F
:105550000194CDF800A033462A464946C04705B01D
:10556000BDE8F08F6B4B1B68587CFCF779F8082876
:1055700034DC01235545F2DC022B0AD0042B1DD06C
:10558000012B30D00135AA45F6DAE8E7013555455B
:10559000E5DCB145D8BFC846F8DC41462A460F983D
:1055A000B84708F10108464524F8020BF5DA013541
:1055B000AA45EEDAD3E70135AA45D0DBB145D8BF1D
:1055C000C84600F3A18041462A460F98B84708F123
:1055D0000108464544F8040BF5DAECE71128B4BF9E
:1055E00002230423C6E7431E03934FF00008CDF8BF
:1055F00008A0039B072B00F28180DFE803F03358FB
:10560000171704040404B145D8BFCB4609DC59463A
:105610002A460F98B8470BF1010B5E4504F8010BC1
:10562000F5DA029B0135AB42E3DA98E7B145F8DCE5
:10563000CA464FF00F0B51462A460F98B8474FEA1B
:1056400088032178C3F104020BFA03F390400B4066
:105650000AF1010A034356452370444488F00108C7
:10566000E9DADEE7DDF808B0B145DADCCA465146D2
:105670002A460F98B84721784FF67F72C8F1070382
:1056800042FA08F298400AF1010A01EA020308F11D
:105690000102184322F007085645207042FA08F824
:1056A00004EBE204E3DA0135AB45DDDA57E74FF608
:1056B0003F7BB145B5DCCA4651462A460F98B847EC
:1056C0004FEA480394F800E0C3F106024BFA03F3F3
:1056D00008F1010190400EEA03030AF1010A0343B5
:1056E00021F003085645237041FA08F804EBA104A1
:1056F000E2DA029B0135AB42DBDA30E7029B01358F
:105700009D427FF776AF2AE7013555457FF756AFC3
:1057100025E700BFBC00002010B50E4C0E4B2268E0
:10572000517C53F8210038B1C36813B11B68042BB6
:105730000BD000680028F7D1002102F108031166A0
:105740005361BDE8104000F035B8FBF74BFD22680F
:10575000F2E700BFBC00002010080020014B1B68CE
:105760005B681847CC000020044B1B681A7C52076A
:105770004CBFDB6B9B6B1860704700BFBC00002008
:1057800030B50A4C0A4B2268527C53F82230DA6852
:1057900083B0054669461846126B904720686A46F2
:1057A00029460830FFF702F803B030BDBC000020E6
:1057B00010080020044A054B11684A7C53F8220067
:1057C000C36808311B6B1847BC000020100800207C
:1057D000014B1B681B681847CC000020044B1B685A
:1057E0001A7C52074CBF9B6BDB6B1860704700BF85
:1057F000BC00002030B583B00C461546FBF714FD05
:10580000019068B1C36816215B6A01A898470346F6
:1058100030B101982A4621469847002003B030BD98
:10582000012003B030BD00BF014B83E80300704787
:10583000BC050020014B1B689B681847CC0000206A
:1058400030B583B00C461546FBF7EEFC019068B10D
:10585000C36810215B6A01A89847034630B10198DC
:105860002A4621469847002003B030BD012003B0EE
:1058700030BD00BF30B583B00C461546FBF7D4FCF5
:10588000019068B1C36803215B6A01A89847034689
:1058900030B101982A4621469847002003B030BD18
:1058A000012003B030BD00BF30B583B00C461546B3
:1058B000FBF7BAFC019068B1C3680B215B6A01A8D1
:1058C0009847034630B101982A4621469847002060
:1058D00003B030BD012003B030BD00BF10B582B0B1
:1058E0000C46FBF7A1FC019060B1C36809215B6A1B
:1058F00001A89847034628B10198214698470020FF
:1059000002B010BD012002B010BD00BF30B583B0A1
:105910000C461546FBF788FC019068B1C3680A2164
:105920005B6A01A89847034630B101982A46214690
:105930009847002003B030BD012003B030BD00BF48
:1059400010B582B00C46FBF76FFC019060B1C368E4
:1059500006215B6A01A89847034628B101982146B1
:105960009847002002B010BD012002B010BD00BF5A
:1059700010B5074C2368186BFFF7B6F8FFF72EFF3A
:105980002368586BFFF7B0F8BDE81040FFF7ECBE96
:10599000BC0000202DE9F04F91B0824C1B9D0E956C
:1059A0002E461D9D0C9524681E9D06951F9D0895ED
:1059B000DDF868A0DDF870E0209D0F9005920D9352
:1059C0002CB12468A44611B0BDE8F04F60474AEA04
:1059D0000603012B894600F09180CEF10803029363
:1059E0000D9B002B40F387806F4B0A94186804913D
:1059F000A046F1460E9A049953181A460B93B0F933
:105A00000A30013A9342099268DCB0F90E308B42B9
:105A100064DB059B002B61DD0F9B069F079700262B
:105A2000354603EB0A044CE0029BC9EB060648FA34
:105A300003F313F0FF0308FA09F85FFA88F802D1BC
:105A4000027C920738D4D0F83CE0DEF800200392C4
:105A5000089A0AB152F82330B0F908B0B0F90CC076
:105A6000CEF80030621E5945B8BF5946624513460C
:105A7000A8BF63468B421CDBB0F90A20049FB0F933
:105A80000EC0BA42B8BF3A46099FBC45A8BFBC4643
:105A900062450EDC407C454F57F82000D0F80CE002
:105AA000CDF800C0DEF810B0D8473F4B1868D0F8EA
:105AB0003CE0039BCEF80030059B0135AB425444DB
:105AC0000CD0CAEB0401002EAED1079A029E92F8C8
:105AD00000801346013307933346A8E7069A0C99D2
