:020000040800F2
:1000000078060020C10100081D230008C11900085E
:1000100019230008CD020008192E00080000000076
:10002000000000000000000000000000BD2A0008E1
:100030007D030008000000004D230008F12A00089D
:100040001D2E0008DB010008DB010008DB010008B1
:10005000DB010008DB01000881030008DB01000868
:10006000DB010008DB010008DB010008DB01000800
:10007000DB010008DB010008DB010008DB010008F0
:10008000DB010008DB010008DB010008DB010008E0
:10009000DB010008DB010008DB010008DB010008D0
:1000A000DB010008DB010008DB010008DB010008C0
:1000B000DB010008DB010008DB010008DB010008B0
:1000C000DB010008DB010008DB010008DB010008A0
:1000D000DB010008FD2D0008DB010008DB01000842
:1000E000A9030008DB010008DB010008DB010008B0
:1000F000DB010008DB0100081D2C0008DB01000803
:10010000DB010008DB010008DB010008DB0100085F
:10011000DB010008DB0100080D2C0008DB010008F2
:10012000DB010008DB010008DB010008DB0100083F
:10013000DB010008DB010008DB010008DB0100082F
:10014000DB010008DB010008DB010008DB0100081F
:10015000DB010008DB010008DB010008DB0100080F
:10016000DB010008DB010008DB010008DB010008FF
:10017000DB010008DB010008DB01000800000000D3
:10018000DB010008DB010008DB010008DB010008DF
:10019000DB010008DB010008DB010008DB010008CF
:1001A000DB010008DB010008DB010008DFF80CD0F0
:1001B00000F07AF800480047512F00087806002028
:1001C0000648804706480047FEE7FEE7FEE7FEE7F1
:1001D000FEE7FEE7FEE7FEE7FEE7FEE7F12B00089D
:1001E000AD0100082DE9F05F0546002092469B46D0
:1001F00088460646814640241BE02846414647463D
:10020000224600F041F853465A46C01A914110D395
:1002100011461846224600F028F82D1A67EB01080F
:100220004F4622460120002100F01FF817EB00097D
:100230004E41201EA4F10104DFDC484631462A4627
:100240004346BDE8F09FD2B201E000F8012B491E01
:10025000FBD270470022F6E710B513460A46044663
:100260001946FFF7F0FF204610BD202A04DB203A94
:1002700000FA02F1002070479140C2F1200320FAF9
:1002800003F3194390407047202A04DB203A21FAF7
:1002900002F00021704721FA02F3D040C2F120029F
:1002A0009140084319467047064C074D06E0E06848
:1002B00040F0010394E8070098471034AC42F6D3AD
:1002C000FFF778FFCC4A0008EC4A0008FEE7000080
:1002D000B0B5D0E900CE049DDCF8444045EA0343C4
:1002E00004F040442343BEF5403FCCF84430CCF802
:1002F0003C201CBFCCF80C10B0BD806801F47F031B
:1003000001F47F4203285FFA81FE08D8DFE800F09D
:100310003302152321F07F41CCF83810B0BD4FF4E3
:10032000704000EA11406FF0FF0101EA1331F02341
:1003300003EA122240EA1E101BE04FF4784000EA64
:1003400013206FF01F0101EA521140EADE00014460
:10035000CCF83810B0BD4FF4004000EA11404FF423
:10036000F84101EA53216FF01F0303EA921240EAB9
:10037000DE0008448118CCF83810B0BD704700008A
:1003800043F61440C4F201000168C90708BF704772
:1003900041F61441C4F202010A6882F480520A60F4
:1003A000012101607047000043F61440C4F20100CF
:1003B0000168890458BF704741F61441C4F2020134
:1003C0000A6882F400620A604FF4005101607047CD
:1003D0002DE9F0410B680268012B1FD1D1E90734E8
:1003E00022F4F842D1E901E7D1E90365D1E9058CAE
:1003F000496A1A4322431143426847F6FF739A43FE
:1004000042EA0E023A4332432A4342EA080242EAEF
:100410000C02016042600020BDE8F08147F6FF73E6
:1004200022EA030CD1E90132D1E903E443EA0C03E7
:1004300001F114081A4398E8E00142EA0E0222434F
:100440002A433243496A3A4342EA080211430160AF
:100450000020BDE8F08100000246406940EA410109
:100460000020516170470000F0B581B00025009573
:10047000144691E88C00C9681A436FF01F0303EB20
:1004800047131A4342EA412100910099064601614F
:1004900000F08CFAB169890612D50746651C02E0A6
:1004A000B06980060BD5002DFAD034B100F07EFA89
:1004B000C01BA042F4D9032502E0032500E000257B
:1004C000284601B0F0BD00002DE9F0418368012A03
:1004D00037D140F6FF72CFF60F721A40CB684FF259
:1004E0000006CFF6FF764F6906EB03330026CFF602
:1004F000F07606EB07571A43C36842EA070CD1E9C6
:1005000000768D686FF00F0203F0704302EB061265
:100510006FF0FF06013F0C6906EB052600253B4303
:10052000CFF6FF7589691A4305EB0445324301395B
:100530002A4342EA0161C0F808C0C1600020BDE85A
:10054000F08103F0704CD1E90032D1E902E401F10D
:1005500010084FF20001013B6FF00F07CFF6FF715B
:1005600098E8600107EB02126FF0FF0701EB04311E
:10057000002443EA0C0307EB0E27CFF6FF741A435F
:1005800004EB054500243A43CFF6F074114304EB25
:1005900006562943A8F10104314341EA0461816010
:1005A0000020BDE8F0810000B0B590F83820012AA5
:1005B0004FF0020241D0012380F8383080F8392012
:1005C00000EB0112D2E9073E556A02F1180C43EA2A
:1005D0000E42093B2C06022B38BF05F07F44002950
:1005E000016842EA040E11D0CA694FF6F074C0F2F5
:1005F000FC04224042EA0E02CA61DCF80020012B12
:100600000A619CBF25F07F420A6210E04A6A4FF6F9
:10061000F074C0F2FC04224042EA0E024A62DCF8A6
:100620000020012B8A619CBF25F07F428A62012154
:10063000002280F8391080F838201046B0BD000044
:10064000002804BF0120704710B5044690F8390017
:1006500028B9002084F83800204600F01DF8022058
:1006600084F8390094E80710036823F440331943F1
:100670000160416B21F0070111434163016C43F6B6
:10068000FF72914341EA0C01016400200121E06303
:1006900084F8391010BD000070470000F0B581B03B
:1006A00004460020009020680D460068C00734D042
:1006B00000F07CF921684A6892072ED40646486803
:1006C0000090009810F0210F12D00098800603D5FA
:1006D000E06B40F00200E0630098C00703D0E06BDD
:1006E00040F00100E06321208860012004215AE0ED
:1006F0006F1C00BF37B100F059F9002D5AD0801B94
:10070000A84257D821684868800706D448680090F6
:10071000009810F0210FEDD0D7E72068C169406A3A
:10072000084380063AD500F041F921684A68D206AC
:1007300034D4064648680090009810F0290F19D06C
:100740000098000703D5E06B40F00400E0630098D8
:10075000800603D5E06B40F00200E0630098C0071C
:1007600003D0E06B40F00100E063292088600120A5
:10077000042118E06F1C00BF2FB100F017F905B37A
:10078000801BA8421DD821684868C00606D4486866
:100790000090009810F0290FEED0D1E720681221C8
:1007A00081600020012184F83910002184F838107C
:1007B00001B0F0BDE06B032140F02000E0630320B6
:1007C000F1E7E06B032140F02000E0630320EAE75B
:1007D000B0B582B0054690F8380001284FF002000D
:1007E00011D0DDF818C0012485F8384085F83900AB
:1007F0002846CDF800C0FFF76BFD2868016841F07E
:1008000001010160002002B0B0BD00002DE9F04FF1
:1008100083B000F13E4202F1FF724FEAB22242F28F
:1008200000470192C4F202070A22012600254FF078
:1008300000084FF00009B84208BF0922009209E001
:1008400009F1010908F10408B9F1100F05F10205D9
:1008500000F0A3800C6806FA09FB14EA0B0CEFD039
:10086000D1F804A0BAF1120F17D806FA0AF414F05E
:10087000061F12D084680322CF6802FA05FE24EA1C
:100880000E04AF40274387604768CAF3001427EA85
:100890000B0704FA09F4274347600322C76802FAEA
:1008A00005F48A68A743AA403A434AF010076FEA62
:1008B000040E122FC26010D16FF0030202EA590237
:1008C0000244176A08F01C060F230C69B34027EA9C
:1008D0000303B44001262343136202684B6802EA13
:1008E0000E0203F00307AF403A43DB000260A7D5D6
:1008F000002243F644030292C4F202031A6843F64C
:10090000004442F480421A601A68C4F2010402F4FE
:1009100080420292029A29F003024FF6084A2244CA
:10092000CFF6FF7A52F80A3008F00C070F26BE40C7
:1009300023EA060E019B009E092B38BF1E4606FACD
:1009400007F747EA0E0342F80A3022684B6842EA8A
:100950000C07DE0358BF22EA0C07276062689E037B
:1009600042EA0C0758BF22EA0C076760A268DE0261
:1009700042EA0C0758BF22EA0C07A76043F60C476F
:10098000C4F201073A689B024FF0010642EA0C03E9
:1009900058BF22EA0C033B6052E703B0BDE8F08F7A
:1009A000002A08BF090481617047000040F27020EE
:1009B000C2F200000068704740F2100040F270215F
:1009C000C2F20000C2F2000100780A681044086018
:1009D00070470000B0B540F21002C2F2000240F2CF
:1009E0000C011278C2F200014FF47A730968B3FB6C
:1009F000F2F20446B1FBF2F1084600F0CDFD0F2CF7
:100A00004FF001050CD858B94FF0FF3021460022B5
:100A1000002500F0DBF840F21400C2F20000046090
:100A20002846B0BD2DE9F041044690F8A000012809
:100A30004FF0020008BFBDE8F0814FF0010884F8D4
:100A4000A08084F8A100342002FB0040D1E900CE50
:100A5000D1E90267D1E90453C0E91253C0E9106734
:100A6000C0E90ECED1E906CED1E90865D1E90A7315
:100A7000C0E91873C0E91665C0E914CE0B6B836634
:100A8000204601F0ADFB2068C0F82480002084F8E7
:100A9000A18084F8A000BDE8F0810000002804BF18
:100AA0000120704710B5044690F8A10028B9002035
:100AB00084F8A000204600F063F8022084F8A1002A
:100AC000D4E9000CD4E90223816921F070418161ED
:100AD00042EA0C0122691943836911431943816178
:100AE00081684FF6000CCFF2000C01EA0C01816026
:100AF000D4E90513826843EA014111438160C1686A
:100B000001EA0C01C160D4E90712C36842EA01415D
:100B10001943C160016901EA0C010161D4E90912BC
:100B2000036942EA014119430161416901EA0C018B
:100B30004161D4E90B12436942EA01411943416121
:100B400094F8351094F83620C36A120403F07F43FA
:100B5000C36242EA012194F83420C36A1144194364
:100B6000C162416B41F006014163816941F00101BD
:100B7000816100200121C4F8A40084F8A11010BDF7
:100B80007047000070B5044690F8A00001284FF0AF
:100B9000020008BF70BD342302FB0345012605F1A6
:100BA000380384F8A06084F8A100E964204619465F
:100BB00001F016FB20684662002084F8A16084F8EA
:100BC000A00070BD80B502F031F980BD70B514464B
:100BD0000D46064602F03AF92946224601F0A0FBEE
:100BE0000146304602F03AF970BD000070B582B09F
:100BF0000020019043F64000C4F202000168402644
:100C000041F0805101600068C4F20E2600F080506F
:100C10000190019847F204050120C4F200053060FC
:100C2000FFF7C4FE044600BF2868C00306D4FFF7E0
:100C3000BDFE001BB0F57A7FF6D90EE00120706092
:100C4000FFF7B4FE044600BF2868800308D4FFF70E
:100C5000ADFE001BB0F57A7FF6D9032002B070BD5F
:100C6000002002B070BD00002020C4F20E2001213F
:100C700001607047F0B581B00446007843F6700615
:100C800010F0430FC4F2020634D06827C4F247279D
:100C900000203860FFF78AFE054600BF56F8700C4A
:100CA000000105D5FFF782FE401B0228F6D993E02C
:100CB0002068C10740F09380810700F199804006C9
:100CC00008D5E168D4E90102090641EA801040EA4A
:100CD0000270706101203860FFF768FE054600BFB2
:100CE00056F8700C000105D4FFF760FE401B022887
:100CF000F6D971E0207810F00C0F49D06827C4F2C3
:100D000047270020B860FFF751FE054656F8700CE3
:100D1000800005D5FFF74AFE401B0228F6D95BE0AC
:100D20002068410713D5B169D4E9042301F0E041FB
:100D300041EA821141EA0361256AB161F1696FF00C
:100D4000FF0221F4F85102EB05221143F161000783
:100D50000FD5B069216900F07060A26940EA811086
:100D600040EA0270636AB061F06920F440301843D1
:100D7000F0610120B860FFF719FE054656F8700CC7
:100D8000800005D4FFF712FE401B0228F6D923E0AD
:100D90002078800670D50020009056F8300C47F27D
:100DA000000740F0805046F8300C56F8300CC4F282
:100DB000000700F0805000900098386840F4807080
:100DC0003860FFF7F3FD05463868C00525D4FFF706
:100DD000EDFD401B0228F7D9032001B0F0BDD4E996
:100DE0000121090741EA8211716181077FF567AF2F
:100DF0007169626801F0E041E36841EA821141EA09
:100E00000361E5697161F1696A1E21F01F011143F7
:100E1000F16140063FF555AF5CE7306810F4407073
:100E200013D0A16A01F4407188420ED0306840F6B8
:100E30004061C4F24721012220F440700A60002280
:100E40000A6030603068C00727D1A06A56F8681C75
:100E50004FF6FF4300F4407221F4F811C0F6FF731F
:100E60000340B2F5407F08BF194346F8681C31685B
:100E70006FF31F30084330602078C00602D4002092
:100E800001B0F0BD94F82C0040F64061C4F2472157
:100E9000C1F8A003002001B0F0BDFFF787FD0546B3
:100EA00041F2883730688007CFD4FFF77FFD401BC1
:100EB000B8424FF00300F5D9EDE700002DE9F0430B
:100EC00081B043F60807C4F202070446386840F2CE
:100ED0003028C2F20008002CC8F800007DD0D7F8F6
:100EE000F803894600F00F00884207D287F8F8938C
:100EF000D7F8F80300F00F0048456ED1206881074D
:100F00001BD5400703D5386840F4E0503860386896
:100F1000C8F800002078000703D5386840F4604026
:100F200038603868C8F800003868A16820F0F00020
:100F3000084338603868C8F800002078C00744D1FA
:100F4000D7F8F80300F00F00484507D987F8F89361
:100F5000D7F8F80300F00F0048453ED1207840074D
:100F600008D53868E16820F4E050084338603868F4
:100F7000C8F800002078000709D53868216920F4F6
:100F8000604040EAC10038603868C8F8000000F0EE
:100F900079F8396842F6FC72C1F30311C0F6000219
:100FA000515CC84040F20C01C2F20001086040F2FE
:100FB0001400C2F2000039680068C8F80010FFF79A
:100FC00009FD002001B0BDE8F0836068811E0229A0
:100FD00007D257F8081C890109D4012001B0BDE8E7
:100FE000F08301281ED157F8081C8903F5D539680C
:100FF00021F0030108433860FFF7D8FC064641F2B0
:10100000883500BF3868616800F00C00B0EB810FD4
:1010100096D0FFF7CBFC801BA842F3D9032001B088
:10102000BDE8F08357F8081C8907D6D5DFE7000034
:1010300040F20C00C2F200000068704780B5FFF774
:10104000F7FF43F60801C4F20201096843F20C02FB
:10105000C1F38221C0F60002515CC84080BD00008F
:1010600080B5FFF7E5FF43F60801C4F20201096805
:1010700043F20C02C1F34231C0F60002515CC84099
:1010800080BD000010B543F60404C4F20204606899
:1010900000F00C0008280AD0042819BF42F20040D2
:1010A000C0F2F40047F64000C0F27D1010BD206889
:1010B00021682368490247F64001C0F27D1100F023
:1010C0003F02C3F388105CBF42F20041C0F2F4015A
:1010D000A1FB00010023FFF785F821680222C1F37C
:1010E000014102EB4101B0FBF1F010BD2DE9F041EF
:1010F00082B0002800F097800446007843F600068E
:10110000C007C4F2020641D0B06800F00C00042809
:1011100005D13068800339D56068B8BB83E0B0681A
:1011200000F00C00082802D170684002F1D4656814
:10113000B5F5803F06D03068B5F5A02F06D140F454
:1011400080203060306840F4803005E020F480304A
:101150003060306820F480203060FFF727FC002DDD
:10116000054610D03068800310D4FFF71FFC401BE9
:101170006428F7D91AE100BFFFF718FC401B642868
:101180004FF003004CD830688003F5D420788007F6
:101190001AD5B06810F00C0F09D0B06800F00C0040
:1011A000082840F084807068400200F18080306838
:1011B000800702D5E068012835D13068216920F028
:1011C000F80040EAC1003060207800072FD4207872
:1011D000400742D4A56915B3B06800F00C00082898
:1011E00040F09880012D1ED07068E16900F4800203
:1011F0008A4218D1216A00F03F028A4213D147F691
:10120000C071626A014091420DD1A16A00F440327E
:101210008A4208D1E16A00F07060884203D1002060
:1012200002B0BDE8F081012002B0BDE8F081606944
:10123000002840F20000C4F247205AD00121C0F833
:10124000801EFFF7B3FB0546706F8007BFD4FFF722
:10125000ADFB401B0228F7D9A8E0306C4FF0000826
:10126000C0000CD4CDF80480306C4FF0010840F081
:1012700080503064306C00F080500190019847F24B
:101280000007C4F200073868C00525D4386840F468
:1012900080703860FFF78AFB054600BF3868C005DC
:1012A0001AD4FFF783FB401B0228F7D97EE0E068E1
:1012B000002851D00020C4F2472001210160FFF72F
:1012C00075FB0546306880073FF577AFFFF76EFB8B
:1012D000401B0228F6D969E0A568012D05D0306FC2
:1012E000052D4DD140F004003067306F40F0010013
:1012F0004CE00021C0F8801EFFF758FB054600BFF8
:10130000706F80077FF563AFFFF750FB401B02282B
:10131000F6D94BE00027C4F2472700203866FFF7D4
:1013200045FB022D05460BD13068800156D5FFF7ED
:101330003DFB401B02284FF00300F5D970E700BFCA
:10134000306880017FF56BAFFFF730FB401B022850
:101350004FF00300F4D963E70020C4F247200021D6
:101360000160FFF723FB0546306880077FF52CAF4F
:10137000FFF71CFB401B02284FF00300F4D94FE796
:1013800020F001003067306F20F004003067FFF775
:101390000DFB002D054641F2883713D0306F8007D2
:1013A00013D4FFF703FB401BB842F7D9032002B068
:1013B000BDE8F081FFF7FAFA401BB8424FF0030096
:1013C0003FF62EAF306F8007F4D4B8F1000F3FF432
:1013D00001AF306C20F080503064FBE604F11C0556
:1013E0002FCD084340EA8210D9034FF6FF72914394
:1013F000A1F5803140EA056008437060012038663D
:10140000FFF7D4FA044600BF306880013FF507AF0C
:10141000FFF7CCFA001B02284FF00300F4D9FFE6D7
:10142000002804BF0120704710B50446407F20B952
:1014300000202077204600F043F8022060772068E3
:10144000CA21416253214162204600F0D1FF216848
:1014500010B1012004222FE088684FF6BF72CFF64A
:101460008F721040886004F1040E9EE80150D4E9A8
:10147000042310438A68184310438860C1F810E0C1
:10148000086940EA0C400861C86820F08000C86024
:101490008868800605D4204600F014F808B1216859
:1014A000D7E72168A0690A6C22F480220A640A6CDA
:1014B0001043086400200122FF234B62627710BDB5
:1014C00070470000B0B504460068C16821F0A00173
:1014D000C160FFF76BFA05462068C068800607D434
:1014E000FFF764FA401BB0F57A7FF5D90320B0BD51
:1014F0000020B0BD002804BF01207047B0B50446ED
:1015000090F82C000D4628B9002084F82D002046C4
:1015100000F012F8022084F82C002068211DFEF74C
:1015200057FFD4E900022946FEF7CEFF012084F8D8
:101530002C000020B0BD00007047000010B504462C
:1015400090F82C0002284FF0020008BF10BD84F86C
:101550002C002068FEF780FF012084F82C0000207A
:1015600010BD0000B0B5044690F82C0002284FF0E2
:10157000020008BFB0BD84F82C0020680D46FEF7BD
:1015800073FF2868012102284FF0000008BF0521E1
:1015900084F82C10B0BD000080B501F091FA80BD38
:1015A0007047000070470000B0B5007F012837D1B8
:1015B00040F25C14C2F200042046002100F0FEF864
:1015C00040F28C05C2F2000528602046042100F09C
:1015D000F5F8296840F29002C2F20002002910607A
:1015E00008BFB0BD64225043643000EE100A481CAE
:1015F00001EE100AB8EE400AB8EE411A80EE010A78
:101600009FED082A40F2840082EE011AC2F2000027
:1016100080ED000A40F28800C2F2000080ED001A5E
:10162000B0BD00BF0024744910B5044600680169CC
:10163000890744BFC1685FEA817138D420680169B5
:10164000490744BFC1685FEA41713CD42068016921
:10165000090744BFC1685FEA017141D4206801698C
:10166000C90644BFC1685FEAC16145D42068016909
:10167000C9071CBFC1685FEAC1714AD1206801690E
:10168000090644BFC1685FEA016149D42068016965
:10169000490644BFC1685FEA416148D420680169D6
:1016A000890644BFC1685FEA816147D410BD6FF00D
:1016B00002010161012121778069800745D0204620
:1016C000FFF772FF47E06FF004010161022121770B
:1016D000806910F4407F41D02046FFF765FF43E06A
:1016E0006FF00801016104212177C06980073ED0B5
:1016F0002046FFF759FF40E06FF01001016108211B
:101700002177C06910F4407F3AD02046FFF74CFFA4
:101710003CE06FF001010161204600F03FF8ADE7C9
:101720006FF0800101612046FFF73AFFAEE76FF0EE
:1017300040010161204600F05BF8AFE76FF0200147
:1017400001612046FFF72EFF10BD204600F022F871
:10175000204600F021F8002020776FE7204600F0B7
:1017600019F8204600F018F8002020776EE7204690
:1017700000F010F8204600F00FF8002020776DE709
:10178000204600F007F8204600F006F800202077F9
:101790006CE70000704700007047000040F29C11A9
:1017A000C2F20001884218BF704741F61440C4F2EB
:1017B0000200016881F48061016070474FEAB10165
:1017C000032984BF00207047DFE801F0020E060AFB
:1017D000006834300068704700683C30006870472B
:1017E0000068403000687047006838300068704713
:1017F00070470000002804BF0120704710B5044660
:1018000090F8390028B9002084F83800204600F00C
:1018100021F8242084F839002068C16821F400519F
:10182000C160204601F002FA2068016921F490416C
:101830000161416921F02A014161C16841F400510F
:10184000C16000202021E06384F8391084F83A1048
:1018500010BD0000B0B586B00020019043F6300006
:10186000C4F202000168002441F001010160006837
:10187000C4F2020400F00100019001984FF40070DE
:101880000190022002900120039007200590032080
:1018900001AD049020462946FEF7B8FF4FF4806062
:1018A000019020462946FEF7B1FF252000210122A4
:1018B000FFF78CF92520FFF785F906B0B0BD0000D1
:1018C0002DE9F041044690F8390020280DD10E464C
:1018D00000294FF0010052D01746002A08BFBDE88A
:1018E000F08194F83800012802D10220BDE8F0818F
:1018F000012084F838004FF0000821201D46C4F86C
:101900003C8084F83900FFF751F8A784E78484F815
:101910003880E18C804661B92046402142462B4602
:1019200001F03AFA38B30320BDE8F081E08C0028DA
:10193000F2D0E08C80210138E084A768204642463E
:101940002B4601F029FAB7F5805F0DD10028EAD1C6
:101950003088216922686FF35F200029506014BF2E
:1019600001360236E2E700BF0028DCD116F8010B91
:1019700021684860DAE7202084F839000020BDE8BB
:10198000F081000041F61840C4F202004FF080617F
:1019900001604FF0006101604FF4805101607047B9
:1019A00080B501684A68920508D58A68D20708BFE1
:1019B00080BD6FF001028A60FFF7E4FF80BD000088
:1019C000FEE70000F0B583B040F21801C2F200015A
:1019D0000C6840F29401C2F20001342204FB0211AF
:1019E0000646CD6D00F078FA074600F083FA03460C
:1019F00000200090204629463A46019600F0A8FBB8
:101A000003B0F0BD10B540F29400C2F200000068CF
:101A100040F600448169C4F2020441F00101816191
:101A2000204610210122FEF7BBFF20468021012223
:101A3000FEF7B6FF10BD00002DE9F04F85B0002184
:101A400043F630000091C4F20200026841F6000B38
:101A500042F0800202600268C4F2020B02F08002CF
:101A60000092009A009102680BF5806742F08002B4
:101A7000026002686C4602F080020092009A0091B7
:101A800002684FF00E0A42F08002026002680226ED
:101A900002F080020092009A00910268012542F053
:101AA00002020260026802F002020092009A0091B3
:101AB000026842F001020260026802F00102009234
:101AC000009A0091026842F001020260026802F08E
:101AD00001020092009A0091026842F00202026044
:101AE000026802F002020092009A0091026842F03D
:101AF00040020260026802F040020092009A0091E7
:101B0000026842F010020260026802F010020092C5
:101B1000009A0091026842F010020260026802F02E
:101B200010020092009A0091026842F08002026066
:101B3000026802F080020092009A0091026842F06E
:101B400040020260026802F040020092009A009196
:101B5000026842F040020260026802F04002009215
:101B6000009A0091026842F480720260026802F4F6
:101B700080720092009A0091026842F004020260B2
:101B8000026802F004020092009A0091026842F496
:101B900080720260026802F480720092009A0091E2
:101BA000026842F010020260026802F01002009225
:101BB000009A0091026842F040020260026802F05E
:101BC00040020092009A0091026842F0080202600E
:101BD000026802F008020092009A0091026842F046
:101BE00008020260026802F008020092009A009166
:101BF000026842F480720260026802F4807200920D
:101C0000009A0091026842F001020260026802F04C
:101C100001020092009A0091026842F00202026002
:101C2000026802F002020092009A0091026842F0FB
:101C300002020260026802F002020092009A009121
:101C4000026842F040020260026802F04002009224
:101C5000009A0091026842F480720260026802F405
:101C600080720092009A0091026842F480720260D1
:101C7000026802F480720092009A0091026842F0B9
:101C800020020260026802F020020092009A009195
:101C9000026842F008020260026802F00802009244
:101CA000009A0091016841F0080101600068214636
:101CB00000F008000090009802200390019001209D
:101CC0000290042000903846CDF810A0FEF79EFD4B
:101CD0000820009038462146CDF810A0FEF796FD6A
:101CE0004FF48070009038462146CDF810A0FEF7E2
:101CF0008DFD0920ABF5A05904904846214600957A
:101D00000925FEF783FD4FF40060ABF5C058009045
:101D100040462146CDF810A0FEF778FD4FF48050E4
:101D2000009040462146CDF810A0FEF76FFD4846D2
:101D3000214600960495FEF769FD40200090584624
:101D400021464025CDF810A0FEF760FD2020ABF520
:101D50000066009030462146CDF810A0FEF756FDF3
:101D6000304621460095CDF810A0FEF74FFD4FF408
:101D70000050009038462146CDF810A0FEF746FDF1
:101D80004FF4806000900920049058462146FEF7E9
:101D90003DFD4FF40040009038462146CDF810A09C
:101DA000FEF734FD01200BF5006700903846214610
:101DB000CDF810A0FEF72AFD80200090ABF58050F2
:101DC0002146CDF810A0FEF721FD042000903846F2
:101DD0002146CDF810A0FEF719FD102000903046E6
:101DE00021461025CDF810A0FEF710FD4FF48050CD
:101DF000009058462146CDF810A0FEF707FD402080
:101E0000ABF54066009030462146CDF810A0FEF7B5
:101E1000FDFC4FF40060009058462146CDF810A01C
:101E2000FEF7F4FC384621460095CDF810A0FEF7E9
:101E3000EDFC0820009040462146CDF810A0FEF7AA
:101E4000E5FC4FF48070009048462146CDF810A084
:101E5000FEF7DCFC4FF4007848462146CDF80080C0
:101E6000CDF810A0FEF7D2FC802000905846214605
:101E70004FF08009CDF810A0FEF7C8FC4FF4806544
:101E8000384621460095CDF810A0FEF7BFFC384635
:101E90002146CDF80080CDF810A0FEF7B7FCABF5D9
:101EA000806021460095CDF810A0FEF7AFFC102011
:101EB0000090022003900120CDE901003046214628
:101EC000FEF7A4FC30462146CDF80090FEF79EFCBC
:101ED00005B0BDE8F08F000040F21800C2F200002B
:101EE000006840F29401C2F20001342200FB0210AB
:101EF000006E704740F21800C2F20000006840F225
:101F00009401C2F20001342200FB0210406E7047BF
:101F1000B0B58EB000F032FD08200290C0200690CF
:101F2000052008904FF480300B9002A8FEF7A2FE27
:101F3000FFF782FD002143F630000191C4F2020058
:101F400042692E2342F080624261426940F2F714F6
:101F500002F080620192019A019102684FF4597C6B
:101F600042F400020260006846F6000200F400003D
:101F70000190019840F29400C2F20000C4F2010204
:101F8000C0E90021172200F12005C0E90211C0E9D3
:101F90000411C0E9061340F24E3340F20D2E85E8DD
:101FA0001C5080F8361080F8351080F834104FF44B
:101FB00048714FF4F072C0E91812FEF76FFD40F25D
:101FC0000400C2F2000000F09BF800204FF05041E6
:101FD00000224FF0504500F02FF8FFF77DFF044638
:101FE000FFF788FF604305EB80010120002200F02D
:101FF00023F8FFF707FD002000F064F84FF07F4062
:10200000FFF7E0FC012000F05DF84FF07F40FFF7A4
:10201000D9FC0020FF2100F091F80120002100F000
:102020008DF8002000F04EF84FF0FF304FF07F4168
:1020300000F05EF80EB0B0BDF0B58DB000271546CB
:102040000E4604460097FFF747FFCDE90107FFF76B
:1020500051FFCDE90305FF200996CDE905074FF4AF
:10206000C06007900720ADF830708DF8327008908E
:10207000FFF732FF0A90FFF73DFF40F29405C2F2EE
:1020800000050B90694628462246FEF7CBFC40F23D
:102090006C0104EB4400C2F2000140F2040701EBC2
:1020A00080024FF0FF33C2F20007C2E901374FF060
:1020B0007F422B6841F82020586A40F001005862A6
:1020C0000DB0F0BD40F21801C2F200010860704787
:1020D00040F21801C2F20001096840F26C0201EB03
:1020E0004101C2F2000202EB81014860704700002A
:1020F00010B50C4600F014F82046FFF7E9FF10BDBC
:1021000040F21801C2F20001096840F26C0201EBD2
:102110004101C2F2000202EB8101886070470000B9
:1021200040F21801C2F20001096840F26C0201EBB2
:102130004101C2F2000242F82100704780B5024618
:1021400040F29400C2F20000FEF71CFD80BD0000CA
:10215000F0B581B0074640F21800C2F20000154603
:10216000006840F294021C46C2F20002342300FBD5
:1021700003220E46069940F22C00926CC2F2000037
:102180004FF44033042A436098BF8260C1604BF231
:102190000001C4F202010160FEF752FA08B101B079
:1021A000F0BD40F22C00C2F200003946FEF7FCF907
:1021B0000028F4D1079940F22C00C2F20000324608
:1021C0002B460094FEF704FB0028E8D140F22C00D7
:1021D000C2F200006421FEF761FA01B0F0BD000018
:1021E000F0B50468D1E900CE04EBC2108B68CD686D
:1021F000E668D0F88820002702F47042C0F88820F2
:10220000E268C0F6FF77C2F30B423E40624406EB41
:102210000E4601323243C0F88820E268D0F88C6064
:102220006FF3DF2206F47046C0F88C60E4682A443D
:102230006FF3DF242344013343EA0242C0F88C20C9
:10224000D0F8942022F00702C0F894200B69C0F85F
:10225000943091F8322091F831408D69D0F89C602B
:1022600000261204C0F89C6091F8307042EA042203
:1022700042EA05623A44C0F89C20D0F8982040F227
:10228000077422F0FF02C0F898204A69072BC0F8B3
:102290009820D0F8A020AEEB0C0722EA0402C0F888
:1022A000A020D1E9074500F1840244EA0504C0F802
:1022B000A040D0F8AC40C0F8AC604C6AC0F8AC406C
:1022C0009ABF0DA050F823000120D36A03F0E02349
:1022D000D362D1E90A3143437843033040EA0340F3
:1022E000D062106B40F2FF73984310631163106863
:1022F00040F001001060F0BD040000000300000089
:1023000002000000020000000200000001000000C6
:102310000100000002000000FEE70000704700001E
:1023200000F0070080F00703042B28BF04234FF0C0
:10233000FF3C03380CFA03F338BF00209943814077
:102340000CFA00F022EA00000843704770470000D2
:1023500070B598B040F23C1442F60000C2F200049E
:10236000C4F200002060002543F640000C95C4F242
:102370000200016841F080510160006800F0805067
:102380000C900C98FEF770FC0C200C9001260CA809
:1023900012950E961195FEF7A9FE202000904FF49D
:1023A00080700A906846FEF765FC40F63C60C4F217
:1023B000472006602046FFF785F87F20FF21C4E90B
:1023C00001502046E160FFF72BF810B102A000F0A9
:1023D00003FE18B070BD00BF0A0D2052544320CA3E
:1023E000B1D6D3B3F5CABCBBAFCAA7B0DC200D00D1
:1023F000B0B504460068C168490611D44FF0FF31FA
:10240000C160FEF7D3FA05462068C068400607D4CD
:10241000FEF7CCFA401BB0F57A7FF5D90320B0BDAA
:102420000020B0BD2DE9F04F85B0002143F630000B
:102430000091C4F20200026841F2000842F020025A
:1024400002600268C4F2020802F020020092009AC0
:102450000091026808F5806642F02002026002687E
:102460006D4602F020020092009A00910268022458
:1024700042F020020260026802F020020092009AFC
:102480000091026842F020020260026802F020021D
:102490000092009A0091026842F0200202600268F5
:1024A00002F020020092009A0091026842F020029D
:1024B0000260026802F020020092009A0091026815
:1024C00042F020020260026802F020020092009AAC
:1024D0000091026842F020020260026802F02002CD
:1024E0000092009A0091026842F0200202600268A5
:1024F00002F020020092009A0091026842F020024D
:102500000260026802F020020092009A00910268C4
:1025100042F040020260026802F040020092009A1B
:102520000091026842F040020260026802F040023C
:102530000092009A0091026842F040020260026834
:1025400002F040020092009A0091026842F00802F4
:102550000260026802F008020092009A009102688C
:1025600042F008020260026802F008020092009A3B
:102570000091026842F008020260026802F008025C
:102580000092009A0091026842F00802026002681C
:1025900002F008020092009A0091026842F01002D4
:1025A0000260026802F010020092009A0091026834
:1025B00042F010020260026802F010020092009ADB
:1025C0000091026842F010020260026802F01002FC
:1025D0000092009A0091026842F0100202600268C4
:1025E00002F010020092009A0091026842F010027C
:1025F0000260026802F010020092009A00910268E4
:1026000042F010020260026802F010020092009A8A
:102610000091026842F010020260026802F01002AB
:102620000092009A0091026842F010020260026873
:1026300002F010020092009A0091026842F010022B
:102640000260026802F010020092009A0091026893
:1026500042F008020260026802F008020092009A4A
:102660000091026842F008020260026802F008026B
:102670000092009A0091026842F00802026002682B
:1026800002F008020092009A0091026842F0800273
:102690000260026802F080020092009A00910268D3
:1026A00042F040020260026802F040020092009A8A
:1026B0000091026842F040020260026802F04002AB
:1026C0000092009A0091026842F0040202600268DF
:1026D00002F004020092009A0091026842F0200287
:1026E0000260026802F020020092009A00910268E3
:1026F00042F040020260026802F040020092009A3A
:102700000091026842F040020260026802F040025A
:102710000092009A0091026842F080020260026812
:1027200002F080020092009A0091026842F01002CA
:102730000260026802F010020092009A00910168A3
:1027400041F0100101600068012100F010000090CC
:10275000009802200190CDE902100C200490009115
:1027600030462946FEF752F8304629460094FEF7D7
:102770004DF80420009030462946FEF747F808201F
:10278000009030462946FEF741F810200090304670
:102790002946FEF73BF82020009030462946FEF7F8
:1027A00035F84FF48050009030462946FEF72EF859
:1027B0004FF40050009030462946FEF727F84FF4BA
:1027C00080400090304629464FF48044FEF71EF8C2
:1027D0004FF400400090304629464FF4004AFEF77F
:1027E00015F808F500674FF0010938462946CDF87D
:1027F0000090FEF70BF84FF0020B38462946CDF853
:1028000000B0FEF703F80420009038462946FDF793
:10281000FDFF0094A8F5806420462946FDF7F6FFE9
:1028200020462946CDF800A0FDF7F0FF20462946B6
:10283000CDF80090FDF7EAFF20462946CDF800B01C
:10284000FDF7E4FF8020009040462946FDF7DEFFBB
:102850004FF480700090404629464FF4807AFDF78F
:10286000D5FF4FF4007B40462946CDF800B0FDF778
:10287000CDFF4FF4806940462946CDF80090FDF722
:10288000C5FF4FF40060009040462946FDF7BEFFAB
:102890004FF48050009040462946FDF7B7FF4FF4B3
:1028A0000050009040462946FDF7B0FF4FF48040AD
:1028B000009040462946FDF7A9FF4FF400400090E4
:1028C00040462946FDF7A2FF20462946CDF800A044
:1028D0004FF4807AFDF79AFF20462946CDF800B0E4
:1028E000FDF794FF20462946CDF80090FDF78EFFB6
:1028F000402008F54064009020462946FDF786FFF9
:102900001020009038462946FDF780FF20200090D7
:1029100038462946FDF77AFF4FF00109A8F5006017
:102920002946CDF80090FDF771FF4FF4006000904C
:1029300030462946FDF76AFF4FF4004000903846C4
:102940002946FDF763FF38462946CDF800A0FDF77C
:102950005DFF8020009020462946FDF757FF0220AA
:10296000009040462946FDF751FF40462946CDF8E4
:102970000090FDF74BFF05B0BDE8F08FB0B588B013
:10298000FFF750FD002143F638000191C4F2020028
:102990000268012342F001020260006840F2401226
:1029A00000F001000190019840F23820C2F20000CE
:1029B000CAF20002C0E9002300F108024FF0080C3F
:1029C0004FF0100E40244FF4C07582E808504FF4C9
:1029D00000624FF40053C0E90545C161C0E9082118
:1029E000836202210722042301910292CDE903327E
:1029F000CDE90511079101A9FEF77CFD00F002F871
:102A000008B0B0BD2DE9F04381B040F21C0440F2A3
:102A10003825C2F20004C2F200054FF00109082770
:102A20004FF00008284621464FF6FF72C4E9009790
:102A3000C4E90298FEF796FD00F02AF8022084E827
:102A40008102284621464FF6FF72C4F80C80FEF73B
:102A500089FD03200426C4E90007284621464FF6D5
:102A6000FF72C4E90268FEF77DFD40F2312084E880
:102A7000C002E060284621464FF6FF72FEF772FD65
:102A8000284640F2AB21FEF759FD01B0BDE8F083C6
:102A900082B00120019000200090019848F2A061CE
:102AA000C0F2010148430090009828B10098013815
:102AB000009000980028F9D102B0704770470000DC
:102AC000B0B501380024B4EB106F1CBF0120B0BDBD
:102AD0004EF21005CEF2000568604FF0FF300F2176
:102AE00000F0BCF90720AC6028602046B0BD0000B3
:102AF00080B5FDF761FF40F26C20C2F20000017862
:102B0000012915D140F26D21C2F200010A7801328B
:102B1000D3B2962B0A7031BF0122002202700A70D4
:102B200042F20000C4F202004FF40061FDF738FFEA
:102B300040F23420C2F200000078002808BF80BDB7
:102B400040F23520C2F2000001780131017080BDF1
:102B500070B592B006AC20463021FDF77BFB002516
:102B600043F640000595CDE90355CDE901550095A3
:102B7000C4F202000168022641F080510160006841
:102B800000F080500090009847F200000095C4F2D9
:102B90000000016841F440410160006800F44040D9
:102BA00000900098012006904FF4803007904FF479
:102BB00080000D9019200E904FF4B4700C96CDE962
:102BC0000F06072011902046FEF790FAFEF70EF848
:102BD0000F20CDE901064FF4A05004904FF480502F
:102BE000059001A805210395FEF768F912B070BDA4
:102BF0004EF68850CEF20000016841F47001016089
:102C00004FF0006140F8801C7047000080B540F232
:102C10009C10C2F20000FEF707FD80BD80B540F2B7
:102C20005C10C2F20000FEF7FFFC80BDB0B50546A7
:102C3000006805F108030ECB0469194324F44054DD
:102C4000224302616A69EB691143C26849F20C646C
:102C50001943A2431143C1604169AA6921F440713B
:102C60001143416141F20041B3F5004F40F48060EF
:102C7000C4F2010124D1884246D1FEF7F1F96B6814
:102C80001921A0FB01015A00DB0FFDF7ABFA48F256
:102C90001F51C5F2EB11A0FB01235A096FF063032A
:102CA00002FB0300322303EBC000A0FB01014FF441
:102CB000F87000EA111000EB0210C1F3421167E056
:102CC000884244D1FEF7CCF96B681921A0FB0101C1
:102CD0009A009B0FFDF786FA48F21F51C5F2EB11DF
:102CE000A0FB01235A096FF0630302FB03003223A8
:102CF00003EB0010A0FB0101F02000EA511000EBF3
:102D00000210C1F3431143E0FEF798F96B681921F3
:102D1000A0FB01015A00DB0FFDF764FA48F21F51D6
:102D2000C5F2EB11A0FB01235A096FF0630302FB0C
:102D30000300322303EBC000A0FB01014FF4F87045
:102D400000EA111000EB0210C1F3421120E0FEF77F
:102D500075F96B681921A0FB01019A009B0FFDF723
:102D600041FA48F21F51C5F2EB11A0FB01235A09A9
:102D70006FF0630302FB0300322303EB0010A0FBA0
:102D80000101F02000EA511000EB0210C1F34311E1
:102D90002A6808439060B0BD2DE9F0410446006800
:102DA00000680840884202D10020BDE8F0811D463D
:102DB0000E4690465F1C04E0206800683040B04238
:102DC000F2D0002FF8D02DB1FDF7F0FDA0EB0800F8
:102DD000A842F1D92068C16821F4D071C16041696D
:102DE00021F001014161202084F8390084F83A0083
:102DF000002084F838000320BDE8F08140F2DC10A8
:102E0000C2F2000000680168890658BF7047416837
:102E1000C9B2416070470000FEE7000080B540F293
:102E20001C20C2F20000FEF7BBFD80BD002848BF99
:102E3000704700F01F01012202FA01F14EF2001268
:102E40004009CEF2000242F8201070474EF60C50B6
:102E5000CEF200000068C0F3022070474EF6145313
:102E600000F00F02CEF2000309011A4400F16043A2
:102E7000B0F1FF3FC8BF03F5644211707047000016
:102E800080B586B0002043F630010190C4F2020103
:102E90000A6842F480720A60096801F48071019145
:102EA00001994FF4006101910121CDE9021042F234
:102EB0000000C4F2020001A9FDF7A8FC06B080BD25
:102EC00080B582B0019040F2DC10C2F2000001A98E
:102ED00001224FF6FF73FEF7F3FC019802B080BDAC
:102EE0002DE9F04186B00020019043F63000C4F295
:102EF0000200016841F6004441F080010160006871
:102F0000C4F2020400F080000190019801200290B8
:102F1000032001AD4FF48068049020462946CDF887
:102F20000480FDF773FC4FF40067204629460197A3
:102F3000FDF76CFC4FF48056204629460196FDF7BC
:102F400065FCC4F81880A761A66106B0BDE8F081F1
:102F5000FFF7FEFD00F00AF8FFF7C2FFFFF790FF52
:102F6000FEF7D6FFFFF7F4F9FEE7000080B582B068
:102F7000002143F644000191C4F2020002684FF4BC
:102F8000E13342F010020260006841F2000200F0FA
:102F900010000190019840F2DC10C2F20000C4F26F
:102FA00001024FF00C0CC0E90023C0E90211C0E996
:102FB000041CFEF71FFC02B080BD02E008C8121F0F
:102FC00008C1002AFAD170477047002001E001C112
:102FD000121F002AFBD1704710B5044601E0FFF72D
:102FE0006FFF14F8010B04490028F8D1BDE8104028
:102FF0000A20FFF765BF000000000020000000006D
:103000000000000001020304060708090000000098
:1030100001020304000000000000000000000000A6
:1030200000000000000000000000000000000000A0
:103030000000000000000000000000000000000090
:103040000000000000000000000000000000000080
:103050000000000000000000000000000000000070
:1030600000000380000380000380000380000380D1
:103070000003800003800003800003800001000043
:103080000100000000000000000380000380000039
:103090000000000000000000000000000000000030
:1030A000000000000000000000000000000E7000A2
:1030B0000E70000E700004200004200004200004A4
:1030C00020000000000000000000000000000000E0
:1030D00000000000000000000000000000000000F0
:1030E00000000000000000000000000000000000E0
:1030F00000000660000660000660000660000660D2
:10310000003FF8003FF8000660000CC0003FF800E8
:103110003FF8000CC0000CC0000CC0000CC0000C3C
:10312000C0000000000000000000000000000000DF
:103130000000000000000001800001800007B000D6
:103140000FF0001870001870001C00000F800007BE
:10315000E00000F0001830001C30001C70001FE080
:10316000001BC00001800001800001800001800080
:10317000000000000000000000000000000000004F
:1031800000000780000FC0001CE0001860001860FD
:10319000001CE0000FF80007E0001FF000073800F7
:1031A00006180006180007380003F00001E00000D0
:1031B000000000000000000000000000000000000F
:1031C00000000000000000000000000000000000FF
:1031D00003F00007F0000C60000C00000C0000067B
:1031E00000000700000F9C001DFC0018F000187084
:1031F000000FFC0007DC00000000000000000000E1
:1032000000000000000000000000000000000000BE
:103210000000000000038000038000038000010024
:10322000000100000100000100000000000000009B
:10323000000000000000000000000000000000008E
:10324000000000000000000000000000000000007E
:10325000000000000000000000000018000038001E
:1032600000700000F00000E00000E00001C000017C
:10327000C00001C00001C00001C00001C00000E0AA
:103280000000E0000070000070000038000018002E
:10329000000000000000000000000000000000002E
:1032A00000001800001C00000E00000E00000700C7
:1032B00000070000038000038000038000038000FB
:1032C0000380000380000700000700000F00000ECD
:1032D00000001C00001800000000000000000000BA
:1032E00000000000000000000000018000018000DC
:1032F0000180001DB8001FF80007E00003C00003B4
:10330000C000066000066000000000000000000031
:1033100000000000000000000000000000000000AD
:10332000000000000000000000000000000000009D
:10333000000000000000000001800001800001800A
:10334000000180000180003FFC003FFC0001800084
:103350000180000180000180000180000000000069
:10336000000000000000000000000000000000005D
:10337000000000000000000000000000000000004D
:10338000000000000000000000000000000000003D
:10339000000000000000000000000000000000E04D
:1033A0000000C00001C00001800001800003000097
:1033B000030000000000000000000000000000000A
:1033C00000000000000000000000000000000000FD
:1033D000000000000000001FF8001FF800000000BF
:1033E00000000000000000000000000000000000DD
:1033F00000000000000000000000000000000000CD
:1034000000000000000000000000000000000000BC
:1034100000000000000000000000000000000000AC
:10342000000000000000000000000000000003C0D9
:103430000003C00003C00000000000000000000006
:103440000000000000000000000000000018000064
:1034500018000038000030000070000060000060BC
:103460000000C00000C000018000018000030000D7
:103470000300000600000600000E00000C00001C07
:10348000000018000018000000000000000000000C
:103490000000000000000000000003C00007E00082
:1034A0000C30000C300018180018180018180018FC
:1034B00018001818001818001818000C30000C30EC
:1034C0000007E00003C00000000000000000000052
:1034D00000000000000000000000000000000000EC
:1034E00000000080000780001F80001D8000018018
:1034F0000001800001800001800001800001800047
:103500000180000180000180001FF8001FF800000A
:1035100000000000000000000000000000000000AB
:103520000000000000000000000007C0001FF000C5
:10353000383000301800301800001800003000004B
:10354000600001C0000380000600000C00001800AD
:10355000003FF8003FF800000000000000000000FD
:10356000000000000000000000000000000000005B
:10357000000003C0000FE0000C70000030000030BD
:103580000000600003C00003E000007000001800AD
:103590000018000018001838001FF0000FC00000CD
:1035A000000000000000000000000000000000001B
:1035B0000000000000000000000000E00001E0004A
:1035C00001E0000360000660000660000C60000C73
:1035D00060001860003060003FF8003FF8000060B5
:1035E0000003F80003F800000000000000000000E5
:1035F00000000000000000000000000000000000CB
:1036000000001FF0001FF000180000180000180054
:10361000001BC0001FF0001C300000180000180044
:103620000018000018003030003FF0000FC000000C
:10363000000000000000000000000000000000008A
:103640000000000000000000000000F80003F80087
:103650000700000E00000C00001800001BC0001F37
:10366000F0001C30001818001818001818000C384A
:10367000000FF00003E00000000000000000000068
:10368000000000000000000000000000000000003A
:1036900000001FF8001FF80018180018380000304C
:1036A0000000300000700000600000600000E000DA
:1036B00000C00000C00001C00001800001800000C7
:1036C00000000000000000000000000000000000FA
:1036D0000000000000000000000007E0000FF00004
:1036E0001C38001818001818000C300007E00007FC
:1036F000E0000C30001818001818001818001C38CA
:10370000000FF00007E000000000000000000000D3
:1037100000000000000000000000000000000000A9
:10372000000007C0000FF0001C3000181800181827
:10373000001818000C38000FF80003D8000018001B
:1037400000300000700000E0001FC0001F000000FB
:103750000000000000000000000000000000000069
:103760000000000000000000000000000000000059
:1037700000000000000003C00003C00003C0000000
:10378000000000000000000000000000000003C076
:103790000003C00003C000000000000000000000A3
:1037A0000000000000000000000000000000000019
:1037B000000000000000000000000000000000F019
:1037C0000000F00000F00000000000000000000019
:1037D00000000000E00001C0000180000180000343
:1037E00000000200000000000000000000000000D7
:1037F00000000000000000000000000000000000C9
:10380000001C00003C0000F00003C0000F00003C62
:103810000000F000003C00000F000003C00000F0BA
:1038200000003C00001C0000000000000000000040
:103830000000000000000000000000000000000088
:103840000000000000000000000000000000000078
:10385000007FFC007FFC000000000000007FFC00F7
:103860007FFC0000000000000000000000000000DD
:103870000000000000000000000000000000000048
:103880000000000000000000000000000000000038
:103890007000007800001E000007800001E00000BA
:1038A0007800001E0000780001E0000780001E0084
:1038B0000078000070000000000000000000000020
:1038C00000000000000000000000000000000000F8
:1038D000000000000007C0000FE000187000183062
:1038E0000018300000700000E00003C000038000FA
:1038F00003000000000000000007000007000000B7
:1039000000000000000000000000000000000000B7
:103910000000000000000000000003E00007F000CD
:103920000E38000C180018780018F80019D8001983
:10393000980019980019980018F8001878001800D5
:10394000000C00000E180007F80003E00000000063
:103950000000000000000000000000000000000067
:1039600000000000001F80001FC00001C0000360B5
:10397000000360000630000630000C30000FF80035
:103980001FF800180C00300C00FC7F00FC7F0000CA
:103990000000000000000000000000000000000027
:1039A000000000000000000000000000007FE000B8
:1039B0007FF0001838001818001818001838001F79
:1039C000F0001FF800181C00180C00180C00180C50
:1039D000007FF8007FF00000000000000000000001
:1039E00000000000000000000000000000000000D7
:1039F000000000000003EC000FFC001C1C00180C71
:103A000000300C00300000300000300000300000BA
:103A1000300000180C001C1C000FF80003F0000020
:103A20000000000000000000000000000000000096
:103A3000000000000000000000000000007FC00047
:103A40007FF000183800181800180C00180C001827
:103A50000C00180C00180C00180C0018180018386E
:103A6000007FF0007FE00000000000000000000088
:103A70000000000000000000000000000000000046
:103A800000000000007FF8007FF8001818001818E8
:103A9000001998001980001F80001F800019800005
:103AA0001998001818001818007FF8007FF8000017
:103AB0000000000000000000000000000000000006
:103AC000000000000000000000000000003FFC00BB
:103AD0003FFC000C0C000C0C000CCC000CC0000FC8
:103AE000C0000FC0000CC0000CC0000C00000C0097
:103AF000003FC0003FC000000000000000000000C8
:103B000000000000000000000000000000000000B5
:103B1000000000000003EC000FFC001C1C00180C4F
:103B200000300C0030000030000030FE0030FE009D
:103B3000300C00380C001C1C000FFC0003F00000CF
:103B40000000000000000000000000000000000075
:103B5000000000000000000000000000007E7E0069
:103B60007E7E001818001818001818001818001F7A
:103B7000F8001FF800181800181800181800181876
:103B8000007E7E007E7E000000000000000000003D
:103B90000000000000000000000000000000000025
:103BA00000000000001FF8001FF8000180000180E5
:103BB0000001800001800001800001800001800080
:103BC0000180000180000180001FF8001FF8000044
:103BD00000000000000000000000000000000000E5
:103BE0000000000000000000000000000007FE00D0
:103BF00007FE000030000030000030000030000000
:103C00003000303000303000303000303000306074
:103C1000003FE0000F8000000000000000000000F6
:103C20000000000000000000000000000000000094
:103C300000000000007F3E007F3E0018300018604A
:103C40000018C0001980001B80001FC0001CE0008D
:103C50001870001830001838007F1F007F1F000008
:103C60000000000000000000000000000000000054
:103C7000000000000000000000000000007F800045
:103C80007F80000C00000C00000C00000C00000CF9
:103C900000000C00000C0C000C0C000C0C000C0CB8
:103CA000007FFC007FFC000000000000000000001E
:103CB0000000000000000000000000000000000004
:103CC0000000000000F00F00F81F00381C003C3C12
:103CD000003C3C00366C00366C0033CC0033CC002A
:103CE000318C00300C00300C00FE7F00FE7F0000A5
:103CF00000000000000000000000000000000000C4
:103D00000000000000000000000000000078FE003D
:103D100078FE001C18001E18001F18001B18001B3E
:103D2000980019D80018D80018F80018780018382A
:103D3000007F18007F180000000000000000000055
:103D40000000000000000000000000000000000073
:103D5000000000000003C0000FF0001C380018181D
:103D600000381C00300C00300C00300C00300C000F
:103D7000381C001818001C38000FF00003C00000A9
:103D80000000000000000000000000000000000033
:103D9000000000000000000000000000003FF000F4
:103DA0003FF8000C1C000C0C000C0C000C0C000C60
:103DB00018000FF8000FE0000C00000C00000C00D1
:103DC000003FC0003FC000000000000000000000F5
:103DD00000000000000000000000000000000000E3
:103DE000000000000003C0000FF0001C380018188D
:103DF00000381C00300C00300C00300C00300C007F
:103E0000381C001818001C38000FF00007C000070D
:103E1000CC000FFC000C3800000000000000000087
:103E2000000000000000000000000000007FE00033
:103E30007FF0001838001818001818001838001FF4
:103E4000F0001FC00018E00018700018300018388B
:103E5000007F1E007F0E0000000000000000000038
:103E60000000000000000000000000000000000052
:103E7000000000000007D8000FF8001C38001818D8
:103E8000001818001E00000FC00003F000007800AA
:103E90001818001818001C38001FF0001BE0000064
:103EA0000000000000000000000000000000000012
:103EB000000000000000000000000000003FFC00C7
:103EC0003FFC00318C00318C00318C00318C0001C2
:103ED00080000180000180000180000180000180DD
:103EE000000FF0000FF000000000000000000000D4
:103EF00000000000000000000000000000000000C2
:103F000000000000007E7E007E7E00181800181859
:103F100000181800181800181800181800181800B1
:103F20001818001818000C30000FF00003C0000033
:103F30000000000000000000000000000000000081
:103F4000000000000000000000000000007F7F0073
:103F50007F7F00180C000C18000C18000C180006CD
:103F6000300006300003600003600003600001C001
:103F70000001C00000800000000000000000000000
:103F80000000000000000000000000000000000031
:103F90000000000000FE3F80FE3F8030060030063B
:103FA0000030860019CC0019CC001B6C001B6C0083
:103FB0001E7C000E38000E38000C18000C18000093
:103FC00000000000000000000000000000000000F1
:103FD000000000000000000000000000007E7E00E5
:103FE0007E7E001818000C300006600003C000013F
:103FF000800001800003C0000660000C300018182B
:10400000007E7E007E7E00000000000000000000B8
:1040100000000000000000000000000000000000A0
:1040200000000000007C7E007C7E001818000C3030
:104030000006600006600003C000018000018000EF
:104040000180000180000180000FF0000FF00000EF
:104050000000000000000000000000000000000060
:10406000000000000000000000000000001FF80039
:104070001FF80018180018300018600018C0000160
:1040800080000300000618000C18001818003018F3
:10409000003FF8003FF800000000000000000000B2
:1040A0000000000000000000000000000000000010
:1040B000000001F00001F00001800001800001809B
:1040C000000180000180000180000180000180006B
:1040D000018000018000018000018000018000015A
:1040E000800001F00001F00000000000000000006E
:1040F000000000001800001800001C00000C000068
:104100000E0000060000060000030000030000018E
:10411000800001800000C00000C00000600000605E
:104120000000700000300000380000180000180087
:10413000000000000000000000000000000000007F
:1041400000000F80000F80000180000180000180CE
:1041500000018000018000018000018000018000DA
:1041600001800001800001800001800001800001C9
:1041700080000F80000F80000000000000000000A1
:104180000000000000000000800001C00003E0000B
:104190000770000630000C1800180C001004000016
:1041A000000000000000000000000000000000000F
:1041B00000000000000000000000000000000000FF
:1041C00000000000000000000000000000000000EF
:1041D00000000000000000000000000000000000DF
:1041E00000000000000000000000000000000000CF
:1041F00000000000000000000000000000000000BF
:104200000000000000000000000000000000FFFFB0
:1042100000FFFF0000000003000003800000E0003A
:10422000006000000000000000000000000000002E
:10423000000000000000000000000000000000007E
:10424000000000000000000000000000000000006E
:10425000000000000000000000000000000000005E
:1042600000000000000000000000000000000FC07F
:10427000001FE00000300000300007F0001FF000D9
:104280003830003030003070001FFC000FBC0000E0
:10429000000000000000000000000000000000001E
:1042A000000000000000000000007800007800001E
:1042B0001800001800001BE0001FF8001C18001870
:1042C0000C00180C00180C00180C00180C001C181E
:1042D000007FF8007BE0000000000000000000000C
:1042E00000000000000000000000000000000000CE
:1042F000000000000000000000000000000003ECCF
:10430000000FFC001C1C00380C00300C00300000BA
:10431000300000380C001C1C000FF80003F00000F7
:10432000000000000000000000000000000000008D
:10433000000000000000000000000078000078008D
:1043400000180000180007D8001FF80018380030C7
:1043500018003018003018003018003018001838D5
:10436000001FFE0007DE000000000000000000004B
:10437000000000000000000000000000000000003D
:10438000000000000000000000000000000007E046
:10439000001FF800181800300C003FFC003FFC0024
:1043A000300000300000180C001FFC0007F0000077
:1043B00000000000000000000000000000000000FD
:1043C0000000000000000000000001FC0003FC00F1
:1043D0000600000600003FF8003FF8000600000657
:1043E00000000600000600000600000600000600AF
:1043F000003FF0003FF0000000000000000000005F
:1044000000000000000000000000000000000000AC
:10441000000000000000000000000000000007DEB7
:10442000001FFE0018380030180030180030180047
:104430003018003018001838001FF80007D80000A6
:1044400018000018000038000FF0000FC000000036
:10445000000000000000000000007800007800006C
:104460001800001800001BE0001FF0001C380018A6
:104470001800181800181800181800181800181834
:10448000007E7E007E7E0000000000000000000034
:10449000000000000000000000000000000000001C
:1044A00000000180000180000000000000001F806B
:1044B000001F800001800001800001800001800059
:1044C0000180000180000180003FFC003FFC0000F3
:1044D00000000000000000000000000000000000DC
:1044E0000000000000000000000000C00000C0004C
:1044F0000000000000001FF0001FF000003000006E
:10450000300000300000300000300000300000308B
:10451000000030000030000030000030000070006B
:104520001FE0001F800000000000000000000000ED
:1045300000003C00003C00000C00000C00000CF8E7
:10454000000CF8000CC0000D80000F80000F000070
:104550000F80000DC0000CE0003C7C003C7C0000A3
:10456000000000000000000000000000000000004B
:10457000000000000000000000001F80001F8000FD
:1045800001800001800001800001800001800001A5
:104590008000018000018000018000018000018016
:1045A000003FFC003FFC0000000000000000000095
:1045B00000000000000000000000000000000000FB
:1045C0000000000000000000000000000000F7787C
:1045D00000FFFC0039CC00318C00318C00318C00A4
:1045E000318C00318C00318C00FDEF00FDEF0000BC
:1045F00000000000000000000000000000000000BB
:1046000000000000000000000000000000000000AA
:104610000000000000007BE0007FF0001C38001864
:104620001800181800181800181800181800181882
:10463000007E7E007E7E0000000000000000000082
:10464000000000000000000000000000000000006A
:10465000000000000000000000000000000003C097
:10466000000FF0001C3800381C00300C00300C002B
:10467000300C00381C001C38000FF00003C0000094
:10468000000000000000000000000000000000002A
:10469000000000000000000000000000000000001A
:1046A0000000000000007BE0007FF8001C180018EC
:1046B0000C00180C00180C00180C00180C001C182A
:1046C000001FF8001BE00018000018000018000090
:1046D0007F00007F000000000000000000000000DC
:1046E000000000000000000000000000000007DEE5
:1046F000001FFE0018380030180030180030180075
:104700003018003018001838001FF80007D80000D3
:10471000180000180000180000FE0000FE00000055
:104720000000000000000000000000000000000089
:104730000000000000003E78003EFC0007CC0007AF
:10474000000006000006000006000006000006004B
:10475000003FF0003FF000000000000000000000FB
:104760000000000000000000000000000000000049
:10477000000000000000000000000000000007F83A
:10478000000FF8001818001818001F80000FF00024
:1047900000F8001818001838001FF0001FE0000093
:1047A0000000000000000000000000000000000009
:1047B000000000000000000000000C00000C0000E1
:1047C0000C00000C00003FF0003FF0000C00000C5B
:1047D00000000C00000C00000C00000C00000C1C81
:1047E0000007FC0003F000000000000000000000D3
:1047F00000000000000000000000000000000000B9
:1048000000000000000000000000000000007878B8
:1048100000787800181800181800181800181800E8
:104820001818001818001838000FFE0007DE0000E6
:104830000000000000000000000000000000000078
:104840000000000000000000000000000000000068
:104850000000000000007C3E007C3E00181800189C
:1048600018000C30000C300006600006600007E005
:104870000003C00003C000000000000000000000B2
:104880000000000000000000000000000000000028
:104890000000000000000000000000000000783C64
:1048A00000783C003118003398003398001AB000AB
:1048B0001EF0001EF0001C60000C60000C60000088
:1048C00000000000000000000000000000000000E8
:1048D00000000000000000000000000000000000D8
:1048E0000000000000003E7C003E7C000C30000612
:1048F000600003C00001800003C0000660000C30AF
:10490000003E7C003E7C0000000000000000000033
:104910000000000000000000000000000000000097
:1049200000000000000000000000000000007E1FEA
:10493000007E1F00180C000C18000C180006300038
:1049400006300003600003E00001C00000C0000169
:1049500080000180000300003FC0003FC000000055
:104960000000000000000000000000000000000047
:104970000000000000001FF8001FF80018300018A9
:10498000600000C0000180000300000618000C1841
:10499000001FF8001FF800000000000000000000E9
:1049A0000000000000000000000000000000000007
:1049B000000000E00001E0000180000180000180B3
:1049C00000018000018000018000038000070000DA
:1049D000038000018000018000018000018000014F
:1049E000800001E00000E000000000000000000086
:1049F00000000000000000000000018000018000B5
:104A00000180000180000180000180000180000120
:104A10008000018000018000018000018000018091
:104A20000001800001800001800001800001800001
:104A30000000000000000000000000000000000076
:104A40000000070000078000018000018000018055
:104A50000001800001800001800001C00000E00032
:104A600001C0000180000180000180000180000180
:104A70008000078000070000000000000000000028
:104A80000000000000000000000000000000000026
:104A90000000000000000000000000000E00001FE9
:104AA00018003BB80031F00000E0000000000000FA
:104AB00000000000000000000000000000000000F6
:104AC000000000000000000000000000F04A0008A4
:104AD0000000002018000000BA2F0008084B000852
:104AE0001800002060060000CA2F00080000000027
:104AF0000000000014300008110018000024F40029
:084B000001000000100000009C
:04000005080001AD41
:00000001FF
