:020000040800F2
:10000000C06B0020C101000885280008F11B000812
:100010008128000809030008D93400080000000006
:100020000000000000000000000000007D3100081A
:10003000B903000800000000B5280008B13100082D
:10004000DD340008DB010008DB010008DB010008EB
:10005000DB010008DB010008BD030008DB0100082C
:10006000DB010008DB010008DB010008DB01000800
:10007000DB010008DB010008DB010008DB010008F0
:10008000DB010008DB010008DB010008DB010008E0
:10009000DB010008DB010008DB010008DB010008D0
:1000A000DB010008DB010008DB010008DB010008C0
:1000B000DB010008DB010008DB010008DB010008B0
:1000C000DB010008DB010008DB010008DB010008A0
:1000D000DB010008BD340008DB010008DB0100087B
:1000E000E5030008DB010008DB010008DB01000874
:1000F000DB010008DB010008DD320008DB0100083D
:10010000DB010008DB010008DB010008DB0100085F
:10011000DB010008DB010008CD320008DB0100082C
:10012000DB010008DB010008DB010008DB0100083F
:10013000DB010008DB010008DB010008DB0100082F
:10014000DB010008DB010008DB010008DB0100081F
:10015000DB010008DB010008DB010008DB0100080F
:10016000DB010008DB010008DB010008DB010008FF
:10017000DB010008DB010008DB01000800000000D3
:10018000DB010008DB010008DB010008DB010008DF
:10019000DB010008DB010008DB010008DB010008CF
:1001A000DB010008DB010008DB010008DFF80CD0F0
:1001B00000F098F800480047755D0008C06B00200B
:1001C0000648804706480047FEE7FEE7FEE7FEE7F1
:1001D000FEE7FEE7FEE7FEE7FEE7FEE7B1320008D6
:1001E000AD0100082DE9F05F0546002092469B46D0
:1001F00088460646814640241BE02846414647463D
:10020000224600F05EF853465A46C01A914110D378
:1002100011461846224600F045F82D1A67EB0108F2
:100220004F4622460120002100F03CF817EB000960
:100230004E41201EA4F10104DFDC484631462A4627
:100240004346BDE8F09FD2B201E000F8012B491E01
:10025000FBD270470022F6E710B513460A46044663
:100260001946FFF7F0FF204610BD421C10F8011B95
:100270000029FBD1801A704730B50B46014600209B
:100280002022012409E021FA02F59D4205D303FA58
:1002900002F5491B04FA02F52844151EA2F10102D9
:1002A000F1DC30BD202A04DB203A00FA02F1002004
:1002B00070479140C2F1200320FA03F319439040A4
:1002C0007047202A04DB203A21FA02F0002170470F
:1002D00021FA02F3D040C2F12002914008431946AE
:1002E00070470000064C074D06E0E06840F001034F
:1002F00094E8070098471034AC42F6D3FFF75AFF52
:100300002038030840380308FEE70000B0B5D0E904
:1003100000CE049DDCF8444045EA034304F0404429
:100320002343BEF5403FCCF84430CCF83C201CBF02
:10033000CCF80C10B0BD806801F47F0301F47F425B
:1003400003285FFA81FE08D8DFE800F033021523A6
:1003500021F07F41CCF83810B0BD4FF4704000EA76
:1003600011406FF0FF0101EA1331F02303EA12227A
:1003700040EA1E101BE04FF4784000EA13206FF0B3
:100380001F0101EA521140EADE000144CCF83810A6
:10039000B0BD4FF4004000EA11404FF4F84101EACB
:1003A00053216FF01F0303EA921240EADE00084473
:1003B0008118CCF83810B0BD7047000043F61440E7
:1003C000C4F201000168C90708BF704741F6144133
:1003D000C4F202010A6882F480520A6001210160BD
:1003E0007047000043F61440C4F20100016889041C
:1003F00058BF704741F61441C4F202010A6882F402
:1004000000620A604FF40051016070472DE9F0412D
:100410000B680268012B1FD1D1E9073422F4F8429E
:10042000D1E901E7D1E90365D1E9058C496A1A43AD
:1004300022431143426847F6FF739A4342EA0E0291
:100440003A4332432A4342EA080242EA0C0201607C
:1004500042600020BDE8F08147F6FF7322EA030CFA
:10046000D1E90132D1E903E443EA0C0301F11408B4
:100470001A4398E8E00142EA0E0222432A4332433B
:10048000496A3A4342EA0802114301600020BDE88C
:10049000F0810000F0B581B000250095144691E888
:1004A0008C00C9681A436FF01F0303EB47131A430C
:1004B00042EA4121009100990646016100F0B0FA3C
:1004C000B169890612D50746651C02E0B06980064D
:1004D0000BD5002DFAD034B100F0A2FAC01BA04217
:1004E000F4D9032502E0032500E00025284601B0E9
:1004F000F0BD00002DE9F0418368012A37D140F6B4
:10050000FF72CFF60F721A40CB684FF20006CFF69B
:10051000FF764F6906EB03330026CFF6F07606EB45
:1005200007571A43C36842EA070CD1E900768D6881
:100530006FF00F0203F0704302EB06126FF0FF063C
:10054000013F0C6906EB052600253B43CFF6FF75FE
:1005500089691A4305EB0445324301392A4342EACB
:100560000161C0F808C0C1600020BDE8F08103F05F
:10057000704CD1E90032D1E902E401F110084FF2E8
:100580000001013B6FF00F07CFF6FF7198E86001A3
:1005900007EB02126FF0FF0701EB0431002443EA7E
:1005A0000C0307EB0E27CFF6FF741A4304EB054547
:1005B00000243A43CFF6F074114304EB0656294366
:1005C000A8F10104314341EA046181600020BDE8E3
:1005D000F081000070B540F29E06C2F2000632784B
:1005E0000D4604461AB902F063FC01203070280A57
:1005F0005E21484350FA85F049F2402100EBC000EB
:10060000CFF6797101EB80104FF4AA0101EBE00104
:100610002046482202F0BAFB002070BDB0B590F829
:100620003820012A4FF0020241D0012380F83830EF
:1006300080F8392000EB0112D2E9073E556A02F139
:10064000180C43EA0E42093B2C06022B38BF05F07A
:100650007F440029016842EA040E11D0CA694FF6AE
:10066000F074C0F2FC04224042EA0E02CA61DCF8D7
:100670000020012B0A619CBF25F07F420A6210E036
:100680004A6A4FF6F074C0F2FC04224042EA0E02BD
:100690004A62DCF80020012B8A619CBF25F07F4272
:1006A0008A620121002280F8391080F83820104633
:1006B000B0BD0000002804BF0120704710B50446FB
:1006C00090F8390028B9002084F83800204600F05E
:1006D0001DF8022084F8390094E80710036823F419
:1006E000403319430160416B21F00701114341631D
:1006F000016C43F6FF72914341EA0C010164002052
:100700000121E06384F8391010BD0000704700003B
:10071000F0B581B004460020009020680D460068C6
:10072000C00734D000F07CF921684A6892072ED4C3
:10073000064648680090009810F0210F12D00098EB
:10074000800603D5E06B40F00200E0630098C0072C
:1007500003D0E06B40F00100E063212088600120BD
:1007600004215AE06F1C00BF37B100F059F9002D89
:100770005AD0801BA84257D821684868800706D401
:1007800048680090009810F0210FEDD0D7E720685E
:10079000C169406A084380063AD500F041F92168F2
:1007A0004A68D20634D4064648680090009810F093
:1007B000290F19D00098000703D5E06B40F0040022
:1007C000E0630098800603D5E06B40F00200E06330
:1007D0000098C00703D0E06B40F00100E0632920DF
:1007E00088600120042118E06F1C00BF2FB100F0C9
:1007F00017F905B3801BA8421DD821684868C006B8
:1008000006D448680090009810F0290FEED0D1E788
:100810002068122181600020012184F83910002114
:1008200084F8381001B0F0BDE06B032140F02000E7
:10083000E0630320F1E7E06B032140F02000E06378
:100840000320EAE7B0B582B0054690F838000128E9
:100850004FF0020011D0DDF818C0012485F83840AF
:1008600085F839002846CDF800C0FFF74FFD28680D
:10087000016841F001010160002002B0B0BD00003C
:100880002DE9F04F83B000F13E4202F1FF724FEAD2
:10089000B22242F200470192C4F202070A22012664
:1008A00000254FF000084FF00009B84208BF0922A8
:1008B000009209E009F1010908F10408B9F1100FEB
:1008C00005F1020500F0A3800C6806FA09FB14EAA2
:1008D0000B0CEFD0D1F804A0BAF1120F17D806FA1A
:1008E0000AF414F0061F12D084680322CF6802FABB
:1008F00005FE24EA0E04AF40274387604768CAF329
:10090000001427EA0B0704FA09F42743476003227F
:10091000C76802FA05F48A68A743AA403A434AF036
:1009200010076FEA040E122FC26010D16FF003029D
:1009300002EA59020244176A08F01C060F230C69E8
:10094000B34027EA0303B44001262343136202683D
:100950004B6802EA0E0203F00307AF403A43DB00A4
:100960000260A7D5002243F644030292C4F20203B8
:100970001A6843F6004442F480421A601A68C4F2CE
:10098000010402F480420292029A29F003024FF617
:10099000084A2244CFF6FF7A52F80A3008F00C07D2
:1009A0000F26BE4023EA060E019B009E092B38BF8E
:1009B0001E4606FA07F747EA0E0342F80A30226895
:1009C0004B6842EA0C07DE0358BF22EA0C07276097
:1009D00062689E0342EA0C0758BF22EA0C07676070
:1009E000A268DE0242EA0C0758BF22EA0C07A760A1
:1009F00043F60C47C4F201073A689B024FF0010628
:100A000042EA0C0358BF22EA0C033B6052E703B0F2
:100A1000BDE8F08F002A08BF09048161704700001B
:100A200042F2B870C2F200000068704740F2140051
:100A300042F2B871C2F20000C2F2000100780A6806
:100A40001044086070470000B0B540F21402C2F2D2
:100A5000000240F210011278C2F200014FF47A73E2
:100A60000968B3FBF2F20446B1FBF2F1084600F06C
:100A7000ABFE0F2C4FF001050CD858B94FF0FF30EA
:100A800021460022002500F0DBF840F21800C2F2F7
:100A9000000004602846B0BD2DE9F041044690F8FE
:100AA000A00001284FF0020008BFBDE8F0814FF020
:100AB000010884F8A08084F8A100342002FB0040E3
:100AC000D1E900CED1E90267D1E90453C0E912535C
:100AD000C0E91067C0E90ECED1E906CED1E90865BC
:100AE000D1E90A73C0E91873C0E91665C0E914CEEC
:100AF0000B6B8366204601F027FE2068C0F8248037
:100B0000002084F8A18084F8A000BDE8F0810000F6
:100B1000002804BF0120704710B5044690F8A100DA
:100B200028B9002084F8A000204600F063F80220D5
:100B300084F8A100D4E9000CD4E90223816921F0F2
:100B40007041816142EA0C012269194383691143B2
:100B50001943816181684FF6000CCFF2000C01EA65
:100B60000C018160D4E90513826843EA0141114315
:100B70008160C16801EA0C01C160D4E90712C36851
:100B800042EA01411943C160016901EA0C010161B6
:100B9000D4E90912036942EA01411943016141693B
:100BA00001EA0C014161D4E90B12436942EA0141B7
:100BB0001943416194F8351094F83620C36A120441
:100BC00003F07F43C36242EA012194F83420C36AF0
:100BD00011441943C162416B41F0060141638169CF
:100BE00041F00101816100200121C4F8A40084F8D2
:100BF000A11010BD7047000070B5044690F8A00029
:100C000001284FF0020008BF70BD342302FB0345EA
:100C1000012605F1380384F8A06084F8A100E96496
:100C20002046194601F090FD20684662002084F8B5
:100C3000A16084F8A00070BD80B502F057FC80BDB3
:100C400070B514460D46064602F060FC2946224661
:100C500001F01AFE0146304602F060FC70BD000053
:100C600070B582B00020019043F64000C4F202004B
:100C70000168402641F0805101600068C4F20E26F0
:100C800000F080500190019847F204050120C4F261
:100C900000053060FFF7C4FE044600BF2868C003AB
:100CA00006D4FFF7BDFE001BB0F57A7FF6D90EE043
:100CB00001207060FFF7B4FE044600BF286880037F
:100CC00008D4FFF7ADFE001BB0F57A7FF6D90320FC
:100CD00002B070BD002002B070BD00002020C4F240
:100CE0000E20012101607047F0B581B00446007804
:100CF00043F6700610F0430FC4F2020634D06827A2
:100D0000C4F2472700203860FFF78AFE054600BF7F
:100D100056F8700C000105D5FFF782FE401B022833
:100D2000F6D993E02068C10740F09380810700F175
:100D30009980400608D5E168D4E90102090641EA34
:100D4000801040EA0270706101203860FFF768FE91
:100D5000054600BF56F8700C000105D4FFF760FE91
:100D6000401B0228F6D971E0207810F00C0F49D012
:100D70006827C4F247270020B860FFF751FE0546F8
:100D800056F8700C800005D5FFF74AFE401B02287C
:100D9000F6D95BE02068410713D5B169D4E9042393
:100DA00001F0E04141EA821141EA0361256AB16143
:100DB000F1696FF0FF0221F4F85102EB05221143B3
:100DC000F16100070FD5B069216900F07060A26978
:100DD00040EA811040EA0270636AB061F06920F471
:100DE00040301843F0610120B860FFF719FE054656
:100DF00056F8700C800005D4FFF712FE401B022845
:100E0000F6D923E02078800670D50020009056F8AF
:100E1000300C47F2000740F0805046F8300C56F88E
:100E2000300CC4F2000700F0805000900098386841
:100E300040F480703860FFF7F3FD05463868C00560
:100E400025D4FFF7EDFD401B0228F7D9032001B0A0
:100E5000F0BDD4E90121090741EA821171618107DE
:100E60007FF567AF7169626801F0E041E36841EACC
:100E7000821141EA0361E5697161F1696A1E21F03D
:100E80001F011143F16140063FF555AF5CE7306843
:100E900010F4407013D0A16A01F4407188420ED062
:100EA000306840F64061C4F24721012220F44070CE
:100EB0000A6000220A6030603068C00727D1A06A4B
:100EC00056F8681C4FF6FF4300F4407221F4F81105
:100ED000C0F6FF730340B2F5407F08BF194346F8E0
:100EE000681C31686FF31F30084330602078C006FB
:100EF00002D4002001B0F0BD94F82C0040F640610F
:100F0000C4F24721C1F8A003002001B0F0BDFFF7F3
:100F100087FD054641F2883730688007CFD4FFF758
:100F20007FFD401BB8424FF00300F5D9EDE700000C
:100F30002DE9F04381B043F60807C4F202070446E6
:100F4000386840F29C28C2F20008002CC8F8000063
:100F50007DD0D7F8F803894600F00F00884207D209
:100F600087F8F893D7F8F80300F00F0048456ED1E2
:100F7000206881071BD5400703D5386840F4E0504E
:100F800038603868C8F800002078000703D5386852
:100F900040F4604038603868C8F800003868A168DC
:100FA00020F0F000084338603868C8F80000207866
:100FB000C00744D1D7F8F80300F00F00484507D91F
:100FC00087F8F893D7F8F80300F00F0048453ED1B2
:100FD0002078400708D53868E16820F4E0500843DD
:100FE00038603868C8F800002078000709D53868EC
:100FF000216920F4604040EAC10038603868C8F8D0
:10100000000000F079F8396846F6E012C1F30311E8
:10101000C0F60002515CC84040F21001C2F200016B
:10102000086040F21800C2F2000039680068C8F891
:101030000010FFF709FD002001B0BDE8F0836068F3
:10104000811E022907D257F8081C890109D4012002
:1010500001B0BDE8F08301281ED157F8081C8903B0
:10106000F5D5396821F0030108433860FFF7D8FC53
:10107000064641F2883500BF3868616800F00C0010
:10108000B0EB810F96D0FFF7CBFC801BA842F3D9C1
:10109000032001B0BDE8F08357F8081C8907D6D5B6
:1010A000DFE7000040F21000C2F200000068704765
:1010B00080B5FFF7F7FF43F60801C4F202010968A3
:1010C00046F6F012C1F38221C0F60002515CC8401E
:1010D00080BD000080B5FFF7E5FF43F60801C4F2CC
:1010E0000201096846F6F012C1F34231C0F600026F
:1010F000515CC84080BD000010B543F60404C4F242
:101100000204606800F00C0008280AD0042819BF07
:1011100042F20040C0F2F40047F64000C0F27D10F9
:1011200010BD206821682368490247F64001C0F2DB
:101130007D1100F03F02C3F388105CBF42F2004112
:10114000C0F2F401A1FB00010023FFF74BF8216876
:101150000222C1F3014102EB4101B0FBF1F010BDED
:101160002DE9F04182B0002800F097800446007815
:1011700043F60006C007C4F2020641D0B06800F092
:101180000C00042805D13068800339D56068B8BBED
:1011900083E0B06800F00C00082802D170684002BB
:1011A000F1D46568B5F5803F06D03068B5F5A02F5D
:1011B00006D140F480203060306840F4803005E093
:1011C00020F480303060306820F480203060FFF7F9
:1011D00027FC002D054610D03068800310D4FFF79F
:1011E0001FFC401B6428F7D91AE100BFFFF718FC69
:1011F000401B64284FF003004CD830688003F5D4BE
:10120000207880071AD5B06810F00C0F09D0B068AC
:1012100000F00C00082840F084807068400200F163
:1012200080803068800702D5E068012835D13068B9
:10123000216920F0F80040EAC10030602078000702
:101240002FD42078400742D4A56915B3B06800F0C8
:101250000C00082840F09880012D1ED07068E169CC
:1012600000F480028A4218D1216A00F03F028A42CB
:1012700013D147F6C071626A014091420DD1A16A53
:1012800000F440328A4208D1E16A00F0706088427E
:1012900003D1002002B0BDE8F081012002B0BDE81A
:1012A000F0816069002840F20000C4F247205AD063
:1012B0000121C0F8801EFFF7B3FB0546706F800761
:1012C000BFD4FFF7ADFB401B0228F7D9A8E0306C74
:1012D0004FF00008C0000CD4CDF80480306C4FF003
:1012E000010840F080503064306C00F08050019074
:1012F000019847F20007C4F200073868C00525D4FA
:10130000386840F480703860FFF78AFB054600BFFC
:101310003868C0051AD4FFF783FB401B0228F7D9B1
:101320007EE0E068002851D00020C4F2472001216F
:101330000160FFF775FB0546306880073FF577AF22
:10134000FFF76EFB401B0228F6D969E0A568012D66
:1013500005D0306F052D4DD140F004003067306F5F
:1013600040F001004CE00021C0F8801EFFF758FB60
:10137000054600BF706F80077FF563AFFFF750FB36
:10138000401B0228F6D94BE00027C4F24727002073
:101390003866FFF745FB022D05460BD1306880010A
:1013A00056D5FFF73DFB401B02284FF00300F5D94F
:1013B00070E700BF306880017FF56BAFFFF730FB4F
:1013C000401B02284FF00300F4D963E70020C4F269
:1013D000472000210160FFF723FB054630688007A6
:1013E0007FF52CAFFFF71CFB401B02284FF00300DA
:1013F000F4D94FE720F001003067306F20F004008F
:101400003067FFF70DFB002D054641F2883713D0FA
:10141000306F800713D4FFF703FB401BB842F7D9A6
:10142000032002B0BDE8F081FFF7FAFA401BB84292
:101430004FF003003FF62EAF306F8007F4D4B8F1C1
:10144000000F3FF401AF306C20F080503064FBE6B9
:1014500004F11C052FCD084340EA8210D9034FF652
:10146000FF729143A1F5803140EA05600843706046
:1014700001203866FFF7D4FA044600BF30688001C7
:101480003FF507AFFFF7CCFA001B02284FF003002F
:10149000F4D9FFE670B500680C4643684FEA134084
:1014A000C870C3F3042603F03F054E708D70C3F37C
:1014B000423121700AB1002070BDC0B201F0FCF9C8
:1014C000E070304601F0F8F96070284601F0F4F958
:1014D000A070002070BD000070B500680C46836AE3
:1014E0004B6001694FF040036FF3DF31A160016889
:1014F000C1F305402070C1F3062601F07F0503EA21
:1015000011416670A570E1700AB1002070BD01F054
:10151000D3F92070304601F0CFF96070284601F011
:10152000CBF9A070002070BD002804BF01207047D7
:1015300010B50446407F20B900202077204600F0F7
:1015400043F8022060772068CA214162532141623A
:10155000204601F00BFA216810B1012004222FE08F
:1015600088684FF6BF72CFF68F721040886004F122
:10157000040E9EE80150D4E9042310438A681843FE
:1015800010438860C1F810E0086940EA0C40086127
:10159000C86820F08000C8608868800605D42046AE
:1015A00000F014F808B12168D7E72168A0690A6C37
:1015B00022F480220A640A6C10430864002001228D
:1015C000FF234B62627710BD70470000B0B5044640
:1015D0000068C16821F0A001C160FFF721FA05464B
:1015E0002068C068800607D4FFF71AFA401BB0F5E0
:1015F0007A7FF5D90320B0BD0020B0BD002804BF1C
:1016000001207047B0B5044690F82C000D4628B96B
:10161000002084F82D00204600F012F8022084F803
:101620002C002068211DFEF7F1FED4E900022946B6
:10163000FEF760FF012084F82C000020B0BD000000
:1016400070470000B0B5044690F82C0002284FF017
:10165000020008BFB0BD84F82C0020680D46FEF7DC
:1016600019FF2868012102284FF0000008BF05215A
:1016700084F82C10B0BD0000002804BF0120704782
:1016800010B5044690F8510028B9002084F85000A5
:10169000204600F035F8022084F8510094E8071045
:1016A0001143036841EA0C0123F0400303602269FF
:1016B0001143D4E9052341EA020C03F40072E16905
:1016C00042EA0C0242EA010C226AA16A42EA0C02D6
:1016D0000A4302604FF0040C626A0CEA13431A4397
:1016E0004260B1F5005F04BFE16A0161C16921F4A4
:1016F0000061C16100200121606584F8511010BDB6
:10170000F0B585B0002143F630000091C4F202002C
:10171000026841F2004442F02002026002680126A1
:1017200002F020020092009A00910268C4F20204C2
:1017300042F02002026002686D4602F02002009230
:10174000009A00910268052742F0200202600268B8
:1017500002F020020092009A0091026842F02002FA
:101760000260026802F020020092009A0091416932
:1017700041F4801141614069294600F480100090D5
:1017800000988020009002200190CDE90260204660
:101790000497FFF775F84FF48070009020462946B3
:1017A0000497FFF76DF84FF400700090204629462B
:1017B0000497FFF765F84020CDE90006204629464A
:1017C000FFF75EF805B0F0BD80B501F0D9FC80BD33
:1017D0007047000070470000B0B5007F012837D186
:1017E00040F2C814C2F200042046002100F0FEF8C6
:1017F00040F2A005C2F2000528602046042100F056
:10180000F5F8296840F2A402C2F200020029106033
:1018100008BFB0BD64225043643000EE100A481C7B
:1018200001EE100AB8EE400AB8EE411A80EE010A45
:101830009FED082A40F28C0082EE011AC2F20000ED
:1018400080ED000A40F29800C2F2000080ED001A1C
:10185000B0BD00BF0024744910B50446006801699A
:10186000890744BFC1685FEA817138D42068016983
:10187000490744BFC1685FEA41713CD420680169EF
:10188000090744BFC1685FEA017141D4206801695A
:10189000C90644BFC1685FEAC16145D420680169D7
:1018A000C9071CBFC1685FEAC1714AD120680169DC
:1018B000090644BFC1685FEA016149D42068016933
:1018C000490644BFC1685FEA416148D420680169A4
:1018D000890644BFC1685FEA816147D410BD6FF0DB
:1018E00002010161012121778069800745D02046EE
:1018F000FFF772FF47E06FF00401016102212177D9
:10190000806910F4407F41D02046FFF765FF43E037
:101910006FF00801016104212177C06980073ED082
:101920002046FFF759FF40E06FF0100101610821E8
:101930002177C06910F4407F3AD02046FFF74CFF72
:101940003CE06FF001010161204600F03FF8ADE797
:101950006FF0800101612046FFF73AFFAEE76FF0BC
:1019600040010161204600F05BF8AFE76FF0200115
:1019700001612046FFF72EFF10BD204600F022F83F
:10198000204600F021F8002020776FE7204600F085
:1019900019F8204600F018F8002020776EE720465E
:1019A00000F010F8204600F00FF8002020776DE7D7
:1019B000204600F007F8204600F006F800202077C7
:1019C0006CE70000704700007047000040F20821FB
:1019D000C2F20001884218BF704741F61440C4F2B9
:1019E0000200016881F48061016070474FEAB10133
:1019F000032984BF00207047DFE801F0020E060AC9
:101A0000006834300068704700683C3000687047F8
:101A100000684030006870470068383000687047E0
:101A200070470000002804BF0120704710B504462D
:101A300090F8390028B9002084F83800204600F0DA
:101A400021F8242084F839002068C16821F400516D
:101A5000C160204601F04AFC2068016921F49041F0
:101A60000161416921F02A014161C16841F40051DD
:101A7000C16000202021E06384F8391084F83A1016
:101A800010BD0000B0B586B00020019043F63000D4
:101A9000C4F202000168002441F001010160006805
:101AA000C4F2020400F00100019001984FF40070AC
:101AB000019002200290012003900720059003204E
:101AC00001AD049020462946FEF7DAFE4FF480600F
:101AD000019020462946FEF7D3FE25200021012251
:101AE000FFF7AEF82520FFF7A7F806B0B0BD00005D
:101AF0002DE9F041044690F8390020280DD10E461A
:101B000000294FF0010052D01746002A08BFBDE857
:101B1000F08194F83800012802D10220BDE8F0815C
:101B2000012084F838004FF0000821201D46C4F839
:101B30003C8084F83900FEF773FFA784E78484F8BB
:101B40003880E18C804661B92046402142462B46D0
:101B500001F082FC38B30320BDE8F081E08C00285E
:101B6000F2D0E08C80210138E084A768204642460C
:101B70002B4601F071FCB7F5805F0DD10028EAD14A
:101B80003088216922686FF35F200029506014BFFC
:101B900001360236E2E700BF0028DCD116F8010B5F
:101BA00021684860DAE7202084F839000020BDE889
:101BB000F081000041F61840C4F202004FF080614D
:101BC00001604FF0006101604FF480510160704787
:101BD00080B501684A68920508D58A68D20708BFAF
:101BE00080BD6FF001028A60FFF7E4FF80BD000056
:101BF000FEE70000F0B583B040F22001C2F2000120
:101C00000C6840F2A801C2F20001342204FB021168
:101C10000646CD6D00F096FB074600F0A1FB03469B
:101C200000200090204629463A46019600F044FDE7
:101C300003B0F0BD10B540F2A800C2F20000006889
:101C400040F600448169C4F2020441F0010181615F
:101C5000204610210122FEF7DDFE204680210122D0
:101C6000FEF7D8FE10BD00002DE9F04F97B00646F4
:101C70004009182804915CD8DDF880B01C469046D5
:101C80004FEA520A28E000BF203807320B68C0B282
:101C9000C988D208504300FB013700200290112070
:101CA000182152462346009700F088FC4FF00109A6
:101CB000574642F2BC70C2F200000499219D009088
:101CC000B0B23A462346019500F036F83E44B0B231
:101CD000B0F5487FCB442CD29BF8000048B340F2CB
:101CE0002001C2F20001096840F2740201EB4101D7
:101CF000C2F2000202EB810189688A8893199BB2C3
:101D0000934216D38128BFD3BBF8000005AD00BABB
:101D1000010C2846FEF75EFC0120029018201821D5
:101D200042462346009500F049FC4FF00209474621
:101D3000BFE717B0BDE8F08F2DE9F04F85B00E4634
:101D400019460293CBB3DDE90E1540F2200840F2AC
:101D50007409074654420023C2F20008C2F2000987
:101D6000019205E002980133834206F1010624D076
:101D7000002AF7D0A1F1010A4FF0FF3BCDE9033172
:101D8000D8F800101AF8010F01EB41010BF1010B1B
:101D900009EB81010BEB0703A84208BF04310A6875
:101DA00098B2B1B200F00CF804EB0B000130E7D1AF
:101DB000019A0499039B1144D4E705B0BDE8F08F64
:101DC0002DE9F04F81B040F22008C2F20008D8F8A7
:101DD000003040F2A807C2F20007342603FB067465
:101DE0009146A26C0E46072A054651D8DFE802F05C
:101DF000111E045004505004342003FB0070C46DC5
:101E000000F0A0FA00FB065024F8109001B0BDE8E5
:101E1000F08F342003FB0070C46D00F093FA00FBD8
:101E2000065044F8209001B0BDE8F08F07F1380467
:101E30004FF0340A03FB0A404FEA194B476A00F09F
:101E400081FA00FB065000EB4000384480F802B0F5
:101E5000D8F800004FEA192B00FB0A40476A00F04F
:101E600071FA00FB065000EB4000384480F801B0E6
:101E7000D8F8000000FB0A40446A00F063FA00FB57
:101E8000065000EB400000F8049001B0BDE8F08F70
:101E9000E46D00F057FA7043611901F8009001B049
:101EA000BDE8F08F2DE9F04F85B0002143F63000FA
:101EB0000091C4F20200026841F6000B42F0800279
:101EC00002600268C4F2020B02F080020092009AE3
:101ED000009102680BF5806742F0800202600268A0
:101EE0006C4602F080020092009A009102684FF066
:101EF0000E0A42F0800202600268022602F08002AE
:101F00000092009A00910268012542F002020260EC
:101F1000026802F002020092009A0091026842F008
:101F200001020260026802F001020092009A009130
:101F3000026842F001020260026802F001020092AF
:101F4000009A0091026842F002020260026802F008
:101F500002020092009A0091026842F04002026080
:101F6000026802F040020092009A0091026842F07A
:101F700010020260026802F010020092009A0091C2
:101F8000026842F010020260026802F01002009241
:101F9000009A0091026842F080020260026802F03A
:101FA00080020092009A0091026842F040020260B2
:101FB000026802F040020092009A0091026842F02A
:101FC00040020260026802F040020092009A009112
:101FD000026842F480720260026802F48072009229
:101FE000009A0091026842F004020260026802F066
:101FF00004020092009A0091026842F4807202602A
:10200000026802F480720092009A0091026842F025
:1020100010020260026802F010020092009A009121
:10202000026842F040020260026802F04002009240
:10203000009A0091026842F008020260026802F011
:1020400008020092009A0091026842F008020260C1
:10205000026802F008020092009A0091026842F4BD
:1020600080720260026802F480720092009A00910D
:10207000026842F001020260026802F0010200926E
:10208000009A0091026842F002020260026802F0C7
:1020900002020092009A0091026842F0020202607D
:1020A000026802F002020092009A0091026842F077
:1020B00040020260026802F040020092009A009121
:1020C000026842F480720260026802F48072009238
:1020D000009A0091026842F480720260026802F481
:1020E00080720092009A0091026842F02002026021
:1020F000026802F020020092009A0091026842F009
:1021000008020260026802F008020092009A009140
:10211000016841F0080101600068214600F00800F4
:10212000009000980220039001900120029004206A
:1021300000903846CDF810A0FEF7A2FB08200090D2
:1021400038462146CDF810A0FEF79AFB4FF4807078
:10215000009038462146CDF810A0FEF791FB0920EB
:10216000ABF5A05904904846214600950925FEF795
:1021700087FB4FF40060ABF5C05800904046214605
:10218000CDF810A0FEF77CFB4FF480500090404645
:102190002146CDF810A0FEF773FB48462146009675
:1021A0000495FEF76DFB40200090584621464025DF
:1021B000CDF810A0FEF764FB2020ABF50066009080
:1021C00030462146CDF810A0FEF75AFB3046214696
:1021D0000095CDF810A0FEF753FB4FF4005000908F
:1021E00038462146CDF810A0FEF74AFB4FF4806038
:1021F00000900920049058462146FEF741FB4FF419
:102200000040009038462146CDF810A0FEF738FB7C
:1022100001200BF50067009038462146CDF810A04C
:10222000FEF72EFB80200090ABF580502146CDF8C4
:1022300010A0FEF725FB0420009038462146CDF87B
:1022400010A0FEF71DFB10200090304621461025FF
:10225000CDF810A0FEF714FB4FF4805000905846C4
:102260002146CDF810A0FEF70BFB4020ABF54066F1
:10227000009030462146CDF810A0FEF701FB4FF448
:102280000060009058462146CDF810A0FEF7F8FAFD
:10229000384621460095CDF810A0FEF7F1FA082047
:1022A000009040462146CDF810A0FEF7E9FA4FF421
:1022B0008070009048462146CDF810A0FEF7E0FA65
:1022C0004FF4007848462146CDF80080CDF810A0A4
:1022D000FEF7D6FA80200090584621464FF080093C
:1022E000CDF810A0FEF7CCFA4FF4806538462146B1
:1022F0000095CDF810A0FEF7C3FA38462146CDF878
:102300000080CDF810A0FEF7BBFAABF58060214647
:102310000095CDF810A0FEF7B3FA1020009002202F
:1023200003900120CDE9010030462146FEF7A8FACE
:1023300030462146CDF80090FEF7A2FA05B0BDE880
:10234000F08F000040F22000C2F20000006840F26E
:10235000A801C2F20001342200FB0210006E704797
:1023600040F22000C2F20000006840F2A801C2F270
:102370000001342200FB0210406E7047B0B58EB0F1
:1023800000F064FC08200290C02006900520089010
:102390004FF480300B9002A8FEF7A6FCFFF782FDF9
:1023A000002143F630000191C4F2020042692E235D
:1023B00042F080624261426940F2F71402F08062AA
:1023C0000192019A019102684FF4597C42F4000293
:1023D0000260006846F6000200F4000001900198D7
:1023E00040F2A800C2F20000C4F20102C0E90021DC
:1023F000172200F12005C0E90211C0E90411C0E96B
:10240000061340F24E3340F20D2E85E81C5080F842
:10241000361080F8351080F834104FF448714FF4BE
:10242000F072C0E91812FEF773FB40F20400C2F22A
:10243000000000F09BF800204FF0504100224FF0C8
:10244000504500F02FF8FFF77DFF0446FFF788FFA7
:10245000604305EB80010120002200F023F8FFF724
:10246000E9FB002000F064F84FF07F40FFF7C2FB6B
:10247000012000F05DF84FF07F40FFF7BBFB00202C
:10248000FF2100F091F80120002100F08DF80020DC
:1024900000F04EF84FF0FF304FF07F4100F05EF853
:1024A0000EB0B0BDF0B58DB0002715460E460446FF
:1024B0000097FFF747FFCDE90107FFF751FFCDE98F
:1024C0000305FF200996CDE905074FF4C06007908A
:1024D0000720ADF830708DF832700890FFF732FFAA
:1024E0000A90FFF73DFF40F2A805C2F200050B90ED
:1024F000694628462246FEF7CFFA40F2740104EB03
:102500004400C2F2000140F2040701EB80024FF0E8
:10251000FF33C2F20007C2E901374FF07F422B6858
:1025200041F82020586A40F0010058620DB0F0BD1B
:1025300040F22001C2F200010860704740F2200121
:10254000C2F20001096840F2740201EB4101C2F2DB
:10255000000202EB810148607047000010B50C4694
:1025600000F014F82046FFF7E9FF10BD40F220010B
:10257000C2F20001096840F2740201EB4101C2F2AB
:10258000000202EB810188607047000040F22001E8
:10259000C2F20001096840F2740201EB4101C2F28B
:1025A000000242F82100704780B5024640F2A800C0
:1025B000C2F20000FEF720FB80BD00002DE9F04FC5
:1025C000ADF2044D0F46064601A84FF480619946CE
:1025D0009246FDF73FFE1F2E6AD807FB06F0013832
:1025E00040F2FE31884263D809FB0AF0013843F615
:1025F000FE7188425CD82FB3DDF83014DDF8280472
:10260000002901A94FF0000208BF01EB860102E09A
:102610000132BA4216D0002EFAD002EB4203C5189E
:102620006C78C35CAD78240244EA03431D44002364
:1026300005FA03F4C4F3C054CC5401339E42F7D1DD
:102640001944E5E7B9F1000F32D03804310490FBAA
:10265000F9F091FBFAF142F2BC7300F1010C013187
:10266000CAF10002C2F200034FF0000B4FF0000E5F
:1026700006E000BF0BF1010BE644CB45534417D0F5
:10268000BAF1000FF6D04FEA1E4001AC00FB064045
:1026900000254FF0FF3400BF2F0CC75D03EB04088B
:1026A000013488F80170171901370D44F4D1E1E7BE
:1026B0000DF2044DBDE8F08FF0B581B0074640F251
:1026C0002000C2F200001546006840F2A8021C4635
:1026D000C2F20002342300FB03220E46069940F2A8
:1026E0003400926CC2F200004FF44033042A43607D
:1026F00098BF8260C1604BF20001C4F20201016028
:10270000FDF7D8FF08B101B0F0BD40F23400C2F2CD
:1027100000003946FDF782FF0028F4D1079940F206
:102720003400C2F2000032462B460094FEF78AF8CD
:102730000028E8D140F23400C2F200006421FDF725
:10274000E7FF01B0F0BD0000F0B50468D1E900CEAC
:1027500004EBC2108B68CD68E668D0F888200027AB
:1027600002F47042C0F88820E268C0F6FF77C2F336
:102770000B423E40624406EB0E4601323243C0F843
:102780008820E268D0F88C606FF3DF2206F4704690
:10279000C0F88C60E4682A446FF3DF2423440133DB
:1027A00043EA0242C0F88C20D0F8942022F00702BD
:1027B000C0F894200B69C0F8943091F8322091F859
:1027C00031408D69D0F89C6000261204C0F89C60EE
:1027D00091F8307042EA042242EA05623A44C0F8B5
:1027E0009C20D0F8982040F2077422F0FF02C0F835
:1027F00098204A69072BC0F89820D0F8A020AEEBAB
:102800000C0722EA0402C0F8A020D1E9074500F134
:10281000840244EA0504C0F8A040D0F8AC40C0F8F7
:10282000AC604C6AC0F8AC409ABF0DA050F82300D1
:102830000120D36A03F0E023D362D1E90A31434394
:102840007843033040EA0340D062106B40F2FF73DC
:10285000984310631163106840F001001060F0BDF0
:10286000040000000300000002000000020000005D
:102870000200000001000000010000000200000052
:10288000FEE700007047000000F0070080F007033B
:10289000042B28BF04234FF0FF3C03380CFA03F34A
:1028A00038BF0020994381400CFA00F022EA000072
:1028B0000843704770470000010901EB810100F0F7
:1028C0000F0000EB4100C0B27047000070B598B037
:1028D00040F2501442F60000C2F20004C4F20000BC
:1028E0002060002543F640000C95C4F20200016808
:1028F00041F080510160006800F080500C900C980D
:10290000FEF7ECF90C200C9001260CA812950E96FF
:102910001195FEF725FC202000904FF480700A905E
:102920006846FEF7E1F940F63C60C4F247200660D5
:102930002046FEF74BFE7F20FF21C4E901502046D0
:10294000E160FEF7F1FD10B102A004F037F818B015
:1029500070BD00BF0A0D2052544320CAB1D6D3B374
:10296000F5CABCBBAFCAA7B0DC200D00B0B50446A9
:102970000068C168490611D44FF0FF31C160FEF70D
:102980004FF805462068C068400607D4FEF748F8AF
:10299000401BB0F57A7FF5D90320B0BD0020B0BD53
:1029A0002DE9F04F85B0002143F630000091C4F2CC
:1029B0000200026841F2000542F020020260026853
:1029C0004FF0010A02F020020092009A0091026882
:1029D000C4F2020542F010020260026805F580664A
:1029E00002F010020092009A009102686C4642F0D8
:1029F000400202600268022702F040020092009A40
:102A00000091026842F004020260026802F00402CF
:102A10000092009A0091026842F08002026002680F
:102A200002F080020092009A0091016841F00801D2
:102A300001600068214600F0080000900098022024
:102A40000190CDE902A00C2004903046CDF800A002
:102A5000FDF716FF304621460097FDF711FF4FF0B6
:102A6000040B30462146CDF800B0FDF709FF0820E1
:102A7000009030462146FDF703FF102730462146DF
:102A80000097FDF7FDFE4FF0200830462146CDF8B7
:102A90000080FDF7F5FE4FF40060009030462146BF
:102AA000FDF7EEFE4FF48050009030462146FDF7D2
:102AB000E7FE4FF40050009030462146FDF7E0FE5F
:102AC0004FF48040009030462146FDF7D9FE4FF488
:102AD000004930462146CDF80090FDF7D1FE05F5BE
:102AE000006630462146CDF800A0FDF7C9FE022061
:102AF000009030462146FDF7C3FE30462146CDF812
:102B000000B0FDF7BDFE30462146CDF80090FDF740
:102B1000B7FE304621460097FDF7B2FE304621460B
:102B2000CDF80080FDF7ACFE4FF4807B30462146A7
:102B3000CDF800B0FDF7A4FEA5F500602146CDF864
:102B400000A0FDF79DFE402005F540660090304650
:102B50002146FDF795FE8027304621460097FDF778
:102B60008FFE28462146CDF800A0FDF789FE022001
:102B7000009028462146FDF783FE2846214600970F
:102B8000FDF77EFE28462146CDF800B0FDF778FE21
:102B90004FF4007828462146CDF80080FDF770FEFE
:102BA0004FF48067284621460097FDF769FE4FF4F1
:102BB0000060009028462146FDF762FE4FF48050E9
:102BC000009028462146FDF75BFE4FF40050009030
:102BD00028462146FDF754FE4FF4804628462146FC
:102BE0000096FDF74DFE28462146CDF80090FDF7F2
:102BF00047FEA5F58065284621460096FDF740FE74
:102C000028462146CDF80090FDF73AFE2846214699
:102C1000CDF800A0FDF734FE0220009028462146A2
:102C2000FDF72EFE28462146CDF800B0FDF728FE20
:102C300028462146CDF80080FDF722FE2846214691
:102C40000097FDF71DFE05B0BDE8F08FB0B588B068
:102C5000FFF7A6FE4FF0000C43F63800CDF804C095
:102C6000C4F202000268012342F00102026000681F
:102C700040F2401200F001000190019842F2807091
:102C8000C2F20000CAF2000208214FF0100E4024E8
:102C90004FF4C075C0E90023C0E90231C0E904E483
:102CA000C0E9065C4FF4006200F1200C4FF4805341
:102CB0004FF400558CE82C000222CDE901210521BA
:102CC00003910721CDE9041201A9CDE90622FEF7FF
:102CD00095FC00F003F808B0B0BD00002DE9F0430A
:102CE00081B040F2240442F28075C2F20004C2F2C4
:102CF00000054FF0010908274FF00008284621463B
:102D00004FF6FF72C4E90097C4E90298FEF79AFCF7
:102D100000F026F8022084E88102284621464FF67A
:102D2000FF72C4F80C80FEF78DFC03200426C4E972
:102D30000007284621464FF6FF72C4E90268FEF7F5
:102D400081FC40F2312084E8C002E0602846214640
:102D50004FF6FF72FEF776FC01B0BDE8F08300008D
:102D600082B00120019000200090019848F2A061FB
:102D7000C0F2010148430090009828B10098013842
:102D8000009000980028F9D102B07047F0B581B0EA
:102D900041F218470546C4F202074FF4800038603C
:102DA000032014460E4600F05BF9300E00F058F98F
:102DB000C6F3074000F054F9C6F3072000F050F9BD
:102DC000F0B200F04DF94CB1013D00BFFF20013CD5
:102DD00000F046F9002C05F8010FF7D140203860CB
:102DE00001B0F0BD2DE9F0410446080690460D46BD
:102DF00002F47F4026D00028C5F100063DD0F2B293
:102E0000A8EB0208204629464FEA182700F094F85C
:102E100055FA86F5380654FA86F40CD02046294631
:102E20004FF48072013F00F087F805F58075380691
:102E300004F58074F2D15FFA88F2002A08BFBDE879
:102E4000F08114E060B34FEA182738060DD000BFB8
:102E5000204629464FF48072013F00F06DF805F5D9
:102E60008075380604F58074F2D15FFA88F2204646
:102E7000294600F061F8BDE8F0815FFA88F0F7B20A
:102E8000B8420DD9204629463A4608EB050600F01F
:102E900053F87919E019F2B200F04EF8BDE8F0816C
:102EA00020462946424600F047F8BDE8F081000080
:102EB00010B540F27014C2F2000445F20000002187
:102EC0000722C4F20100C4E90811C4E90A124FF450
:102ED00082720223C4E9000204F110004FF0010CD9
:102EE0004FF4007EC4E9021180E808502046E161F9
:102EF000FEF7C2FB2068016841F04001016000F06C
:102F000001F810BD70B541F21844C4F202044FF448
:102F100080051520256000F0A3F8FF2000F0A0F840
:102F20004026C007266018BF70BDB720256000F09E
:102F300097F8266070BD0000F0B581B041F21847E7
:102F400014460E460546C4F2020700F0DDF84FF4C1
:102F500080003860022000F083F8300E00F080F826
:102F6000C6F3074000F07CF8C6F3072000F078F8BD
:102F7000F0B200F075F8B4F5807F04D90AA003F030
:102F80001DFD4FF4807444B1013D00BF15F8010FE1
:102F9000013C00F065F8002CF8D14020386000F0CA
:102FA00091F801B0F0BD00BF3C3C2D464C41534868
:102FB0002D4552524F522D3E3E205350495F464CB4
:102FC0004153485F50616765577269746520746F3B
:102FD0006F206C61726765210000000070B541F2DE
:102FE0001846C4F202064FF4800030609F2000F0C3
:102FF00037F8FF2000F034F80446FF2000F030F8E6
:103000000546FF2000F02CF82A0242EA0442402143
:103010001044316070BD0000B0B5044600F074F893
:1030200000F050F841F21845C4F202054FF4800058
:103030002860202000F014F8200E00F011F8C4F3EE
:10304000074000F00DF8C4F3072000F009F8E0B2E3
:1030500000F006F84020286000F034F8B0BD000011
:1030600010B540F20C01C2F200014FF480520A6028
:1030700040F27012C2F20002126800BF93689B0710
:103080000AD40B685C1E002B0C60F7D100200024D2
:1030900000F056F8E0B210BDD0604FF480500860E8
:1030A0009068C0070AD10868431E00280B60F7D15A
:1030B000012000F045F80024E0B210BDD468E0B271
:1030C00010BD0000B0B541F21844C4F202044FF440
:1030D000800020600520FFF7C3FF40F20C05C2F21C
:1030E00000054FF480502860FF20FFF7B9FF2968E2
:1030F0004A1E2A6021B1C007F6D140202060B0BD31
:10310000042000F01DF8B0BD10B541F21844C4F21F
:1031100002044FF4800020600620FFF7A1FF40204A
:10312000206010BD10B541F21844C4F202044FF4FF
:1031300080002060AB20FFF793FF4020206010BD8F
:1031400080B5014601A003F05FFA80BD3C3C2D46EE
:103150004C4153482D4552524F522D3E3E20535024
:103160004920B5C8B4FDB3ACCAB1216572726F72A3
:10317000436F6465203D2025640A0000704700000D
:10318000B0B501380024B4EB106F1CBF0120B0BDF6
:103190004EF21005CEF2000568604FF0FF300F21AF
:1031A00000F0BCF90720AC6028602046B0BD0000EC
:1031B00080B5FDF73BFC42F2B470C2F2000001782A
:1031C000012915D142F2B571C2F200010A7801322B
:1031D000D3B2962B0A7031BF0122002202700A700E
:1031E00042F20000C4F202004FF40061FDF712FC4D
:1031F00040F2A020C2F200000078002808BF80BD85
:1032000040F2A120C2F2000001780131017080BDBE
:1032100070B592B006AC20463021FDF71BF80025B2
:1032200043F640000595CDE90355CDE901550095DC
:10323000C4F202000168022641F08051016000687A
:1032400000F080500090009847F200000095C4F212
:103250000000016841F440410160006800F4404012
:1032600000900098012006904FF4803007904FF4B2
:1032700080000D9019200E904FF4B4700C96CDE99B
:103280000F06072011902046FDF76AFFFDF7E8FCC6
:103290000F20CDE901064FF4A05004904FF4805068
:1032A000059001A805210395FDF742FE12B070BDFF
:1032B0004EF68850CEF20000016841F470010160C2
:1032C0004FF0006140F8801C7047000080B540F26C
:1032D0000820C2F20000FEF7BFFA80BD80B540F2C0
:1032E000C810C2F20000FEF7B7FA80BDB0B50546BF
:1032F000006805F108030ECB0469194324F4405417
:10330000224302616A69EB691143C26849F20C64A5
:103310001943A2431143C1604169AA6921F4407174
:103320001143416141F20041B3F5004F40F4806028
:10333000C4F2010124D1884246D1FDF7CBFE6B686F
:103340001921A0FB01015A00DB0FFCF74BFF48F2EB
:103350001F51C5F2EB11A0FB01235A096FF0630363
:1033600002FB0300322303EBC000A0FB01014FF47A
:10337000F87000EA111000EB0210C1F3421167E08F
:10338000884244D1FDF7A6FE6B681921A0FB01011C
:103390009A009B0FFCF726FF48F21F51C5F2EB1174
:1033A000A0FB01235A096FF0630302FB03003223E1
:1033B00003EB0010A0FB0101F02000EA511000EB2C
:1033C0000210C1F3431143E0FDF772FE6B6819214F
:1033D000A0FB01015A00DB0FFCF704FF48F21F516C
:1033E000C5F2EB11A0FB01235A096FF0630302FB46
:1033F0000300322303EBC000A0FB01014FF4F8707F
:1034000000EA111000EB0210C1F3421120E0FDF7B9
:103410004FFE6B681921A0FB01019A009B0FFCF77E
:10342000E1FE48F21F51C5F2EB11A0FB01235A093E
:103430006FF0630302FB0300322303EB0010A0FBD9
:103440000101F02000EA511000EB0210C1F343111A
:103450002A6808439060B0BD2DE9F0410446006839
:1034600000680840884202D10020BDE8F0811D4676
:103470000E4690465F1C04E0206800683040B04271
:10348000F2D0002FF8D02DB1FDF7CAFAA0EB08005A
:10349000A842F1D92068C16821F4D071C1604169A6
:1034A00021F001014161202084F8390084F83A00BC
:1034B000002084F838000320BDE8F08140F2482065
:1034C000C2F2000000680168890658BF7047416871
:1034D000C9B2416070470000FEE7000080B540F2CD
:1034E0008820C2F20000FEF773FB80BD002848BFB1
:1034F000704700F01F01012202FA01F14EF20012A2
:103500004009CEF2000242F8201070474EF60C50EF
:10351000CEF200000068C0F3022070474EF614534C
:1035200000F00F02CEF2000309011A4400F16043DB
:10353000B0F1FF3FC8BF03F564421170704700004F
:1035400080B586B0002043F630010190C4F202013C
:103550000A6842F480720A60096801F4807101917E
:1035600001994FF4006101910121CDE9021042F26D
:103570000000C4F2020001A9FDF782F906B080BD87
:1035800010B50446002020714FF0FF30E062204665
:1035900002F0DCFD00281CBF032010BDB4F82E0291
:1035A0004AF6552188421CBF022010BD94F86720BE
:1035B00094F8683094F86610120244F2461042EA19
:1035C0000342C0F254001144814204BF002010BDE8
:1035D00094F8832094F8843094F88210120242EA1E
:1035E00003421144081A18BF012010BD421E00BF3B
:1035F00012F8010F002818BF8842F9D17047000067
:1036000042690239023A914224BF00207047827811
:10361000806A01FB020070472DE9F04F81B08946B6
:10362000498B19B1002001B0BDE8F08F804699F8B0
:1036300000000D2100F03F00484348F2B04AA0F1DD
:103640000D0400250120C0F6000A4FF6FF7B04E0C0
:103650005E45E7D101350D2D15D01AF8051000286B
:1036600039F80160F4D0FE2CDCD8304601F02AFF96
:1036700038F814100746084601F024FF8742D1D1DC
:1036800001343046E6E700281CBF99F8000010F02E
:10369000400003D1012001B0BDE8F08F38F81400DC
:1036A0000028BFD1F6E70000F0B581B00D46044612
:1036B00041B12046294602F0DBF9022809D2012057
:1036C00001B0F0BDE76867B16069874228BF012794
:1036D00008E0411C1ED061692F46884202D201B029
:1036E000F0BD01273E4600BF60690136864228BF13
:1036F000022601D3022F0AD32046314602F0B8F940
:10370000411CECD050B10128E9D0BE42ECD10020E0
:1037100001B0F0BD4FF0FF3001B0F0BD20463146A2
:103720006FF0704202F068FD014635B129B92046BC
:103730002946324602F060FD014631B101200129DF
:1037400008BF4FF0FF3001B0F0BD2069E660411CBA
:1037500005D061790138206141F001006071304687
:1037600001B0F0BD2DE9F04F85B00E688B4600BF6B
:1037700031785C2918BF2F2901D10136F8E7337859
:10378000D0F81C80202B4FF00002049038BF01229B
:10379000202B4FF000044FF001013CD30FF22C29F5
:1037A0004FF0000A0025D8B22F2818BF5C2831D06E
:1037B000BAF1FF0F44D003F17F02D2B27D2A01D9C2
:1037C0000D460DE071560235CAB2B1F1FF3F42EA33
:1037D000002005DB6FF03F0252FA81F13E292FD81D
:1037E000012101F033FE58B307467F2804D848462C
:1037F0003946FFF7FBFE18BB28F81A70735D0AF113
:103800000104691C202B4FF00002A24638BF0122A0
:10381000C9D200E0544612F0010706EB010018BFC0
:103820000427CBF800005CB108EB440131F8020C2E
:103830002E2818BF202807D1013CA1F10201F5D1A3
:10384000062005B0BDE8F08F0498002580690D8042
:1038500020210B2202F082FB38F815002E2818BF19
:10386000202801D10135F7E7A8F10200002D18BF8B
:1038700047F003073CB130F81420611E2E2A0C4695
:10388000F8D1481C00E00020DDF810A00290A0F163
:1038900001090823002200205C1E834604E000BFCB
:1038A00081450CD047F0030738F815602846202ED4
:1038B00005F10105F6D02E2EF2D0002E5ED09B45EC
:1038C0004CD281454AD0802E0ED3304603925E46BC
:1038D0009B4601F0F7FD002101F0B8FD039A5B461D
:1038E000B346064647F00207B6F5807F05D3A345E9
:1038F00015D347F003079B46D6E766B136A031469D
:103900000392CDF804B09B46FFF770FE5B46DDF8EE
:1039100004B0039A88B147F003075F2606E0DAF89F
:103920001800310A00F80B100BF1010BDAF818102F
:103930000BF1010001F80B60AFE7A6F1410080B286
:10394000192802D842F00202F0E7A6F1610080B225
:1039500019289CBF42F00102203EE7E70B2B47F0FD
:1039600003010AD0814518BF0F4602998D4205D840
:1039700092000B2308200D468EE70F46DAF8180058
:103980000178E52904BF05210170082B08BF9200CA
:1039900002F0030102F00C00032947F0020208BF05
:1039A00017460C2808BF1746BA0707D4012908BFD5
:1039B00047F01007042808BF47F00807DAF8180096
:1039C000C772002005B0BDE8F08F00BF222A3A3C44
:1039D0003E3F7C7F000000002B2C3B3D5B5D0000E8
:1039E00070B50C460021054600F042FA18B10428D3
:1039F00008BF072070BD002609E000BF0136A642BF
:103A0000F5D02846012100F077F80028EFD128688A
:103A1000296902F09BFB0028E9D169690978E52949
:103A2000ECD00029EAD00026EBE700002DE9F043B6
:103A300081B00021044600F01BFA054618B1284663
:103A400001B0BDE8F0834FF6FF794FF0FF30FF275C
:103A50004FF0FF08208400BF2068216902F076FB48
:103A600005460028EBD166693178E52908D00029A0
:103A70003ED0F07A020700F03F000BD50F2809D0A6
:103A8000A4F82090FF272046002100F035F80028F8
:103A9000E2D02FE00F281AD1E0690028F3D04A06BF
:103AA00006D596F80D80E28801F0BF010F4622840A
:103AB000FAB29142E6D1717B8845E3D13146FFF7F6
:103AC000ABFD013F002808BF4FF0FF37DBE73806AA
:103AD00004D1304602F0DCFC8045B0D0A169C87A40
:103AE000C007CDD1304602F019FA0028C8D1A6E7A8
:103AF0000425A4E70546A2E72DE9F0410446C08865
:103B0000471C380459D02269002A56D020680E4636
:103B100041894909B7FBF1F303FB117179B12068C1
:103B200000264189E7804909B7FBF1F202FB1171D8
:103B300000EB4110303060613046BDE8F081E16853
:103B400001322261C1B18278013A1A42E7D101F013
:103B50008FFF02283CBF0220BDE8F08105460130FE
:103B600011D0206841698D4210D220682946E56055
:103B7000FFF746FD2061D2E70089874224BF042079
:103B8000BDE8F081CBE70120BDE8F081AEB1E1688E
:103B9000FFF78AFD05460130032811D24FF6F87170
:103BA000C0F2FF0101EAC00040F20171C0F202015F
:103BB00021FA00F0C0B2BDE8F0810420BDE8F08138
:103BC000206802F0B5FC00281CBF0120BDE8F08190
:103BD00020680021428930304FF0000802F0BEF921
:103BE000266829463046FFF70BFD2168F0628A7887
:103BF0008AB14FF00008012608460E7102F098FCC9
:103C0000002899D1216808F10108C86A8A78013032
:103C10009045C862F0D3C86AA0EB0800C862A4E768
:103C2000F0B581B001690446C9B3FF26FF2700BF84
:103C3000206802F08BFA0546A0BB6169087880B362
:103C40002E2821D0E5281FD0CA7A02F01F03082BA6
:103C50001AD002F03F020F2A2BD1420605D54E7B27
:103C6000E28800F0BF0007462284FAB290420BD1EE
:103C7000487B864208D1E06902F088FA013F0028BB
:103C800008BF4FF0FF3700E0FF2720460021FFF775
:103C900033FF054630B921690029C9D102E0042566
:103CA00000E00425002D1CBF00202061284601B043
:103CB000F0BD380604D1084602F0EAFB8642F1D096
:103CC0004FF6FF702084EDE72DE9F04784B0D0E98E
:103CD0000676804601A839460C2202F031F99DF89B
:103CE0000FA05FEACA7004D15FEA8A7024D401246D
:103CF00030E0002001240DF10409F872C8F81C001E
:103D0000384649463246234601F058FE4046FFF702
:103D10008DFE054618B90134642CF1D16424642C5D
:103D200001D107253CE0042D3AD187F80BA0C8F853
:103D30001C605FEA8A70DAD5B11E182031F8022FB4
:103D40000130002AFAD14EF64F41C4F6C461A0FBFF
:103D500001018C0840462146FFF742FE054618B394
:103D6000F5B9D8F80000D8F8101002F0EFF90546C0
:103D7000B0B9D8F814000021202202F0EFF8D8E9F9
:103D800005010B2202F0DCF8D8F81800D8F814105E
:103D9000C07A00F018000873D8F800000121017102
:103DA000284604B0BDE8F087013CD9D0B8F8060039
:103DB000011B404600F05CF805460028D0D1D8F839
:103DC000180002F065FB0646012700BFD8F8000086
:103DD000D8F8101002F0BAF9A0B9D8F81410D8F831
:103DE0001C00E2B2334601F05FFDD8F8000000216C
:103DF00007714046FFF780FE05460028B0D1013C20
:103E0000E4D1ADE70546ABE72DE9F041018C04466E
:103E1000C6884FF6FF708142204608BF314600F049
:103E200027F8002818BFBDE8F0814FF0E50801270A
:103E30002068216902F08AF9054698B96069002175
:103E4000202202F08BF8606980F80080E088216809
:103E5000B0420F7106D220460021FFF74DFE002828
:103E6000E6D00546042D08BF02252846BDE8F081AE
:103E7000F0B581B08668C180012E42D0044600684A
:103E80000D4641698E423CD2EEB11EB34189807825
:103E9000490901FB00F72068AF4203D93146FFF71B
:103EA000AFFB1CE0314601F0E3FD064601302BD0AC
:103EB000022E26D320684069864222D2ED1B20685C
:103EC000BD42EFD2EAE7017803290CBF466A00261B
:103ED000002EDBD10189A94213D9406A0026E66091
:103EE00078B121684A895209B5FBF2F303FB1252FB
:103EF000184401EB42113031C4E90401002001B043
:103F0000F0BD022001B0F0BD012001B0F0BD000005
:103F100001281CBF0120704780B5FEF7C9FFFFF7DD
:103F200001F9012000F02CF880BD000001281CBF21
:103F300004207047032908D002290BD001291CBF97
:103F4000002070474FF47A4001E04FF48030106059
:103F5000002070474FF48050108000207047000010
:103F600001281CBF0420704780B54FF0807000EB23
:103F7000023C1A0308466146FEF708FF002080BD98
:103F800001281CBF0120704780B5FFF727F844F2D5
:103F90001901C0F2EF01401A18BF012080BD0000D6
:103FA00070B501284FF0040011D11D46002B08BF49
:103FB00070BD4FF0807000EB023630460C46FFF7C4
:103FC0002BF82A0320463146FEF70CFF002070BD77
:103FD00010B5044601F0C6F8002818BF10BD2046F1
:103FE00002F0FCFA002804BF0021216010BD00008F
:103FF00010B5044602F0F2FA002804BF0021216047
:1040000010BD00002DE9F04F83B016460D4602901A
:1040100002A91046002201F009FB8046002864D165
:10402000D6F800B0DBE90447B81E84425CD99BF89F
:1040300000A00095BAF1010F15D10024022705E078
:104040000134DBF814000137874244D25846394620
:1040500001F00EFD0028F3D0411C3AD00128F0D128
:104060004FF0020837E0DBF820900BF130000190B0
:1040700000240020002113E08D78CE784B782D04A9
:104080000A7866F31B6545EA032313446FF00302C5
:104090000425002B294408BF0134013F10441AD0E5
:1040A00020B1BAF1020FE7D10EE000BF58464946F1
:1040B00002F04CF8804670B9BBF80A00019909F18A
:1040C0000109BAF1020FD7D10B886FF00102022566
:1040D000DFE74FF001089BF80500009D40F001006C
:1040E000CBF810408BF805002C605FFA88F003B025
:1040F000BDE8F08F2DE9F0410E46044602F06EFA5D
:10410000074610B13846BDE8F081E57915B128467B
:10411000BDE8F081E068B04203D2A179890758BFB9
:104120000646A1684FF00008002EC4F8088056D05B
:1041300020688278438903FB02F539B1721E013988
:10414000B2FBF5F2B1FBF5F39A4204D2216931B327
:10415000616131B941E0684208406169A060361A86
:10416000D9B3AE4229D9A2792068920703D401F0CD
:104170007FFC014603E0FFF797FA0146D8B1481CDF
:1041800017D002295FD32068406981425BD2A068C2
:10419000761B2844AE426161A060E4D80DE00021A6
:1041A000FFF782FA0146013003D001294BD021618B
:1041B000CEE7012548E000212E462068A368428909
:1041C0003344B6FBF2F5A36005FB12622AB1FFF798
:1041D00017FAC0B305EB000801E04FF000082068B3
:1041E000A1684289B1FBF2F303FB1211E9B1A269A4
:1041F00090451AD0A17949060BD5407804F12401E5
:1042000001230125FFF7CCFEF0B9A07900F0BF0033
:10421000A071214651F8240B424640780123012524
:10422000FFF79EFE80B9C4F81880D4E902018842E5
:104230007FF668AFA179E06041F020003D46A071B3
:104240002846BDE8F08102252846E571BDE8F081E9
:104250002DE9F04FADF50D7D8C9001F087FC814686
:1042600083A88CA9012201F0E1F90646002840F05C
:10427000A08080A8899068468C998A9083A801F0D4
:104280004BFB0646002808BF0826042E40F091800C
:10429000839F002138460026FFF706FA002808BF52
:1042A00007260128804608BF0226013008BF0126E4
:1042B00016B1002E59D105E0384602F039F906460C
:1042C000002E52D138464146FFF79AF97A8907F114
:1042D000300B05465846002101F040FE584620218B
:1042E0000B2201F03BFE102087F83B004FEA19201B
:1042F00087F847004FEA194087F848004FEA1960ED
:104300002E2487F849005846414687F8304087F800
:10431000469002F0B7F807F1500A5046594620225D
:1043200001F00EFE38788599032887F8514003D1B3
:10433000786A081A08BF0146504602F0A3F8BC7814
:104340009CB14FF0010A00BF3846FD6287F804A017
:1043500002F0EEF8064640B97A8958460021013548
:1043600001F0FCFD013C2006EED12EB156B1839840
:10437000414601F0F1FF1CE083A8FFF7A5FC0646CB
:10438000002EF4D188981021C1724FEA1921C1750D
:104390004FEA194101764FEA19614176414680F8AA
:1043A000169002F06FF883980121017102F082F8F3
:1043B000064630460DF50D7DBDE8F08F2DE9F04F36
:1043C0008DB001290C9001D913272BE00CA81646BB
:1043D0000D4601F063FC00281DD440F29001C2F2AA
:1043E000000151F820A0BAF1000F16D0C4B200218C
:1043F00020468AF80010FFF78BFDC1070FD1400758
:104400000FD40AF10A09204602214A46FFF78EFD21
:1044100060B1012706E00B2704E00C2702E0032728
:1044200000E00A2738460DB0BDE8F08FB9F800006B
:10443000A0F50070B0F5606F01D90127F2E70AAA74
:10444000204601210127FFF771FD0028EAD10A98D3
:104450008028E7D34FF0000C002DA6F1010108BF22
:104460004FF03F0C0E42A0EB0C0E18BF0026CDF80B
:1044700028E0C6B9B9F800104FF4FA62490AB2FB55
:10448000F1F14EF28433BEFBF1F248F2BE41C0F6C8
:104490000001C0F601030439023B33F8027F023108
:1044A000BA42FAD34E88B6F5007F03D3B9F80010AC
:1044B000B6FBF1F6002E08BF0126802E28BF80260D
:1044C000BEFBF6F340F6F57101208B424FF6F57115
:1044D00088BF02208B424FF6F67188BF03208B42C3
:1044E00007900AD3B9F800104FF0200801EB8302BF
:1044F0000732B2FBF1F0002217E0012806D103EBEE
:1045000043010131032202EB510102E0042101EBDE
:104510004301B9F800204FF0010811440139B1FB03
:10452000F2F04FF48041B1FBF2F208EB0C07394690
:10453000391801EB020BA6EB0C0159448E4509908A
:104540000597069201D20E276CE70BAA204603219D
:104550000893CDF810C0FFF7E9FC20B90B9801389B
:10456000B0F5004F01D301200B900B9B08980BEB8B
:1045700003024FF6F571013A5B4288424FF0000C9E
:1045800002EA030288BF4FF0010CA2EB0B03884242
:104590004FF000010B934FF6F57288BF194601EBFF
:1045A0000807DDE9098B904298BF9844069A039763
:1045B000ABEB0203DB1BA3EB0803079AB3FBF6F09C
:1045C000931E40F6F677B3FA83F3B8424FF0000734
:1045D0004FF6F6724FF0000E4FEA531338BF012723
:1045E000904238BF4FF0010E3B424FF00E0702BF22
:1045F000CDE90001CDF824801CEA0E007FF412AF53
:10460000089A4FF6F570824201D90C270BE006207C
:10461000BBF5803F38BF0420074638BF0127079904
:10462000012918BF0746002D00F0C5804FF0F00BA0
:104630004FF6F6700025824238BF0125BAF80A20ED
:104640000AF13007384600214FF0000801F086FCDF
:10465000C2A138460B22029701F072FCBAF80A0098
:1046600069008AF83B00000A8AF83C0003988AF83F
:104670003D608AF83E00000A8AF83F000120AAF84F
:1046800040000A988AF84210B8EB104F14BFCAF8DD
:104690005000AAF843003F200499C0F2FF00CAF876
:1046A000480000208AF845B08AF84C10AAF84D005E
:1046B0008AF84F0001F05AFA089A4FF6F6718A42CA
:1046C0000B901FD30999CAF87300080A8AF855009D
:1046D000080C8AF85600080E8AF857000220CAF81B
:1046E0005C000120C0F20600CAF8600080208AF851
:1046F000700029208AF854108AF872000AF17700B5
:104700009EA110E0CAF85700099897A18AF84600C0
:10471000000A8AF8470080208AF8540029208AF885
:1047200056000AF15B00132201F00AFC4AF65520FC
:104730000299049AAAF82E02204601230127FFF7C6
:104740002FFC089900287FF46DAE4FF6F670814279
:104750000598019901EB000806D304980299821D7F
:1047600020460123FFF71CFC07986FF0FF05012886
:10477000B9F8002004BF4FF60075C0F2FF0502989B
:10478000002101F0EBFB08994FF6F5708142CDF85E
:104790002CB059D96BF0FF000B904FF0FF30CAF8E6
:1047A0003100CAF83500AAF839000F208AF830B075
:1047B0008AF83B0054E0BAF80A200AF1300528468E
:1047C00000214FF0000B01F0C9FB0A98049945F253
:1047D0005B620144C0F21552A1FB022340F20112B8
:1047E000C91AAAF8EF21FE2203EB51013F238AF8F0
:1047F000F3214A0B43EAD1318AF8F411010A8AF80D
:10480000FA018AF8FB11010C000E8AF8FD014AF644
:1048100055200B928AF8F521CAF8F6318AF8FC1176
:10482000AAF82E0220462946002201238AF8F1B177
:104830008AF8F2710127FFF7B3FB089A00287FF48A
:10484000F1AD4FF0F80BF3E645EA0B01280E0B91A2
:104850004FF6FF718AF830B0AAF831108AF83300A9
:10486000DDF808B020465946424601230127FFF7EC
:1048700097FB00287FF4D6ADB9F8002058460021F8
:1048800001F06CFB08F10105DDF824800B97B8F10D
:10489000020F0FD30127204659462A460123FFF76E
:1048A0007FFB00287FF4BEAD0B98013501304045F9
:1048B0000B90F0D308994FF6F570DDF818800127BA
:1048C000814288BFB046204659462A460123FFF759
:1048D00067FB00287FF4A6ADB8F1010805F10105DA
:1048E000F1D108994FF6F67081422DD345F252204E
:1048F000C4F26110CAF8300047F27220C6F24110CB
:10490000CAF814020098049D0138010A8AF81802B6
:104910008AF81912010C000E8AF81B020220029E6E
:10492000CAF81C024AF655208AF81A12AAF82E0272
:104930006A1C204631460123FFF732FBEA1D204660
:1049400031460123FFF72CFB204600210022FFF710
:10495000EDFA0746002818BF012763E5EBFE904DEE
:1049600053444F53352E30004E4F204E414D45207D
:104970002020204641542020202020004E4F204E51
:10498000414D452020202046415433322020200034
:10499000B0B584B00546039001A81446CDE90111D5
:1049A00001F07CF900281CD440F29001C2F2000111
:1049B00051F82020002A1CBF00231370002D1CBFBB
:1049C00000222A70039A012C41F820204FF00000A9
:1049D00005D122B103A802A9002200F027FE04B0ED
:1049E000B0BD0B2004B0B0BD2DE9F047ADF50E7D94
:1049F0008D9160B3044600201646206002F01E022E
:104A000084A88DA900F012FE054600286AD181A86D
:104A10008A9001A88D998B9084A806F01F0A00F057
:104A20007BFF899E0546002E08BF0625002818BF7B
:104A300005461AF01C0F0CD0D5B1042D03D184A863
:104A4000FFF742F90546899E4AF0080A1DE009254C
:104A500048E0002D44D1F07AC1060FD4C0072846A3
:104A600018BF07205FEA8A7148BF0546CDBB48E002
:104A7000F07A10F0110F04D0072506E0042585BB5D
:104A80003FE05FEA4A7048BF08254DBB1AF00800B6
:104A900026D001F06BF8849FB073010A020C030E5C
:104AA000B0750020F173F175F072F061384631464F
:104AB000327473743276737601F018F9804630469A
:104AC000002101F0DFFC0120B8F1000F387107D0A0
:104AD000D7F82C903846414601F03EFC38B10546E7
:104AE0007DB1C5B128460DF50E7DBDE8F087A8F172
:104AF0000100F8603846494601F028FB0546002DC4
:104B0000EFD184980AF00801C06A4AEA810AC4E930
:104B10000706002DE6D1849F4FF000083846314645
:104B200084F806A084F8078001F0E0F82061F069BD
:104B3000C4E90280C4F818802760F888A080D1E713
:104B4000B0B5ADF5067D8591D0B1044684A885A9A0
:104B5000002200F06BFD054620BB849885992060FB
:104B600081A801AAA0612046E26100F0D5FE0546B9
:104B7000A8B9616951B1C87AC00603D4052505E01A
:104B8000092513E0849801F0B1F8A0603DB984983C
:104B90000021C088A0802046FFF76AF90546042D51
:104BA00008BF0525002D1CBF0020206028460DF5FC
:104BB000067DB0BD82B02DE9F04F9BB00290002081
:104BC000CDE9030024A815AC0D461A90601E0DF126
:104BD0000808CDE9242301902E4616F8011B25294B
:104BE00008D0002900F00F81404601F097FB3546C0
:104BF000F2E700BF6978302904D02D2907D14FF0A2
:104C0000020E01E04FF0010EA978033502E00235F3
:104C10004FF0000EA1F13000C0B24FF0000B092898
:104C20000ED800BF0BEB8B00400050FA81F015F856
:104C3000011BA0F1300BA1F13002D2B20A2AF1D34C
:104C400041F020006C2804BF15F8011B0EF1040E82
:104C5000002900F0D880A1F16100C0B21A280B46EB
:104C60006FF0410038BF203B50FA83F016281DD862
:104C70000222DFE800F05F1F240C0C0C0C0C0C0C63
:104C80000C0C0C260C0C0C280C240C0C5E00FFE702
:104C9000FFE7FFE7FFE7FFE7FFE7FFE7FFE7FFE7E4
:104CA000FFE7FFE7FFE7FFE7FFE7FFE7404601F029
:104CB00035FB91E71A98011D1A910178F6E70A224F
:104CC00038E0082236E01A980022011D1A91066881
:104CD000B05C1146002802F10102F9D15FEA8E7042
:104CE000A2F1010A0CD4DA45924609D20BF1010A6D
:104CF000ABEB01074046202101F010FB013FF9D149
:104D0000307848B1013E00BFC1B2404601F006FB19
:104D1000B07801360028F7D1DA45BFF45DAFABEBD0
:104D20000A0600BF4046202101F0F8FA013EF9D101
:104D300052E710221A980026071D1A976FF04307B2
:104D4000006857FA83F3B3FA83F35F09002848BF7A
:104D5000012617EA060C4FF0000318BF40427829DD
:104D60004FF0070108BF2721B0FBF2F603F1010A5B
:104D700006FB1207092F88BF0F4430378242E754E1
:104D800003D80F2B53463046EED3BCF1000F18BFAB
:104D90000EF1080E5FEA0E7042BF2D2004F80A00E3
:104DA0000AF1010A019C5FEACE704FF0300608BF9D
:104DB00020261EF00208D1460CD15046584500F17D
:104DC000010907D202A8314601F0A8FAB8F1000F94
:104DD0004846F3D00DF1080814F80A104046AAF12D
:104DE000010A01F09BFABAF1000FF5D1D94515ACD3
:104DF000BFF4F2AEABEB09074046314601F08EFA44
:104E0000013FF9D1E8E6039A002A10D4029808F18C
:104E10000C0119AB00F048FA00284FF0FF3008D120
:104E20001999DDE903238A4208BF184601E04FF0D3
:104E3000FF301BB0BDE8F04F02B070472DE9F04FD6
:104E400081B004460020186020469A4616468B46DC
:104E500001F0C4FB08B9E07910B101B0BDE8F08FF2
:104E6000A079C00703D1072001B0BDE8F08FD4E9D5
:104E70000201081AB04238BF0646002E00F08B80AF
:104E800004F1240000902AE02068009940784A4606
:104E90000123FFF765F8002840F08380C4F81890DC
:104EA0002068A1684089B1FBF0F202FB1011451A9D
:104EB0006018B54288BF354600F1240158462A469D
:104EC00001F03EF8A068AB442844A060DAF8000086
:104ED000761B2844CAF800004FF00000BDD02068BF
:104EE000A1684389B1FBF3F202FB1313002BD7D166
:104EF0008378FF3303EA02085FEA08620CD129B124
:104F0000616900F0B5FD012803D848E02069012857
:104F100045D9411C45D06061276861693846FEF774
:104F20006FFBE0B3798950FA88F98E4210D2A269FA
:104F30004A45B3D0A0794006A6D5787800990123D8
:104F4000FFF72EF868BBA07900F0BF00A0719BE7C7
:104F5000B6FBF1F55FFA88F1BB786A1878789A4267
:104F600088BF5D1A59464A462B46FEF7F9FFC0B97D
:104F7000A07940060BD5A069A0EB0900A84206D293
:104F800021684A89009900FB02B000F0D9FF20682F
:104F90004089454396E7002001B0BDE8F08F02202C
:104FA00000E00120E07101B0BDE8F08FB0B5ADF5D3
:104FB000047D0D46044601F011FB10B10DF5047D92
:104FC000B0BDE5B181A801A9C4E906012046FEF7FC
:104FD00027FE042804BF002020610028EED12046CF
:104FE000294600F0EFFD204600210025FEF784FD54
:104FF000042804BF256100200DF5047DB0BD2046C6
:105000000021FEF735FF0DF5047DB0BDF0B5ADF51F
:105010001D7DCDE99B1092A89CA9012200F006FB02
:10502000044668B992989C9989900DF20320989053
:105030000DF10200999092A800F06EFC044618B1A0
:1050400020460DF51D7DF0BD9798B8B10DF20F25E6
:1050500000F10B012846152200F072FF89A892A9E1
:10506000242200F06DFF9BA800F018FE002807D452
:105070009B9989A800F050FC044602E00424DFE775
:105080000B24002C08BF0824042CD9D189A8FEF7D2
:105090001BFE04460028D3D18E9FA91C07F10D00EA
:1050A000132200F04DFF9DF80F02929D40F020006A
:1050B000F87201202871F87AC0061FD594988B9E4B
:1050C000B0421BD02846394600F010FE0146284663
:1050D000FEF796FA88B10146284601F037F80446F3
:1050E00060B995F851002E2808D105F150003146DD
:1050F00001F0C8F90120287100E00224002C9FD1A2
:1051000092A8FEF781FE0446002899D1929801F0FA
:10511000D1F9044694E70000B0B5ADF50E7D0C461C
:105120008D9084A88DA9002200F080FA054648B928
:1051300081A88A9001A88D998B9084A800F0ECFB3F
:10514000054618B128460DF50E7DB0BD899830B1E1
:10515000002CF7D084A8214600F034FDF2E70625A4
:10516000F0E70000B0B5044601F038FA054608B192
:105170002846B0BDA0798106FAD540060ED5206834
:10518000A269407804F1240101230125FEF708FFFC
:105190000028EDD1A07900F0BF00A0712068E1697E
:1051A00000F0D4FF05460028E2D1256AE87A40F0F5
:1051B0002000E872E0682877E068000A6877E089F4
:1051C000A877E07BE8772169284601F05BF900F0D9
:1051D000CDFCC5F8160000206882A079012100F0FE
:1051E000DF00A0712068017101F064F905462846CE
:1051F000B0BD000070B5ADF5167D95908CA895A951
:10520000012200F013FA0446E8BB80A89290684699
:10521000959993908CA800F07FFB044698BB919ED3
:105220002EB1F07AC00718BF0724D4B901E00624D4
:10523000BCB98C98314600F059FD90B10546F07A22
:10524000C0060FD583AC8CA92046242200F078FE3E
:10525000204602218595FEF70BFEC0B1044694B9A5
:1052600001E000257CB98CA8FEF7CEFD04462DB1E7
:1052700024B98C98294601F06FF804461CB98C9823
:1052800001F018F9044620460DF5167D70BD83A87F
:10529000FEF7C6FC002808BF0720041F18BF0446FD
:1052A000002CF0D1DFE700002DE9F04F81B004467B
:1052B0000020186020469A4616468B4601F08EF96B
:1052C00010B101B0BDE8F08FE0790028F9D1A079E4
:1052D000800703D4072001B0BDE8F08FA068711EDD
:1052E000C043814280F09D8004F12400009021E0C1
:1052F000C4F818902068A1684089B1FBF0F202FB65
:105300001011451A6018B54288BF354624305946F9
:105310002A4600F015FEA07940F04000A071A06878
:10532000AB442844A060DAF80000761B2844CAF891
:10533000000076D02068A1684389B1FBF3F202FB3C
:105340001313002BD6D18378FF3303EA02085FEAF8
:10535000086213D121B16169FEF7A6F9014602E0A6
:10536000216900295BD0481C68D0002959D0012947
:1053700066D020696161002808BF2161A0794006DC
:105380000CD52068A269407800990123FEF708FE39
:10539000002853D1A07900F0BF00A071276861698F
:1053A0003846FEF72DF900284AD0798950FA88F955
:1053B0008E4210D2A06948459AD0D4E902018842B1
:1053C00096D2787800994A460123FEF7C9FD002855
:1053D0003FF48EAF32E0B6FBF1F55FFA88F1BB78AF
:1053E0006A1878789A4288BF5D1A59464A462B4611
:1053F000FEF7D6FD10BBA069A0EB0900A8420AD2B7
:1054000021684A8900FB02B1009800F099FDA0795B
:1054100000F0BF00A0712068408945437FE700216C
:105420009AE7D4E90201884288BFE060A07940F0A1
:105430002000A071002001B0BDE8F08F012000E045
:105440000220E07101B0BDE8F08F0000B0B5802807
:1054500038BFB0BD48F68C4C4EF29A32C0F6000C04
:1054600000294AF64021C0F6010208BF94463CF8E4
:105470000140844203D1012542F6902E18E045F206
:105480002053002242F6902E6FF00F01844234BF69
:105490007246734601310D4618BF012508D09C1A8B
:1054A00004EBD47402EB640E3CF82E408442EDD140
:1054B000002D04BF0020B0BD4FEA8E0002303CF842
:1054C0000000B0BD10B5802807D2A0F1610189B2FB
:1054D0001A2938BF203880B210BD48F2D44E0022BD
:1054E0004FF4F7714FF00C0CC0F6000E8B1A02EB64
:1054F00053033EF81340844207D02CBF19461A4686
:10550000BCF1010CF2D14FF0000CBCF1000F08BF50
:1055100010BD48F6B000C0F6000030F8130010BD12
:1055200070B582B041F2C8244EF22630C2F20004B7
:10553000C0F601002146FFF7EFFD42F28056C2F2AD
:1055400000063070B0BB1DA001F038FA216822A01F
:1055500001F05AF8A08840F2BC71C0F34312E5880C
:1055600001EB502100F01F03E80AC5F34515009038
:105570001FA0019501F048F8207A4124C1064FF0A0
:10558000440158BF2D21C2074FF0520208BF2D22FF
:1055900083074FF0480358BF2D2345074FF05305AD
:1055A00058BF2D2580061BA058BF2D2400950194BF
:1055B00001F02AF8307802B070BD00BFA1B0746568
:1055C00073746469722E747874A1B1CEC4BCFED0B9
:1055D000C5CFA2A3BA000000A1B7CEC4BCFEB4F3ED
:1055E000D0A13A20256C6428D7D6BDDA290A00005C
:1055F000A1B7CAB1BCE4B4C13A2025752F25303219
:10560000752F253032752C20253032753A253032F1
:10561000750A0000A1B7CAF4D0D43A2025632563E7
:105620002563256325630A0A000000002DE9F04385
:1056300085B00746002038600846154600F02EFB6E
:10564000002816D4064640F29000C2F2000050F83E
:1056500026403CB33C60207868B16078FEF790FC4F
:10566000C10708D140070A21002D18BF01EAE075E3
:1056700080E00B257EE000202070F0B26670FEF71F
:1056800047FCC10710D1002D18BF10F004000DD148
:10569000607804F10A0502212A46FEF747FC38B17A
:1056A000012567E00C2565E0032563E00A2561E03C
:1056B0002888A0F50070B0F5606F01D9012559E088
:1056C000204600210025FDF75BFF01281ED101AE19
:1056D00000203146221892F8F2311030002B14BF0E
:1056E000D2F8F6210022402841F8042BF2D10027FD
:1056F00056F827502DB120462946FDF741FF10B935
:1057000004E0022010B10137042FF1D120B10328A9
:1057100014BF0D2501252DE0B4F83B1060898142AE
:1057200023D1B4F84610002908BF616D94F8407089
:10573000A1617A1E012AE77019D894F83D20531E02
:105740001340B2FA82F618BF012376093343A270E0
:105750000FD1B4F841304609B3FBF6F9238109FBB8
:10576000163636040AD00D2504E00D2502E00D257D
:1057700000E00D25284605B0BDE8F083B4F843806D
:10578000B8F1000F08BFD4F85080B4F83EE0BEF185
:10579000000F09D001FB07FC0CEB0E0606EB090716
:1057A000B84503D20D25E5E70D25E3E7A8EB07068D
:1057B000964201D20D25DDE7B6FBF2F940F6F5720F
:1057C0004FF0010891454FF6F57288BF4FF002087F
:1057D00091454FF6F67288BF4FF00308914509F1E5
:1057E000020605EB0E022F446661C4E90752A76268
:1057F00002D383B10D25BDE7002B53D06244B8F12D
:10580000020F62620FBF730006EB460206F001034F
:1058100003EB520302E0E26DB3006262C218013A88
:10582000B2FBF0F0814201D20D25A3E74FF0FF302B
:105830004FF6F671C4E9030080208945607125D3D5
:10584000B4F86000012821D1691C204600F07EFCDC
:10585000E0B9B4F82E124AF6552200209142607148
:1058600014D1206B45F25221C4F2611188420DD14E
:10587000D4F8140247F27221C6F24111884205D1D0
:10588000D4F81C02D4F81812C4E9030140F29C00B9
:1058900084F80080C2F200000188002501310180F7
:1058A000E18067E70D2565E72DE9F0410D264B7393
:1058B0000F23564348F2B0484FF6FF7CA1F80B3057
:1058C0000023A6F10D0E4C1CC0F6000800264B83E9
:1058D000664518F803701CBF30F81E600EF1010E0B
:1058E000002E03F10103CE554FEA162508BF664688
:1058F0000D2BE555ECD1664504D142F040020A700B
:10590000BDE8F08130F81E00002808BF42F04002D8
:105910000A70BDE8F0810000B0B582B00A78044694
:105920005C2A019101D02F2A01D1481C0190002549
:105930000198A5600078202806D220460021FEF7B5
:1059400097FA656102B0B0BD01A92046FDF70AFFD4
:1059500008B102B0B0BD01AD2046FEF767F8A169FD
:10596000C97A80B94907F4D46169C87AC00611D5EB
:10597000206800F0BBF9A06020462946FDF7F2FE42
:105980000028E9D0E5E70428E3D1490758BF0520FE
:1059900002B0B0BD052002B0B0BD000080B582B03D
:1059A000019040F24820C2F2000001A901224FF606
:1059B000FF73FCF79DF8019802B080BDF0B583B08D
:1059C00016460B221D46074600F0BAFA052D16D9D9
:1059D0003088A0B141F22101C0F20101102200BFC4
:1059E00000F001032C0443EA45054FEA500048BF8C
:1059F0004D40013AF4D136F8020F0028EED101A84B
:105A0000C11D6FF006030322002600BF2C4662F37F
:105A10001F14392C88BF073401F80149B6EB151F54
:105A20004FEA151503F10103F0D17E220A70C3F18C
:105A300000014FF000022BB90EE000BF013201322D
:105A40008A4209D2BE5C202E06D07F36F6B27D2E69
:105A5000F5D89E180136F1D107299ABF435C013170
:105A60002023BB540132082AF6D303B0F0BD000056
:105A7000F0B581B002293BD3054640690C46884207
:105A800036D92878032836D0022856D001282FD1BD
:105A9000688904EB5406296AB6FBF0F001442846F5
:105AA00000F054FB002852D168892A6AB6FBF0F155
:105AB00001FB10610136B6FBF0F0294491F830701B
:105AC0008118284600F042FB002840D16889E2078F
:105AD000B6FBF0F101FB1060284490F8300047EA73
