:020000040800F2
:10000000186C0020C1010008AD390008392700082C
:10001000A9390008DD0200080146000800000000C0
:10002000000000000000000000000000A5420008E1
:100030008D03000800000000DD390008D9420008E7
:1000400005460008DB010008DB010008DB010008B1
:10005000DB010008DB010008A9030008DB01000840
:10006000DB010008DB010008DB010008DB01000800
:10007000DB010008DB010008DB010008DB010008F0
:10008000DB010008DB010008DB010008DB010008E0
:10009000DB010008DB010008DB010008DB010008D0
:1000A000DB010008DB010008DB010008DB010008C0
:1000B000DB010008DB010008DB010008DB010008B0
:1000C000DB010008DB010008DB010008DB010008A0
:1000D000DB010008E5450008DB010008DB01000842
:1000E000D1030008DB010008DB010008DB01000888
:1000F000DB010008DB01000805440008DB01000803
:10010000DB010008DB010008DB010008DB0100085F
:10011000DB010008DB010008F5430008DB010008F3
:10012000DB010008DB010008DB010008DB0100083F
:10013000DB010008DB010008DB010008DB0100082F
:10014000DB010008DB010008DB010008DB0100081F
:10015000DB010008DB010008DB010008DB0100080F
:10016000DB010008DB010008DB010008DB010008FF
:10017000DB010008DB010008DB01000800000000D3
:10018000DB010008DB010008DB010008DB010008DF
:10019000DB010008DB010008DB010008DB010008CF
:1001A000DB010008DB010008DB010008DFF80CD0F0
:1001B00000F082F800480047C56E0008186C002067
:1001C0000648804706480047FEE7FEE7FEE7FEE7F1
:1001D000FEE7FEE7FEE7FEE7FEE7FEE7D94300089D
:1001E000AD0100082DE9F05F0546002092469B46D0
:1001F00088460646814640241BE02846414647463D
:10020000224600F048F853465A46C01A914110D38E
:1002100011461846224600F02FF82D1A67EB010808
:100220004F4622460120002100F026F817EB000976
:100230004E41201EA4F10104DFDC484631462A4627
:100240004346BDE8F09FD2B201E000F8012B491E01
:10025000FBD270470022F6E710B513460A46044663
:100260001946FFF7F0FF204610BD421C10F8011B95
:100270000029FBD1801A7047202A04DB203A00FABB
:1002800002F1002070479140C2F1200320FA03F3ED
:10029000194390407047202A04DB203A21FA02F0EB
:1002A0000021704721FA02F3D040C2F120029140B0
:1002B0000843194670470000064C074D06E0E06809
:1002C00040F0010394E8070098471034AC42F6D39D
:1002D000FFF770FF604B0308804B0308FEE7000048
:1002E000B0B5D0E900CE049DDCF8444045EA0343B4
:1002F00004F040442343BEF5403FCCF84430CCF8F2
:100300003C201CBFCCF80C10B0BD806801F47F030A
:1003100001F47F4203285FFA81FE08D8DFE800F08D
:100320003302152321F07F41CCF83810B0BD4FF4D3
:10033000704000EA11406FF0FF0101EA1331F02331
:1003400003EA122240EA1E101BE04FF4784000EA54
:1003500013206FF01F0101EA521140EADE00014450
:10036000CCF83810B0BD4FF4004000EA11404FF413
:10037000F84101EA53216FF01F0303EA921240EAA9
:10038000DE0008448118CCF83810B0BD704700007A
:1003900081B00090009828B1009801380090009832
:1003A0000028F9D101B0704743F61440C4F20100AF
:1003B0000168C90708BF704741F61441C4F2020141
:1003C0000A6882F480520A600121016070470000CF
:1003D00043F61440C4F201000168890458BF704715
:1003E00041F61441C4F202010A6882F400620A6014
:1003F0004FF40051016070472DE9F0410B6802682D
:10040000012B1FD1D1E9073422F4F842D1E901E7E9
:10041000D1E90365D1E9058C496A1A4322431143A6
:10042000426847F6FF739A4342EA0E023A43324368
:100430002A4342EA080242EA0C02016042600020BC
:10044000BDE8F08147F6FF7322EA030CD1E90132DF
:10045000D1E903E443EA0C0301F114081A4398E8D4
:10046000E00142EA0E0222432A433243496A3A43F8
:1004700042EA0802114301600020BDE8F08100005B
:10048000F0B581B000250095144691E88C00C9684C
:100490001A436FF01F0303EB47131A4342EA41214B
:1004A000009100990646016100F08CFDB169890652
:1004B00012D50746651C02E0B06980060BD5002DF9
:1004C000FAD034B100F07EFDC01BA042F4D9032560
:1004D00002E0032500E00025284601B0F0BD000041
:1004E0002DE9F0418368012A37D140F6FF72CFF63B
:1004F0000F721A40CB684FF20006CFF6FF764F69B5
:1005000006EB03330026CFF6F07606EB07571A43C7
:10051000C36842EA070CD1E900768D686FF00F02DC
:1005200003F0704302EB06126FF0FF06013F0C6907
:1005300006EB052600253B43CFF6FF7589691A4374
:1005400005EB0445324301392A4342EA0161C0F810
:1005500008C0C1600020BDE8F08103F0704CD1E913
:100560000032D1E902E401F110084FF20001013B31
:100570006FF00F07CFF6FF7198E8600107EB0212EA
:100580006FF0FF0701EB0431002443EA0C0307EB93
:100590000E27CFF6FF741A4304EB054500243A43B7
:1005A000CFF6F074114304EB06562943A8F1010479
:1005B000314341EA046181600020BDE8F081000020
:1005C0002DE9F04186B0002043F630010190C4F2DD
:1005D00002010A684FF0030842F080020A600A68CC
:1005E00041F6004502F080020192019A01900A68EA
:1005F000C4F2020542F080020A600A6801AC02F00F
:1006000080020192019A01900A6842F008020A6091
:100610000A6802F008020192019A01900A6842F405
:1006200080720A60096801F48071019101991021BA
:10063000019112210291CDE903080420059028467A
:10064000214600F0EFFB202001902846214600F0D3
:10065000E9FB4FF4807001900127022605F58060C8
:1006600021460297CDF81080039600F0DBFB4FF493
:100670000050CDE90107A5F580502146CDE903687A
:1006800000F0D0FB06B0BDE8F0810000F0B583B00B
:1006900042F60E05C2F2000529784FF2C26701EB5F
:1006A0004101C0F6010707EB410189880020019054
:1006B000ADF80800481C010A8DF804108DF80500FB
:1006C00001A8062100F048F8002824D428789DF8D5
:1006D000064000EB400007EB400080889DF8076073
:1006E0000630010A9DF808509DF809708DF8041035
:1006F0008DF8050001A8032100F02EF800280AD487
:100700009DF8060045EA072244EA062100F00303AB
:1007100002A007F023F803B0F0BD00BF3C3C2D471A
:1007200054502D494E464F2D3E3E20585F4D415866
:10073000203D2025642C20595F4D4158203D202527
:10074000642C2054524947474552203D203078259B
:100750003032780A000000002DE9F04186B00446EE
:100760004FF40030CDF80200BA208DF800000122CD
:100770008DF80C00A1F10208A01C00256F46029420
:10078000ADF80E20ADF81080059000BF384602F09D
:100790007BF9022807D00135052DF7D1064605253E
:1007A000052D0ED302E00226052D0AD320884246ED
:1007B000000401BA4FF2F750C0F60100334606F0CC
:1007C000CDFF304606B0BDE8F0810000F0B581B045
:1007D00042F60E00C2F2000000784FF2C26100EB58
:1007E0004000C0F6010101EB400080880124010AAD
:1007F0008DF8020000200DF101050BA68DF8011007
:100800008DF8030028460321FFF7A6FF07460006E0
:10081000002806DC3046214606F0A0FF0134062CF5
:10082000F0D178B201B0F0BD3C3C2D4754502D457D
:1008300052524F522D3E3E20475450206932632081
:1008400074657374206661696C65642074696D6594
:100850002025642E0A00000010B502F00BF9FFF706
:10086000B5FFB0F1FF3F08DD00F024F8282000F0CC
:1008700087FFFFF70BFF002010BD044602A007F022
:10088000D7F9204610BD00BF3C3C2D4754502D45A4
:1008900052524F522D3E3E2049324320636F6D6DC0
:1008A000756E69636174696F6E204552524F5221B3
:1008B0000000000010B586B00020059044F28100D1
:1008C000049004A80821FFF747FF0446B0F1FF3F5A
:1008D0002ADD9DF81430382B55D0352B28D0312BFC
:1008E00078D19DF81210392940F0CE809DF8130080
:1008F000312840F0C9809DF817009DF816C000907F
:100900007DA0392131223123CDF804C006F026FF25
:1009100042F60E00C2F200000121017040F2F02008
:10092000C2F200000170CCE07FA007F081F9C8E0BE
:100930009DF81210392940F081809DF8130031286C
:100940007CD19DF81500372878D19DF81700372104
:100950009DF816C0CDE900104FF24760C0F60100C7
:10096000392131223523CDF808C006F0F7FE42F6D2
:100970000E00C2F200000021017040F2F020C2F22D
:10098000000001709DE09DF81210352969D19DF895
:100990001300362865D19DF81500382861D19DF8DF
:1009A00017009DF816C03821CDE9001046A035216A
:1009B00036223823CDF808C006F0D0FE42F60E00ED
:1009C000C2F200000221017040F2F020C2F20000E9
:1009D000017076E09DF812109DF813209DF815E047
:1009E0009DF816C09DF81700372B60D1CDE900E0C7
:1009F0004FF24760C0F601003723CDF808C006F07B
:100A0000ADFE9DF8120039285BD19DF81300312806
:100A100057D19DF81400372853D19DF8150053285D
:100A20004FD142F60E00C2F200000321017040F2E5
:100A3000F020C2F200000021017042E09DF815E0B4
:100A40009DF817009DF813209DF816C0CDE900E031
:100A50004FF27660C0F60100CDF808C006F07EFEC9
:100A60002FE09DF815E09DF817009DF813209DF8E4
:100A700016C0CDE900E04FF27660C0F60100CDF877
:100A800008C006F06BFE1CE09DF815E09DF817000D
:100A90009DF813209DF816C0CDE900E04FF2766076
:100AA000C0F60100CDF808C006F058FE09E0CDE917
:100AB00000E04FF27660C0F60100CDF808C006F005
:100AC0004DFE204606B010BD3C3C2D4754502D49EC
:100AD0004E464F2D3E3E2049433320566572736982
:100AE0006F6E3A2025632563256325635F253032C9
:100AF00078253032780A00003C3C2D4754502D496F
:100B00004E464F2D3E3E2049433120566572736953
:100B10006F6E3A202563256325635F253032782583
:100B20003032780A000000003C3C2D4754502D45DF
:100B300052524F522D3E3E20475450207265616400
:100B40002076657273696F6E206661696C656400FA
:100B500070B540F29E06C2F2000632780D46044699
:100B60001AB903F039FA01203070280A5E2148438F
:100B700050FA85F049F2402100EBC000CFF67971C0
:100B800001EB80104FF4AA0101EBE001204648225E
:100B900003F090F9002070BDB0B590F83820012A1C
:100BA0004FF0020241D0012380F8383080F839201C
:100BB00000EB0112D2E9073E556A02F1180C43EA34
:100BC0000E42093B2C06022B38BF05F07F4400295A
:100BD000016842EA040E11D0CA694FF6F074C0F2FF
:100BE000FC04224042EA0E02CA61DCF80020012B1C
:100BF0000A619CBF25F07F420A6210E04A6A4FF604
:100C0000F074C0F2FC04224042EA0E024A62DCF8B0
:100C10000020012B8A619CBF25F07F428A6201215E
:100C2000002280F8391080F838201046B0BD00004E
:100C3000002804BF0120704710B5044690F8390021
:100C400028B9002084F83800204600F01DF8022062
:100C500084F8390094E80710036823F440331943FB
:100C60000160416B21F0070111434163016C43F6C0
:100C7000FF72914341EA0C01016400200121E0630D
:100C800084F8391010BD000070470000F0B581B045
:100C900004460020009020680D460068C00734D04C
:100CA00000F090F921684A6892072ED406464868F9
:100CB0000090009810F0210F12D00098800603D504
:100CC000E06B40F00200E0630098C00703D0E06BE7
:100CD00040F00100E06321208860012004215AE0F7
:100CE0006F1C00BF37B100F06DF9002D5AD0801B8A
:100CF000A84257D821684868800706D44868009001
:100D0000009810F0210FEDD0D7E72068C169406A44
:100D1000084380063AD500F055F921684A68D206A2
:100D200034D4064648680090009810F0290F19D076
:100D30000098000703D5E06B40F00400E0630098E2
:100D4000800603D5E06B40F00200E0630098C00726
:100D500003D0E06B40F00100E063292088600120AF
:100D6000042118E06F1C00BF2FB100F02BF905B370
:100D7000801BA8421DD821684868C00606D4486870
:100D80000090009810F0290FEED0D1E720681221D2
:100D900081600020012184F83910002184F8381086
:100DA00001B0F0BDE06B032140F02000E0630320C0
:100DB000F1E7E06B032140F02000E0630320EAE765
:100DC000B0B582B0054690F8380001284FF0020017
:100DD00011D0DDF818C0012485F8384085F83900B5
:100DE0002846CDF800C0FFF77BFA2868016841F07B
:100DF00001010160002002B0B0BD0000B0B50446A2
:100E000000F0E0F8054640F21400C2F2000000785D
:100E1000611C18BF044400BF00F0D4F8401BA0427E
:100E2000FAD3B0BD2DE9F04F83B000F13E4202F19C
:100E3000FF724FEAB22242F200470192C4F2020767
:100E40000A22012600254FF000084FF00009B842A1
:100E500008BF0922009209E009F1010908F104081C
:100E6000B9F1100F05F1020500F0A3800C6806FA35
:100E700009FB14EA0B0CEFD0D1F804A0BAF1120F61
:100E800017D806FA0AF414F0061F12D08468032259
:100E9000CF6802FA05FE24EA0E04AF4027438760BC
:100EA0004768CAF3001427EA0B0704FA09F427433A
:100EB00047600322C76802FA05F48A68A743AA407C
:100EC0003A434AF010076FEA040E122FC26010D1A5
:100ED0006FF0030202EA59020244176A08F01C0686
:100EE0000F230C69B34027EA0303B44001262343D0
:100EF000136202684B6802EA0E0203F00307AF4078
:100F00003A43DB000260A7D5002243F64403029275
:100F1000C4F202031A6843F6004442F480421A60A5
:100F20001A68C4F2010402F480420292029A29F083
:100F300003024FF6084A2244CFF6FF7A52F80A30ED
:100F400008F00C070F26BE4023EA060E019B009E08
:100F5000092B38BF1E4606FA07F747EA0E0342F888
:100F60000A3022684B6842EA0C07DE0358BF22EAC7
:100F70000C07276062689E0342EA0C0758BF22EA0A
:100F80000C076760A268DE0242EA0C0758BF22EA3B
:100F90000C07A76043F60C47C4F201073A689B02AE
:100FA0004FF0010642EA0C0358BF22EA0C033B60F3
:100FB00052E703B0BDE8F08F002A08BF0904816141
:100FC0007047000042F61000C2F20000006870474F
:100FD00090F83D20202A1CBF02207047242280F870
:100FE0003D200268136823F001031360536A23F065
:100FF00010035362536A19435162116841F00101B1
:101000001160202180F83D100020704770B5B0B30A
:10101000044690F83D0028B9002084F83C002046A2
:1010200000F058FA242084F83D002068016821F07F
:1010300001010160016841F400410160016821F48F
:101040000041016000F0D8FD48F28041C0F21E016D
:1010500040F60012666888424FF00001C0F23D027F
:1010600048F2A16C4FF0000338BF01219042C0F25A
:10107000010C38BF0123664538BF0B460BB1012078
:1010800070BD4DF68361C4F21B31A0FB01122168D3
:10109000930C4D68664525F03F0545EA92424A604B
:1010A0000A6A22F03F0C09D34FF496725A4344F671
:1010B000D353C1F26203A2FB03239B095A1C42EAE9
:1010C0000C020A6248F2A063CA69C0F201039E42A0
:1010D0004CF6FF7322EA030C0AD801387200B0FB09
:1010E000F2F001306FF31F30042898BF04202BE08A
:1010F000A368A0F1010E9BB119207043BEFBF0F074
:101100000422013062F31F30000512D09BB1192078
:101110007043BEFBF0F00422013062F31F3011E097
:1011200006EB4600BEFBF0F001306FF31F30000508
:10113000ECD1012008E006EB4600BEFBF0F00130E8
:101140006FF31F3040F4004040EA0C00C8610868AB
:10115000D4E9072320F0C0001043184308608868D2
:1011600048F2FF3204F10C0690434CCE1843104372
:10117000A5698860C86820F0FF0030432843C86034
:10118000086840F00100086000202021206484F8F5
:101190003D10206384F83E0070BD00002DE9F0434F
:1011A00083B01E4615460F460446FFF70BFF94F822
:1011B0003D1020290FD102218146C0F210012046A6
:1011C00001221923CDF8009001F0AEFC18B994F873
:1011D0003C00012803D1022003B0BDE8F0830121C7
:1011E000206884F83C100168DDF82880C90703D125
:1011F000016841F0010101600168424621F400618B
:101200000160222084F83D00102084F83E00002078
:10121000206465626685608D394620850020CFF6A2
:10122000FF70E06220464B4601F0C8FA18B1012079
:1012300003B0BDE8F083218D012904D0A1B90020BD
:101240000290206806E02068016821F48061016056
:10125000002102914169029181690291029901681C
:1012600041F40071016014E020680229026806D18F
:1012700022F480610160016841F4006101E042F400
:1012800080610160002102914169029180690290B0
:101290000298258D002D76D00427C0F201070BE0BF
:1012A000606A218D01306062481E2085608D0138A2
:1012B0006085258D002D66D02046032D0CD8012D8C
:1012C00024D141464A4601F0B5FC0028AFD1206840
:1012D000616A00690870E3E741464A4601F0AAFCEA
:1012E0000028A4D12068616A00690870606A228DB4
:1012F0000130013A606222852168628D013A62857F
:101300004A695207D5D509690170C9E739460022F3
:101310004346CDF8009001F007FC022D1BD00028B9
:101320007FF485AF2068616A0268434622F48062D8
:101330000260006900220870606A218D01306062DD
:10134000481E2085608D3946013860852046CDF8DD
:10135000009001F0E9FB00287FF469AF2068616A22
:10136000026842F40072026000690870606A411C01
:101370006162218D226801392185618D0139618584
:10138000116941708CE7202084F83D00002084F82A
:101390003E0084F83C0003B0BDE8F0832DE9F0473F
:1013A00082B01E46174689460446FFF70BFE94F8A6
:1013B0003D1020290ED102210546C0F21001204621
:1013C00001221923009501F0AFFB18B994F83C00F5
:1013D000012803D1022002B0BDE8F0870121206876
:1013E00084F83C100168DDF82880C90703D1016842
:1013F00041F00101016001684FF0000A21F4006131
:101400000160212084F83D00102084F83E00C4F8DB
:1014100040A067626685608D494620850020CFF632
:10142000FF70E062204642462B4601F047FA18B1B1
:10143000012002B0BDE8F087CDF804A02068416922
:10144000019180690190019806E000BF2046414665
:101450002A4601F039FB20BB208D58B32046414677
:101460002A4601F017FCE0B9606A2168024612F8CA
:10147000013B0B616262628D013A6285228D571ECB
:1014800027854B693F0418BF13F00403DED043786F
:1014900002300B616062608D01386085901E20858E
:1014A000D4E7206C0428C3D12068016841F400719E
:1014B0000160BDE72068016841F4007101602020EF
:1014C00084F83D00002084F83E0084F83C0002B01F
:1014D000BDE8F08770B586B0002043F63006019075
:1014E000C4F20206316840F2004441F0020131606A
:1014F0003168C4F2020401F00201019101990190E6
:10150000316801AD41F002013160316801F0020142
:10151000019101990190316941F400113161316902
:1015200001F4001101910199402101911221CDE9AD
:101530000210022004900420059020462946FFF75F
:1015400071FC8020019020462946FFF76BFC56F87D
:10155000100C40F4001046F8100C56F8100C20F453
:10156000001046F8100C06B070BD000040F21400E8
:1015700042F61001C2F20000C2F2000100780A68CF
:101580001044086070470000B0B540F21402C2F287
:10159000000240F210011278C2F200014FF47A7397
:1015A0000968B3FBF2F20446B1FBF2F1084600F021
:1015B000AFFE0F2C4FF001050CD858B94FF0FF309B
:1015C00021460022002500F0DFF840F21800C2F2A8
:1015D000000004602846B0BD2DE9F041044690F8B3
:1015E000A00001284FF0020008BFBDE8F0814FF0D5
:1015F000010884F8A08084F8A100342002FB004098
:10160000D1E900CED1E90267D1E90453C0E9125310
:10161000C0E91067C0E90ECED1E906CED1E9086570
:10162000D1E90A73C0E91873C0E91665C0E914CEA0
:101630000B6B8366204602F01BF92068C0F82480FB
:10164000002084F8A18084F8A000BDE8F0810000AB
:10165000002804BF0120704710B5044690F8A1008F
:1016600028B9002084F8A000204600F063F802208A
:1016700084F8A100D4E9000CD4E90223816921F0A7
:101680007041816142EA0C01226919438369114367
:101690001943816181684FF6000CCFF2000C01EA1A
:1016A0000C018160D4E90513826843EA01411143CA
:1016B0008160C16801EA0C01C160D4E90712C36806
:1016C00042EA01411943C160016901EA0C0101616B
:1016D000D4E90912036942EA0141194301614169F0
:1016E00001EA0C014161D4E90B12436942EA01416C
:1016F0001943416194F8351094F83620C36A1204F6
:1017000003F07F43C36242EA012194F83420C36AA4
:1017100011441943C162416B41F006014163816983
:1017200041F00101816100200121C4F8A40084F886
:10173000A11010BD7047000070B5044690F8A000DD
:1017400001284FF0020008BF70BD342302FB03459F
:10175000012605F1380384F8A06084F8A100E9644B
:101760002046194602F084F820684662002084F87A
:10177000A16084F8A00070BD80B502F04BFF80BD71
:1017800080B502F05BFF80BD70B514460D4606467D
:1017900002F064FF2946224602F00AF9014630466B
:1017A00002F064FF70BD000070B582B000200190AF
:1017B00043F64000C4F202000168402641F0805127
:1017C00001600068C4F20E2600F08050019001987C
:1017D00047F204050120C4F200053060FFF7F2FB78
:1017E000044600BF2868C00306D4FFF7EBFB001BCC
:1017F000B0F57A7FF6D90EE001207060FFF7E2FBCA
:10180000044600BF2868800308D4FFF7DBFB001BF9
:10181000B0F57A7FF6D9032002B070BD002002B087
:1018200070BD00002020C4F20E200121016070472D
:10183000F0B581B00446007843F6700610F0430F0F
:10184000C4F2020634D06827C4F24727002038606B
:10185000FFF7B8FB054600BF56F8700C000105D530
:10186000FFF7B0FB401B0228F6D993E02068C107C0
:1018700040F09380810700F19980400608D5E16827
:10188000D4E90102090641EA801040EA0270706161
:1018900001203860FFF796FB054600BF56F8700C34
:1018A000000105D4FFF78EFB401B0228F6D971E03A
:1018B000207810F00C0F49D06827C4F24727002089
:1018C000B860FFF77FFB054656F8700C800005D521
:1018D000FFF778FB401B0228F6D95BE02068410740
:1018E00013D5B169D4E9042301F0E04141EA821142
:1018F00041EA0361256AB161F1696FF0FF0221F4E9
:10190000F85102EB05221143F16100070FD5B069D0
:10191000216900F07060A26940EA811040EA02701B
:10192000636AB061F06920F440301843F06101202F
:10193000B860FFF747FB054656F8700C800005D4E9
:10194000FFF740FB401B0228F6D923E020788006F1
:1019500070D50020009056F8300C47F2000740F098
:10196000805046F8300C56F8300CC4F2000700F0F6
:10197000805000900098386840F480703860FFF71D
:1019800021FB05463868C00525D4FFF71BFB401B2B
:101990000228F7D9032001B0F0BDD4E901210907DD
:1019A00041EA8211716181077FF567AF71696268F1
:1019B00001F0E041E36841EA821141EA0361E5692F
:1019C0007161F1696A1E21F01F011143F161400646
:1019D0003FF555AF5CE7306810F4407013D0A16A52
:1019E00001F4407188420ED0306840F64061C4F284
:1019F0004721012220F440700A6000220A60306012
:101A00003068C00727D1A06A56F8681C4FF6FF431C
:101A100000F4407221F4F811C0F6FF730340B2F5F0
:101A2000407F08BF194346F8681C31686FF31F30C8
:101A3000084330602078C00602D4002001B0F0BD19
:101A400094F82C0040F64061C4F24721C1F8A0038D
:101A5000002001B0F0BDFFF7B5FA054641F2883726
:101A600030688007CFD4FFF7ADFA401BB8424FF083
:101A70000300F5D9EDE700002DE9F04381B043F60E
:101A80000807C4F202070446386840F2F428C2F29C
:101A90000008002CC8F800007DD0D7F8F80389466C
:101AA00000F00F00884207D287F8F893D7F8F803C0
:101AB00000F00F0048456ED1206881071BD5400714
:101AC00003D5386840F4E05038603868C8F8000042
:101AD0002078000703D5386840F4604038603868E3
:101AE000C8F800003868A16820F0F00008433860AA
:101AF0003868C8F800002078C00744D1D7F8F80348
:101B000000F00F00484507D987F8F893D7F8F80395
:101B100000F00F0048453ED12078400708D53868CE
:101B2000E16820F4E050084338603868C8F80000E5
:101B30002078000709D53868216920F4604040EA20
:101B4000C10038603868C8F8000000F079F83968DA
:101B500047F65442C1F30311C0F60002515CC8407D
:101B600040F21001C2F20001086040F21800C2F217
:101B7000000039680068C8F80010FFF705FD002074
:101B800001B0BDE8F0836068811E022907D257F8D2
:101B9000081C890109D4012001B0BDE8F0830128A7
:101BA0001ED157F8081C8903F5D5396821F00301C7
:101BB00008433860FFF706FA064641F2883500BF51
:101BC0003868616800F00C00B0EB810F96D0FFF729
:101BD000F9F9801BA842F3D9032001B0BDE8F083D6
:101BE00057F8081C8907D6D5DFE7000040F210003F
:101BF000C2F200000068704780B5FFF7F7FF43F6B8
:101C00000801C4F20201096847F66442C1F3822167
:101C1000C0F60002515CC84080BD000080B5FFF7EF
:101C2000E5FF43F60801C4F20201096847F6644281
:101C3000C1F34231C0F60002515CC84080BD0000D3
:101C400010B543F60404C4F20204606800F00C000E
:101C500008280AD0042819BF42F20040C0F2F4005C
:101C600047F64000C0F27D1010BD2068216823684F
:101C7000490247F64001C0F27D1100F03F02C3F374
:101C800088105CBF42F20041C0F2F401A1FB0001E8
:101C90000023FEF7A7FA21680222C1F3014102EBFB
:101CA0004101B0FBF1F010BD2DE9F04182B00028F8
:101CB00000F097800446007843F60006C007C4F29F
:101CC000020641D0B06800F00C00042805D130684D
:101CD000800339D56068B8BB83E0B06800F00C00C1
:101CE000082802D170684002F1D46568B5F5803FDC
:101CF00006D03068B5F5A02F06D140F480203060C2
:101D0000306840F4803005E020F480303060306886
:101D100020F480203060FFF755F9002D054610D0E3
:101D20003068800310D4FFF74DF9401B6428F7D9C1
:101D30001AE100BFFFF746F9401B64284FF003008B
:101D40004CD830688003F5D4207880071AD5B06865
:101D500010F00C0F09D0B06800F00C00082840F01B
:101D600084807068400200F180803068800702D56E
:101D7000E068012835D13068216920F0F80040EA98
:101D8000C1003060207800072FD42078400742D46B
:101D9000A56915B3B06800F00C00082840F09880E1
:101DA000012D1ED07068E16900F480028A4218D1CA
:101DB000216A00F03F028A4213D147F6C071626A7D
:101DC000014091420DD1A16A00F440328A4208D10B
:101DD000E16A00F07060884203D1002002B0BDE8E3
:101DE000F081012002B0BDE8F0816069002840F276
:101DF0000000C4F247205AD00121C0F8801EFFF72E
:101E0000E1F80546706F8007BFD4FFF7DBF8401B91
:101E10000228F7D9A8E0306C4FF00008C0000CD4BD
:101E2000CDF80480306C4FF0010840F080503064F1
:101E3000306C00F080500190019847F20007C4F226
:101E400000073868C00525D4386840F480703860D1
:101E5000FFF7B8F8054600BF3868C0051AD4FFF789
:101E6000B1F8401B0228F7D97EE0E068002851D085
:101E70000020C4F2472001210160FFF7A3F80546C6
:101E8000306880073FF577AFFFF79CF8401B0228CA
:101E9000F6D969E0A568012D05D0306F052D4DD12B
:101EA00040F004003067306F40F001004CE000214A
:101EB000C0F8801EFFF786F8054600BF706F8007E8
:101EC0007FF563AFFFF77EF8401B0228F6D94BE0A1
:101ED0000027C4F2472700203866FFF773F8022D69
:101EE00005460BD13068800156D5FFF76BF8401BD3
:101EF00002284FF00300F5D970E700BF3068800179
:101F00007FF56BAFFFF75EF8401B02284FF0030030
:101F1000F4D963E70020C4F2472000210160FFF7F5
:101F200051F80546306880077FF52CAFFFF74AF877
:101F3000401B02284FF00300F4D94FE720F00100C6
:101F40003067306F20F004003067FFF73BF8002D5A
:101F5000054641F2883713D0306F800713D4FFF75E
:101F600031F8401BB842F7D9032002B0BDE8F08138
:101F7000FFF728F8401BB8424FF003003FF62EAFA2
:101F8000306F8007F4D4B8F1000F3FF401AF306C2C
:101F900020F080503064FBE604F11C052FCD08438F
:101FA00040EA8210D9034FF6FF729143A1F58031C8
:101FB00040EA05600843706001203866FFF702F8C8
:101FC000044600BF306880013FF507AFFEF7FAFF17
:101FD000001B02284FF00300F4D9FFE670B500683B
:101FE0000C4643684FEA1340C870C3F3042603F05D
:101FF0003F054E708D70C3F3423121700AB100204D
:1020000070BDC0B201F0ECFCE070304601F0E8FCBD
:102010006070284601F0E4FCA070002070BD000054
:1020200070B500680C46836A4B6001694FF040034D
:102030006FF3DF31A1600168C1F305402070C1F387
:10204000062601F07F0503EA11416670A570E17074
:102050000AB1002070BD01F0C3FC2070304601F0D1
:10206000BFFC6070284601F0BBFCA070002070BD72
:10207000002804BF0120704710B50446407F20B9F6
:1020800000202077204600F043F802206077206887
:10209000CA21416253214162204601F0FBFC2168C4
:1020A00010B1012004222FE088684FF6BF72CFF6EE
:1020B0008F721040886004F1040E9EE80150D4E94C
:1020C000042310438A68184310438860C1F810E065
:1020D000086940EA0C400861C86820F08000C860C8
:1020E0008868800605D4204600F014F808B12168FD
:1020F000D7E72168A0690A6C22F480220A640A6C7E
:102100001043086400200122FF234B62627710BD58
:1021100070470000B0B504460068C16821F0A00116
:10212000C160FEF74FFF05462068C068800607D4EF
:10213000FEF748FF401BB0F57A7FF5D90320B0BD0C
:102140000020B0BD002804BF01207047B0B5044690
:1021500090F82C000D4628B9002084F82D00204668
:1021600000F012F8022084F82C002068211DFEF7F0
:1021700043F9D4E900022946FEF7B2F9012084F8B8
:102180002C000020B0BD000070470000B0B5044630
:1021900090F82C0002284FF0020008BFB0BD84F870
:1021A0002C0020680D46FEF76BF9286801210228F3
:1021B0004FF0000008BF052184F82C10B0BD0000CE
:1021C000002804BF0120704710B5044690F8510064
:1021D00028B9002084F85000204600F035F802208D
:1021E00084F8510094E807101143036841EA0C0198
:1021F00023F04003036022691143D4E9052341EA37
:10220000020C03F40072E16942EA0C0242EA010C9A
:10221000226AA16A42EA0C020A4302604FF0040CEF
:10222000626A0CEA13431A434260B1F5005F04BFCF
:10223000E16A0161C16921F40061C16100200121ED
:10224000606584F8511010BDF0B585B0002143F6EB
:1022500030000091C4F20200026841F2004442F0F2
:10226000200202600268012602F020020092009A19
:1022700000910268C4F2020442F020020260026887
:102280006D4602F020020092009A00910268052734
:1022900042F020020260026802F020020092009ADE
:1022A0000091026842F020020260026802F02002FF
:1022B0000092009A0091416941F4801141614069A6
:1022C000294600F4801000900098802000900220A1
:1022D0000190CDE9026020460497FEF7A3FD4FF47C
:1022E00080700090204629460497FEF79BFD4FF42E
:1022F00000700090204629460497FEF793FD402089
:10230000CDE9000620462946FEF78CFD05B0F0BD5C
:1023100080B501F0C9FF80BD704700007047000024
:10232000B0B5007F012837D140F21C24C2F200046E
:102330002046002100F0FEF840F2F405C2F200054C
:1023400028602046042100F0F5F8296840F2F802E0
:10235000C2F200020029106008BFB0BD64225043E1
:10236000643000EE100A481C01EE100AB8EE400A74
:10237000B8EE411A80EE010A9FED082A40F28C0067
:1023800082EE011AC2F2000080ED000A40F29800CD
:10239000C2F2000080ED001AB0BD00BF00247449F5
:1023A00010B5044600680169890744BFC1685FEA47
:1023B000817138D420680169490744BFC1685FEA68
:1023C00041713CD420680169090744BFC1685FEAD4
:1023D000017141D420680169C90644BFC1685FEA40
:1023E000C16145D420680169C9071CBFC1685FEAA3
:1023F000C1714AD120680169090644BFC1685FEA1A
:10240000016149D420680169490644BFC1685FEA97
:10241000416148D420680169890644BFC1685FEA08
:10242000816147D410BD6FF0020101610121217764
:102430008069800745D02046FFF772FF47E06FF0C4
:102440000401016102212177806910F4407F41D0AD
:102450002046FFF765FF43E06FF0080101610421AA
:102460002177C06980073ED02046FFF759FF40E042
:102470006FF01001016108212177C06910F4407FDD
:102480003AD02046FFF74CFF3CE06FF001010161BC
:10249000204600F03FF8ADE76FF080010161204673
:1024A000FFF73AFFAEE76FF040010161204600F010
:1024B0005BF8AFE76FF0200101612046FFF72EFFC8
:1024C00010BD204600F022F8204600F021F8002040
:1024D00020776FE7204600F019F8204600F018F842
:1024E000002020776EE7204600F010F8204600F02C
:1024F0000FF8002020776DE7204600F007F820460F
:1025000000F006F8002020776CE70000704700001C
:102510007047000040F25C21C2F20001884218BFFF
:10252000704741F61440C4F20200016881F48061F2
:10253000016070474FEAB101032984BF0020704752
:10254000DFE801F0020E060A0068343000687047C8
:1025500000683C3000687047006840300068704791
:10256000006838300068704770470000002804BFDA
:102570000120704710B5044690F8390028B90020B2
:1025800084F83800204600F021F8242084F839002F
:102590002068C16821F40051C160204601F03AFF73
:1025A0002068016921F490410161416921F02A010B
:1025B0004161C16841F40051C16000202021E06305
:1025C00084F8391084F83A1010BD0000B0B586B018
:1025D0000020019043F63000C4F20200016800249C
:1025E00041F0010101600068C4F2020400F0010042
:1025F000019001984FF40070019002200290012098
:10260000039007200590032001AD04902046294641
:10261000FEF708FC4FF48060019020462946FEF743
:1026200001FC252000210122FFF7AEF82520FFF74D
:10263000A7F806B0B0BD00002DE9F041044690F8BF
:10264000390020280DD10E4600294FF0010052D04C
:102650001746002A08BFBDE8F08194F83800012829
:1026600002D10220BDE8F081012084F838004FF04B
:10267000000821201D46C4F83C8084F83900FEF78C
:10268000A1FCA784E78484F83880E18C804661B996
:102690002046402142462B4601F072FF38B303200A
:1026A000BDE8F081E08C0028F2D0E08C8021013878
:1026B000E084A768204642462B4601F061FFB7F54B
:1026C000805F0DD10028EAD13088216922686FF33C
:1026D0005F200029506014BF01360236E2E700BFD8
:1026E0000028DCD116F8010B21684860DAE72020C9
:1026F00084F839000020BDE8F081000041F6184060
:10270000C4F202004FF0806101604FF0006101608F
:102710004FF480510160704780B501684A689205A6
:1027200008D58A68D20708BF80BD6FF001028A60B1
:10273000FFF7E4FF80BD0000FEE7000080B586B033
:10274000002043F630010190C4F202010A6842F011
:1027500008020A60096801F00801019101994FF42B
:102760000051CDE90110039040F60040C4F2020090
:1027700001A9FEF757FB282001210122FFF704F8E9
:102780002820FEF7F9FF06B080BD000002685169FD
:1027900049054FF000010FD56FF48063536120228B
:1027A000016380F83D2080F83E10026C42F0040284
:1027B000026480F83C100121084670472DE9F0437F
:1027C00083B0044600681D461646E26A03680F4659
:1027D00043F4806112F5803F016018BF012A30D1B7
:1027E000016841F48071016020464FF00111002220
:1027F0003346009500F098F950B120680068C00594
:1028000044BF4FF400702064032003B0BDE8F083A0
:10281000206940F20208B0F5804FC0F2010816D1DD
:1028200047F00100C0B221683246086120464146A7
:102830002B4600F0B9F9002818BF012003B0BDE80D
:10284000F083082ACCD0216B1129C9D0CCE706200F
:1028500000EAD719206809F1F001016108F10601C9
:10286000204632462B4600F09FF948B92068F9B25D
:1028700001612046414632462B4600F095F918B1D9
:10288000012003B0BDE8F083002002902068002200
:10289000416933460291816902910299016841F4CC
:1028A0008071016020464FF00111009500F03CF965
:1028B0000028A2D149F0F100B5E700002DE9F04170
:1028C00082B00446C06A1D46164610F5803F0F468A
:1028D00018BF012823D12068016841F4807101608C
:1028E00020464FF0011100223346009500F01CF9FC
:1028F00050B120680068C00544BF4FF400702064E8
:10290000032002B0BDE8F081206940F20208B0F572
:10291000804FC0F2010808D107F0FE0018E0082837
:10292000D9D0206B1228D6D0DAE7062000EAD710DB
:102930002168F030086108F10601204632462B4636
:1029400000F032F918B1012002B0BDE8F081F8B210
:10295000216832460861204641462B4600F024F9A2
:10296000002818BF012002B0BDE8F08110B582B088
:10297000002043F640010190C4F202010A6840F2CF
:10298000A00442F480020A60096849F2E03301F4CD
:1029900080010191019945F60001C2F20004C4F2E0
:1029A00000014FF48042C0F20403C4E90013C4E9FB
:1029B0000200C4E90420C4E9060020622046FEF7B4
:1029C00025FB20460021FEF703FB02B010BD0000EE
:1029D00080B582B013460A46014640F2A0004FF48B
:1029E0007A7CC2F20000CDF800C0FEF7D7FB0028C9
:1029F00018BF012002B080BD2DE9F04186B040F63D
:102A00000044C4F2020420464FF4005100224FF467
:102A100000580027FEF7D0FA04F5A05528464FF4D9
:102A200080710022FEF7C8FA4FF6FF76C0F21F064B
:102A30003046FDF7ADFC0A20FEF7E0F928464FF4DA
:102A400080710122FEF7B8FA3046FDF7A1FC0A209A
:102A5000FEF7D4F90320CDE90187CDE9037001A980
:102A60002046FEF7DFF95020FEF7C8F906B0BDE8B2
:102A7000F081000080B5FDF7A3FDFFF777FFFFF7BA
:102A8000BBFFFFF75BFE80BDB0B5041D002500BF96
:102A900034F8023C14F8040C61682288DB0703D187
:102AA000D2B200F027F901E0FFF792FF012D05F106
:102AB000010103D00C3400280D46E9D0002818BFCE
:102AC00001460846B0BD0000F0B581B0044600687C
:102AD0004069400724D415460E464F1C04E000BF51
:102AE0002068406940071BD42046FFF74FFEA0B97D
:102AF000002FF5D0FEF766FA16B1401BB042EFD9B1
:102B000000202021206384F83D1084F83E00216CD1
:102B100041F02001216484F83C00012001B0F0BDA7
:102B2000002001B0F0BD00002DE9F047DDF8208065
:102B30009A461646814601F47F078CB25D1C00BFA1
:102B4000D9F800001821B7F5803F08BF142140587C
:102B5000224608BF22461040801AB0FA80F0400991
:102B6000B0421DD1002DEBD0FEF72CFABAF1000FC8
:102B700003D0A0EB08005045E2D900202021C9F87D
:102B8000300089F83D1089F83E00D9F8401041F036
:102B90002001C9F8401089F83C000120BDE8F08709
:102BA0000020BDE8F08700002DE9F04381B0984691
:102BB0001646814601F47F078DB2541CD9F80000F7
:102BC0001821B7F5803F08BF142141582A4608BF95
:102BD0002A46114091420ED0416949050FD4002C7C
:102BE000ECD0FEF7EFF94FF0200186B1A0EB080022
:102BF000B042E3D90BE0002001B0BDE8F0830168EA
:102C000041F4007101606FF4806141610421002092
:102C10002022C9F8300089F83D2089F83E00D9F813
:102C200040201143C9F8401089F83C00012001B050
:102C3000BDE8F08370B515460E460446206841692C
:102C4000490613D44169C90612D4FEF7BBF916B17F
:102C5000401BB042F2D900202021206384F83D10AF
:102C600084F83E00206C40F020000CE0002070BD95
:102C70006FF01001416100202021206384F83D1095
:102C800084F83E00206C2064002084F83C00012081
:102C900070BD0000F0B581B00446006840690006D0
:102CA00024D415460E464F1C04E000BF206840693E
:102CB00000061BD42046FFF769FDA0B9002FF5D010
:102CC000FEF780F916B1401BB042EFD90020202159
:102CD000206384F83D1084F83E00216C41F020010F
:102CE000216484F83C00012001B0F0BD002001B057
:102CF000F0BD000080B582B013460A46014640F29E
:102D0000A0004FF47A7CC2F20000CDF800C0FEF7BC
:102D100045FB002818BF012002B080BDF0B583B08C
:102D200040F22001C2F200010C6840F2FC01C2F244
:102D30000001342204FB02110646CD6D00F096FB23
:102D4000074600F0A1FB03460020009020462946DC
:102D50003A46019600F044FD03B0F0BD10B540F2D4
:102D6000FC00C2F20000006840F600448169C4F231
:102D7000020441F001018161204610210122FEF789
:102D80001BF9204680210122FEF716F910BD000034
:102D90002DE9F04F97B006464009182804915CD8F9
:102DA000DDF880B01C4690464FEA520A28E000BF8A
:102DB000203807320B68C0B2C988D208504300FBE4
:102DC0000137002002901120182152462346009717
:102DD00000F088FC4FF00109574642F61400C2F299
:102DE00000000499219D0090B0B23A462346019517
:102DF00000F036F83E44B0B2B0F5487FCB442CD258
:102E00009BF8000048B340F22001C2F200010968BB
:102E100040F2740201EB4101C2F2000202EB8101B7
:102E200089688A8893199BB2934216D38128BFD3AD
:102E3000BBF8000005AD00BA010C2846FDF788FE7E
:102E4000012002901820182142462346009500F0E8
:102E500049FC4FF002094746BFE717B0BDE8F08FC5
:102E60002DE9F04F85B00E4619460293CBB3DDE94C
:102E70000E1540F2200840F2740907465442002320
:102E8000C2F20008C2F20009019205E00298013383
:102E9000834206F1010624D0002AF7D0A1F1010AED
:102EA0004FF0FF3BCDE90331D8F800101AF8010FBD
:102EB00001EB41010BF1010B09EB81010BEB070366
:102EC000A84208BF04310A6898B2B1B200F00CF809
:102ED00004EB0B000130E7D1019A0499039B1144E4
:102EE000D4E705B0BDE8F08F2DE9F04F81B040F296
:102EF0002008C2F20008D8F8003040F2FC07C2F205
:102F00000007342603FB06749146A26C0E46072A7E
:102F1000054651D8DFE802F0111E04500450500459
:102F2000342003FB0070C46D00F0A0FA00FB0650D3
:102F300024F8109001B0BDE8F08F342003FB00703E
:102F4000C46D00F093FA00FB065044F8209001B0E5
:102F5000BDE8F08F07F138044FF0340A03FB0A4054
:102F60004FEA194B476A00F081FA00FB065000EB6C
:102F70004000384480F802B0D8F800004FEA192B1E
:102F800000FB0A40476A00F071FA00FB065000EBB4
:102F90004000384480F801B0D8F8000000FB0A4037
:102FA000446A00F063FA00FB065000EB400000F8B2
:102FB000049001B0BDE8F08FE46D00F057FA704363
:102FC000611901F8009001B0BDE8F08F2DE9F04FD4
:102FD00085B0002143F630000091C4F2020002687F
:102FE00041F6000B42F0800202600268C4F2020B5C
:102FF00002F080020092009A009102680BF580674F
:1030000042F08002026002686C4602F08002009288
:10301000009A009102684FF00E0A42F080020260AE
:103020000268022602F080020092009A0091026873
:10303000012542F002020260026802F002020092E0
:10304000009A0091026842F001020260026802F0F8
:1030500001020092009A0091026842F001020260AF
:10306000026802F001020092009A0091026842F0A8
:1030700002020260026802F002020092009A0091CD
:10308000026842F040020260026802F040020092D0
:10309000009A0091026842F010020260026802F099
:1030A00010020092009A0091026842F01002026041
:1030B000026802F010020092009A0091026842F049
:1030C00080020260026802F080020092009A009181
:1030D000026842F040020260026802F04002009280
:1030E000009A0091026842F040020260026802F019
:1030F00040020092009A0091026842F480720260DD
:10310000026802F480720092009A0091026842F014
:1031100004020260026802F004020092009A009128
:10312000026842F480720260026802F480720092C7
:10313000009A0091026842F010020260026802F0F8
:1031400010020092009A0091026842F04002026070
:10315000026802F040020092009A0091026842F078
:1031600008020260026802F008020092009A0091D0
:10317000026842F008020260026802F0080200924F
:10318000009A0091026842F480720260026802F4C0
:1031900080720092009A0091026842F0010202607F
:1031A000026802F001020092009A0091026842F067
:1031B00002020260026802F002020092009A00918C
:1031C000026842F002020260026802F0020200920B
:1031D000009A0091026842F040020260026802F028
:1031E00040020092009A0091026842F480720260EC
:1031F000026802F480720092009A0091026842F420
:1032000080720260026802F480720092009A00915B
:10321000026842F020020260026802F0200200927E
:10322000009A0091026842F008020260026802F00F
:1032300008020092009A0091016841F008010160C3
:103240000068214600F008000090009802200390DA
:10325000019001200290042000903846CDF810A083
:10326000FDF7E0FD0820009038462146CDF810A07B
:10327000FDF7D8FD4FF48070009038462146CDF818
:1032800010A0FDF7CFFD0920ABF5A05904904846EA
:10329000214600950925FDF7C5FD4FF40060ABF50B
:1032A000C058009040462146CDF810A0FDF7BAFD69
:1032B0004FF48050009040462146CDF810A0FDF715
:1032C000B1FD4846214600960495FDF7ABFD402030
:1032D0000090584621464025CDF810A0FDF7A2FDEC
:1032E0002020ABF50066009030462146CDF810A0B6
:1032F000FDF798FD304621460095CDF810A0FDF76A
:1033000091FD4FF40050009038462146CDF810A0B2
:10331000FDF788FD4FF48060009009200490584626
:103320002146FDF77FFD4FF40040009038462146CE
:10333000CDF810A0FDF776FD01200BF50067009099
:1033400038462146CDF810A0FDF76CFD8020009096
:10335000ABF580502146CDF810A0FDF763FD0420A9
:10336000009038462146CDF810A0FDF75BFD1020F7
:103370000090304621461025CDF810A0FDF752FDF3
:103380004FF48050009058462146CDF810A0FDF72C
:1033900049FD4020ABF54066009030462146CDF80F
:1033A00010A0FDF73FFD4FF4006000905846214605
:1033B000CDF810A0FDF736FD384621460095CDF832
:1033C00010A0FDF72FFD0820009040462146CDF8C3
:1033D00010A0FDF727FD4FF480700090484621466D
:1033E000CDF810A0FDF71EFD4FF4007848462146A9
:1033F000CDF80080CDF810A0FDF714FD80200090DE
:10340000584621464FF08009CDF810A0FDF70AFD7F
:103410004FF48065384621460095CDF810A0FDF7A1
:1034200001FD38462146CDF80080CDF810A0FDF70B
:10343000F9FCABF5806021460095CDF810A0FDF7B2
:10344000F1FC10200090022003900120CDE9010042
:1034500030462146FDF7E6FC30462146CDF8009087
:10346000FDF7E0FC05B0BDE8F08F000040F2200061
:10347000C2F20000006840F2FC01C2F200013422F6
:1034800000FB0210006E704740F22000C2F2000004
:10349000006840F2FC01C2F20001342200FB02107D
:1034A000406E7047B0B58EB000F064FC082002900A
:1034B000C0200690052008904FF480300B9002A8A1
:1034C000FEF7B6F9FFF782FD002143F630000191C7
:1034D000C4F2020042692E2342F0806242614269D6
:1034E00040F2F71402F080620192019A01910268A1
:1034F0004FF4597C42F400020260006846F6000274
:1035000000F400000190019840F2FC00C2F20000BB
:10351000C4F20102C0E90021172200F12005C0E930
:103520000211C0E90411C0E9061340F24E3340F223
:103530000D2E85E81C5080F8361080F8351080F884
:1035400034104FF448714FF4F072C0E91812FEF7CE
:103550007FF840F20400C2F2000000F09BF8002067
:103560004FF0504100224FF0504500F02FF8FFF788
:103570007DFF0446FFF788FF604305EB80010120D3
:10358000002200F023F8FFF7E9FB002000F064F8C8
:103590004FF07F40FFF7C2FB012000F05DF84FF0D5
:1035A0007F40FFF7BBFB0020FF2100F091F80120D6
:1035B000002100F08DF8002000F04EF84FF0FF30B1
:1035C0004FF07F4100F05EF80EB0B0BDF0B58DB0A9
:1035D000002715460E4604460097FFF747FFCDE942
:1035E0000107FFF751FFCDE90305FF200996CDE95B
:1035F00005074FF4C06007900720ADF830708DF8D4
:1036000032700890FFF732FF0A90FFF73DFF40F25B
:10361000FC05C2F200050B90694628462246FDF7DC
:10362000DBFF40F2740104EB4400C2F2000140F2FF
:10363000040701EB80024FF0FF33C2F20007C2E93A
:1036400001374FF07F422B6841F82020586A40F044
:10365000010058620DB0F0BD40F22001C2F200013D
:103660000860704740F22001C2F20001096840F290
:10367000740201EB4101C2F2000202EB81014860D9
:103680007047000010B50C4600F014F82046FFF714
:10369000E9FF10BD40F22001C2F20001096840F2CA
:1036A000740201EB4101C2F2000202EB8101886069
:1036B0007047000040F22001C2F20001096840F2A8
:1036C000740201EB4101C2F2000242F8210070478E
:1036D00080B5024640F2FC00C2F20000FEF72CF872
:1036E00080BD00002DE9F04FADF2044D0F460646B7
:1036F00001A84FF4806199469246FCF7ABFD1F2E5E
:103700006AD807FB06F0013840F2FE31884263D8E0
:1037100009FB0AF0013843F6FE7188425CD82FB3EA
:10372000DDF83014DDF82804002901A94FF000026B
:1037300008BF01EB860102E00132BA4216D0002E2A
:10374000FAD002EB4203C5186C78C35CAD78240252
:1037500044EA03431D44002305FA03F4C4F3C054B0
:10376000CC5401339E42F7D11944E5E7B9F1000F7B
:1037700032D03804310490FBF9F091FBFAF142F6B3
:10378000140300F1010C0131CAF10002C2F200037E
:103790004FF0000B4FF0000E06E000BF0BF1010BE5
:1037A000E644CB45534417D0BAF1000FF6D04FEAA8
:1037B0001E4001AC00FB064000254FF0FF3400BF67
:1037C0002F0CC75D03EB0408013488F8017017194A
:1037D00001370D44F4D1E1E70DF2044DBDE8F08F5F
:1037E000F0B581B0074640F22000C2F20000154655
:1037F000006840F2FC021C46C2F20002342300FBC7
:1038000003220E46069940F23400926CC2F2000088
:103810004FF44033042A436098BF8260C1604BF28A
:103820000001C4F202010160FDF702FA08B101B023
:10383000F0BD40F23400C2F200003946FDF7ACF9A9
:103840000028F4D1079940F23400C2F20000324659
:103850002B460094FDF7B4FA0028E8D140F234007A
:10386000C2F200006421FDF711FA01B0F0BD0000C2
:10387000F0B50468D1E900CE04EBC2108B68CD68C6
:10388000E668D0F88820002702F47042C0F888204B
:10389000E268C0F6FF77C2F30B423E40624406EB9B
:1038A0000E4601323243C0F88820E268D0F88C60BE
:1038B0006FF3DF2206F47046C0F88C60E4682A4497
:1038C0006FF3DF242344013343EA0242C0F88C2023
:1038D000D0F8942022F00702C0F894200B69C0F8B9
:1038E000943091F8322091F831408D69D0F89C6085
:1038F00000261204C0F89C6091F8307042EA04225D
:1039000042EA05623A44C0F89C20D0F8982040F280
:10391000077422F0FF02C0F898204A69072BC0F80C
:103920009820D0F8A020AEEB0C0722EA0402C0F8E1
:10393000A020D1E9074500F1840244EA0504C0F85B
:10394000A040D0F8AC40C0F8AC604C6AC0F8AC40C5
:103950009ABF0DA050F823000120D36A03F0E023A2
:10396000D362D1E90A3143437843033040EA03404C
:10397000D062106B40F2FF739843106311631068BC
:1039800040F001001060F0BD0400000003000000E2
:103990000200000002000000020000000100000020
:1039A0000100000002000000FEE700007047000078
:1039B00000F0070080F00703042B28BF04234FF01A
:1039C000FF3C03380CFA03F338BF002099438140D1
:1039D0000CFA00F022EA000008437047704700002C
:1039E000010901EB810100F00F0000EB4100C0B2C2
:1039F0007047000070B598B040F2A41442F6000081
:103A0000C2F20004C4F200002060002543F640002A
:103A10000C95C4F20200016841F080510160006819
:103A200000F080500C900C98FDF7FCFE0C200C90E0
:103A300001260CA812950E961195FEF735F9202057
:103A400000904FF480700A906846FDF7F1FE40F652
:103A50003C60C4F2472006602046FEF75BFB7F20F7
:103A6000FF21C4E901502046E160FEF701FB10B1DF
:103A700002A004F0DDF818B070BD00BF0A0D20529E
:103A8000544320CAB1D6D3B3F5CABCBBAFCAA7B0A2
:103A9000DC200D00B0B504460068C168490611D4A9
:103AA0004FF0FF31C160FDF78DFA05462068C06810
:103AB000400607D4FDF786FA401BB0F57A7FF5D9AA
:103AC0000320B0BD0020B0BD2DE9F04F85B000212E
:103AD00043F630000091C4F20200026841F2000592
:103AE00042F02002026002684FF0010A02F0200258
:103AF0000092009A00910268C4F2020542F010029E
:103B00000260026805F5806602F010020092009AD9
:103B1000009102686C4642F040020260026802278F
:103B200002F040020092009A0091026842F0040202
:103B30000260026802F004020092009A009102689A
:103B400042F080020260026802F080020092009A55
:103B50000091016841F0080101600068214600F011
:103B600008000090009802200190CDE902A00C20EE
:103B700004903046CDF800A0FDF754F930462146B8
:103B80000097FDF74FF94FF0040B30462146CDF872
:103B900000B0FDF747F90820009030462146FDF7B8
:103BA00041F91027304621460097FDF73BF94FF0C9
:103BB000200830462146CDF80080FDF733F94FF458
:103BC0000060009030462146FDF72CF94FF48050FC
:103BD000009030462146FDF725F94FF40050009043
:103BE00030462146FDF71EF94FF4804000903046E4
:103BF0002146FDF717F94FF4004930462146CDF82C
:103C00000090FDF70FF905F5006630462146CDF826
:103C100000A0FDF707F90220009030462146FDF78D
:103C200001F930462146CDF800B0FDF7FBF83046EB
:103C30002146CDF80090FDF7F5F830462146009773
:103C4000FDF7F0F830462146CDF80080FDF7EAF8A0
:103C50004FF4807B30462146CDF800B0FDF7E2F806
:103C6000A5F500602146CDF800A0FDF7DBF8402067
:103C700005F54066009030462146FDF7D3F88027D1
:103C8000304621460097FDF7CDF828462146CDF86D
:103C900000A0FDF7C7F80220009028462146FDF756
:103CA000C1F8284621460097FDF7BCF82846214672
:103CB000CDF800B0FDF7B6F84FF40078284621465D
:103CC000CDF80080FDF7AEF84FF480672846214616
:103CD0000097FDF7A7F84FF40060009028462146B2
:103CE000FDF7A0F84FF48050009028462146FDF7DC
:103CF00099F84FF40050009028462146FDF792F8BD
:103D00004FF48046284621460096FDF78BF828465A
:103D10002146CDF80090FDF785F8A5F58065284689
:103D200021460096FDF77EF828462146CDF8009002
:103D3000FDF778F828462146CDF800A0FDF772F887
:103D40000220009028462146FDF76CF828462146BF
:103D5000CDF800B0FDF766F828462146CDF8008082
:103D6000FDF760F8284621460097FDF75BF805B09F
:103D7000BDE8F08FB0B588B0FFF7A6FE4FF0000C9D
:103D800043F63800CDF804C0C4F2020002680123F3
:103D900042F001020260006840F2401200F00100AF
:103DA0000190019842F2D870C2F20000CAF20002FB
:103DB00008214FF0100E40244FF4C075C0E90023D5
:103DC000C0E90231C0E904E4C0E9065C4FF40062D6
:103DD00000F1200C4FF480534FF400558CE82C0078
:103DE0000222CDE90121052103910721CDE9041229
:103DF00001A9CDE90622FEF7A5F900F003F808B005
:103E0000B0BD00002DE9F04381B040F2240442F23D
:103E1000D875C2F20004C2F200054FF0010908276C
:103E20004FF00008284621464FF6FF72C4E900977C
:103E3000C4E90298FEF7AAF900F026F8022084E807
:103E40008102284621464FF6FF72C4F80C80FEF727
:103E50009DF903200426C4E90007284621464FF6B1
:103E6000FF72C4E90268FEF791F940F2312084E85C
:103E7000C002E060284621464FF6FF72FEF786F941
:103E800001B0BDE8F083000082B001200190002065
:103E90000090019848F2A061C0F2010148430090EF
:103EA000009828B100980138009000980028F9D1B6
:103EB00002B07047F0B581B041F218470546C4F230
:103EC00002074FF480003860032014460E4600F0CD
:103ED0005BF9300E00F058F9C6F3074000F054F9D2
:103EE000C6F3072000F050F9F0B200F04DF94CB1E4
:103EF000013D00BFFF20013C00F046F9002C05F811
:103F0000010FF7D14020386001B0F0BD2DE9F0413C
:103F10000446080690460D4602F47F4026D000284D
:103F2000C5F100063DD0F2B2A8EB020820462946B2
:103F30004FEA182700F094F855FA86F5380654FA37
:103F400086F40CD0204629464FF48072013F00F0E1
:103F500087F805F58075380604F58074F2D15FFAAC
:103F600088F2002A08BFBDE8F08114E060B34FEA90
:103F7000182738060DD000BF204629464FF480721E
:103F8000013F00F06DF805F58075380604F5807482
:103F9000F2D15FFA88F22046294600F061F8BDE8C8
:103FA000F0815FFA88F0F7B2B8420DD92046294671
:103FB0003A4608EB050600F053F87919E019F2B219
:103FC00000F04EF8BDE8F08120462946424600F058
:103FD00047F8BDE8F081000010B540F2C414C2F209
:103FE000000445F2000000210722C4F20100C4E9E8
:103FF0000811C4E90A124FF482720223C4E90002D4
:1040000004F110004FF0010C4FF4007EC4E90211DE
:1040100080E808502046E161FEF7D2F82068016888
:1040200041F04001016000F001F810BD70B541F2AF
:104030001844C4F202044FF480051520256000F0F6
:10404000A3F8FF2000F0A0F84026C007266018BFA4
:1040500070BDB720256000F097F8266070BD0000A5
:10406000F0B581B041F2184714460E460546C4F239
:10407000020700F0DDF84FF480003860022000F005
:1040800083F8300E00F080F8C6F3074000F07CF8AB
:10409000C6F3072000F078F8F0B200F075F8B4F538
:1040A000807F04D90AA003F0C3FD4FF4807444B1AB
:1040B000013D00BF15F8010F013C00F065F8002C30
:1040C000F8D14020386000F091F801B0F0BD00BF99
:1040D0003C3C2D464C4153482D4552524F522D3EAB
:1040E0003E205350495F464C4153485F50616765DD
:1040F000577269746520746F6F206C6172676521F7
:104100000000000070B541F21846C4F202064FF4F8
:10411000800030609F2000F037F8FF2000F034F876
:104120000446FF2000F030F80546FF2000F02CF890
:104130002A0242EA044240211044316070BD00006E
:10414000B0B5044600F074F800F050F841F218459C
:10415000C4F202054FF480002860202000F014F81B
:10416000200E00F011F8C4F3074000F00DF8C4F37E
:10417000072000F009F8E0B200F006F840202860BF
:1041800000F034F8B0BD000010B540F20C01C2F2EE
:1041900000014FF480520A6040F2C412C2F20002E1
:1041A000126800BF93689B070AD40B685C1E002B43
:1041B0000C60F7D10020002400F056F8E0B210BDEA
:1041C000D0604FF4805008609068C0070AD108683A
:1041D000431E00280B60F7D1012000F045F80024B1
:1041E000E0B210BDD468E0B210BD0000B0B541F23D
:1041F0001844C4F202044FF4800020600520FFF749
:10420000C3FF40F20C05C2F200054FF48050286055
:10421000FF20FFF7B9FF29684A1E2A6021B1C007B5
:10422000F6D140202060B0BD042000F01DF8B0BDE4
:1042300010B541F21844C4F202044FF4800020602B
:104240000620FFF7A1FF4020206010BD10B541F20D
:104250001844C4F202044FF480002060AB20FFF742
:1042600093FF4020206010BD80B5014601A003F0FF
:1042700075FA80BD3C3C2D464C4153482D45525269
:104280004F522D3E3E2053504920B5C8B4FDB3AC2B
:10429000CAB1216572726F72436F6465203D20253B
:1042A000640A000070470000B0B501380024B4EB88
:1042B000106F1CBF0120B0BD4EF21005CEF20005FC
:1042C00068604FF0FF300F2100F0D0F90720AC609C
:1042D00028602046B0BD000080B5FDF747F942F6E2
:1042E0000C00C2F200000178012915D142F60D013F
:1042F000C2F200010A780132D3B2962B0A7031BFA4
:104300000122002202700A7042F20000C4F2020090
:104310004FF40061FCF750FE40F2F820C2F20000BA
:104320000078002808BF80BD40F2F920C2F20000EA
:1043300001780131017080BD70B592B006AC2046A5
:104340003021FBF787FF002543F640000595CDE9B6
:104350000355CDE901550095C4F20200016802261B
:1043600041F080510160006800F08050009000989A
:1043700047F200000095C4F20000016841F440419A
:104380000160006800F44040009000980120069011
:104390004FF4803007904FF480000D9019200E905C
:1043A0004FF4B4700C96CDE90F060720119020460B
:1043B000FDF77AFCFDF7F8F90F20CDE901064FF47F
:1043C000A05004904FF48050059001A8052103955A
:1043D000FDF752FB12B070BD4EF68850CEF20000D1
:1043E000016841F4700101604FF0006140F8801CE9
:1043F0007047000080B540F25C20C2F20000FDF77B
:10440000CFFF80BD80B540F21C20C2F20000FDF756
:10441000C7FF80BDB0B50546006805F108030ECBA7
:104420000469194324F44054224302616A69EB6928
:104430001143C26849F20C641943A2431143C1609D
:104440004169AA6921F440711143416141F200417F
:10445000B3F5004F40F48060C4F2010124D18842DA
:1044600046D1FDF7DBFB6B681921A0FB01015A0067
:10447000DB0FFBF7B7FE48F21F51C5F2EB11A0FBB3
:1044800001235A096FF0630302FB0300322303EB9D
:10449000C000A0FB01014FF4F87000EA111000EB1E
:1044A0000210C1F3421167E0884244D1FDF7B6FB28
:1044B0006B681921A0FB01019A009B0FFBF792FE8C
:1044C00048F21F51C5F2EB11A0FB01235A096FF00E
:1044D000630302FB0300322303EB0010A0FB010186
:1044E000F02000EA511000EB0210C1F3431143E049
:1044F000FDF782FB6B681921A0FB01015A00DB0F5D
:10450000FBF770FE48F21F51C5F2EB11A0FB01232F
:104510005A096FF0630302FB0300322303EBC00070
:10452000A0FB01014FF4F87000EA111000EB02103B
:10453000C1F3421120E0FDF75FFB6B681921A0FB7E
:1045400001019A009B0FFBF74DFE48F21F51C5F287
:10455000EB11A0FB01235A096FF0630302FB030078
:10456000322303EB0010A0FB0101F02000EA511000
:1045700000EB0210C1F343112A6808439060B0BDFC
:104580002DE9F0410446006800680840884202D1E5
:104590000020BDE8F0811D460E4690465F1C04E0F9
:1045A000206800683040B042F2D0002FF8D02DB122
:1045B000FCF708FDA0EB0800A842F1D92068C1680B
:1045C00021F4D071C160416921F0010141612020D5
:1045D00084F8390084F83A00002084F83800032079
:1045E000BDE8F08140F29C20C2F200000068016842
:1045F000890658BF70474168C9B2416070470000E2
:10460000FEE7000080B540F2DC20C2F20000FEF7B9
:1046100083F880BD002848BF704700F01F010122C9
:1046200002FA01F14EF280124009CEF2000242F885
:104630002010BFF34F8FBFF36F8F7047002848BF24
:10464000704700F01F01012202FA01F14EF2001240
:104650004009CEF2000242F8201070474EF60C508E
:10466000CEF200000068C0F3022070474EF61453EB
:1046700000F00F02CEF2000309011A4400F160437A
:10468000B0F1FF3FC8BF03F56442117070470000EE
:1046900080B586B0002043F630010190C4F20201DB
:1046A0000A6842F480720A60096801F4807101911D
:1046B00001994FF4006101910121CDE9021042F20C
:1046C0000000C4F2020001A9FCF7ACFB06B080BDFB
:1046D00010B50446002020714FF0FF30E062204604
:1046E00002F0DEFD00281CBF032010BDB4F82E022E
:1046F0004AF6552188421CBF022010BD94F867205D
:1047000094F8683094F86610120244F2461042EAB7
:104710000342C0F254001144814204BF002010BD86
:1047200094F8832094F8843094F88210120242EABC
:1047300003421144081A18BF012010BD421E00BFD9
:1047400012F8010F002818BF8842F9D17047000005
:1047500042690239023A914224BF002070478278B0
:10476000806A01FB020070472DE9F04F81B0894655
:10477000498B19B1002001B0BDE8F08F804699F84F
:1047800000000D2100F03F00484349F2247AA0F1D7
:104790000D0400250120C0F6000A4FF6FF7B04E05F
:1047A0005E45E7D101350D2D15D01AF8051000280A
:1047B00039F80160F4D0FE2CDCD8304601F02AFF35
:1047C00038F814100746084601F024FF8742D1D17B
:1047D00001343046E6E700281CBF99F8000010F0CD
:1047E000400003D1012001B0BDE8F08F38F814007B
:1047F0000028BFD1F6E70000F0B581B00D460446B1
:1048000041B12046294602F0DBF9022809D20120F5
:1048100001B0F0BDE76867B16069874228BF012732
:1048200008E0411C1ED061692F46884202D201B0C7
:10483000F0BD01273E4600BF60690136864228BFB1
:10484000022601D3022F0AD32046314602F0B8F9DE
:10485000411CECD050B10128E9D0BE42ECD100207F
:1048600001B0F0BD4FF0FF3001B0F0BD2046314641
:104870006FF0704202F06AFD014635B129B9204659
:104880002946324602F062FD014631B1012001297C
:1048900008BF4FF0FF3001B0F0BD2069E660411C59
:1048A00005D061790138206141F001006071304626
:1048B00001B0F0BD2DE9F04F85B00E688B4600BF0A
:1048C00031785C2918BF2F2901D10136F8E73378F8
:1048D000D0F81C80202B4FF00002049038BF01223A
:1048E000202B4FF000044FF001013CD30FF22C2994
:1048F0004FF0000A0025D8B22F2818BF5C2831D00D
:10490000BAF1FF0F44D003F17F02D2B27D2A01D960
:104910000D460DE071560235CAB2B1F1FF3F42EAD1
:10492000002005DB6FF03F0252FA81F13E292FD8BB
:10493000012101F033FE58B307467F2804D84846CA
:104940003946FFF7FBFE18BB28F81A70735D0AF1B1
:104950000104691C202B4FF00002A24638BF01223F
:10496000C9D200E0544612F0010706EB010018BF5F
:104970000427CBF800005CB108EB440131F8020CCD
:104980002E2818BF202807D1013CA1F10201F5D142
:10499000062005B0BDE8F08F0498002580690D80E1
:1049A00020210B2202F084FB38F815002E2818BFB6
:1049B000202801D10135F7E7A8F10200002D18BF2A
:1049C00047F003073CB130F81420611E2E2A0C4634
:1049D000F8D1481C00E00020DDF810A00290A0F102
:1049E00001090823002200205C1E834604E000BF6A
:1049F00081450CD047F0030738F815602846202E73
:104A000005F10105F6D02E2EF2D0002E5ED09B458A
:104A10004CD281454AD0802E0ED3304603925E465A
:104A20009B4601F0F7FD002101F0B8FD039A5B46BB
:104A3000B346064647F00207B6F5807F05D3A34587
:104A400015D347F003079B46D6E766B136A031463B
:104A50000392CDF804B09B46FFF770FE5B46DDF88D
:104A600004B0039A88B147F003075F2606E0DAF83E
:104A70001800310A00F80B100BF1010BDAF81810CE
:104A80000BF1010001F80B60AFE7A6F1410080B225
:104A9000192802D842F00202F0E7A6F1610080B2C4
:104AA00019289CBF42F00102203EE7E70B2B47F09C
:104AB00003010AD0814518BF0F4602998D4205D8DF
:104AC00092000B2308200D468EE70F46DAF81800F7
:104AD0000178E52904BF05210170082B08BF920069
:104AE00002F0030102F00C00032947F0020208BFA4
:104AF00017460C2808BF1746BA0707D4012908BF74
:104B000047F01007042808BF47F00807DAF8180034
:104B1000C772002005B0BDE8F08F00BF222A3A3CE2
:104B20003E3F7C7F000000002B2C3B3D5B5D000086
:104B300070B50C460021054600F042FA18B1042871
:104B400008BF072070BD002609E000BF0136A6425D
:104B5000F5D02846012100F077F80028EFD1286829
:104B6000296902F09DFB0028E9D169690978E529E6
:104B7000ECD00029EAD00026EBE700002DE9F04355
:104B800081B00021044600F01BFA054618B1284602
:104B900001B0BDE8F0834FF6FF794FF0FF30FF27FB
:104BA0004FF0FF08208400BF2068216902F078FBE5
:104BB00005460028EBD166693178E52908D000293F
:104BC0003ED0F07A020700F03F000BD50F2809D045
:104BD000A4F82090FF272046002100F035F8002897
:104BE000E2D02FE00F281AD1E0690028F3D04A065E
:104BF00006D596F80D80E28801F0BF010F462284A9
:104C0000FAB29142E6D1717B8845E3D13146FFF794
:104C1000ABFD013F002808BF4FF0FF37DBE7380648
:104C200004D1304602F0DEFC8045B0D0A169C87ADC
:104C3000C007CDD1304602F01BFA0028C8D1A6E744
:104C40000425A4E70546A2E72DE9F0410446C08803
:104C5000471C380459D02269002A56D020680E46D5
:104C600041894909B7FBF1F303FB117179B1206860
:104C700000264189E7804909B7FBF1F202FB117177
:104C800000EB4110303060613046BDE8F081E168F2
:104C900001322261C1B18278013A1A42E7D101F0B2
:104CA0008FFF02283CBF0220BDE8F081054601309D
:104CB00011D0206841698D4210D220682946E560F4
:104CC000FFF746FD2061D2E70089874224BF042018
:104CD000BDE8F081CBE70120BDE8F081AEB1E1682D
:104CE000FFF78AFD05460130032811D24FF6F8710F
:104CF000C0F2FF0101EAC00040F20171C0F20201FE
:104D000021FA00F0C0B2BDE8F0810420BDE8F081D6
:104D1000206802F0B7FC00281CBF0120BDE8F0812C
:104D200020680021428930304FF0000802F0C0F9BD
:104D3000266829463046FFF70BFD2168F0628A7825
:104D40008AB14FF00008012608460E7102F09AFC65
:104D5000002899D1216808F10108C86A8A780130D1
:104D60009045C862F0D3C86AA0EB0800C862A4E707
:104D7000F0B581B001690446C9B3FF26FF2700BF23
:104D8000206802F08DFA0546A0BB6169087880B3FF
:104D90002E2821D0E5281FD0CA7A02F01F03082B45
:104DA0001AD002F03F020F2A2BD1420605D54E7BC6
:104DB000E28800F0BF0007462284FAB290420BD18D
:104DC000487B864208D1E06902F08AFA013F002858
:104DD00008BF4FF0FF3700E0FF2720460021FFF714
:104DE00033FF054630B921690029C9D102E0042505
:104DF00000E00425002D1CBF00202061284601B0E2
:104E0000F0BD380604D1084602F0ECFB8642F1D032
:104E10004FF6FF702084EDE72DE9F04784B0D0E92C
:104E20000676804601A839460C2202F033F99DF837
:104E30000FA05FEACA7004D15FEA8A7024D401240B
:104E400030E0002001240DF10409F872C8F81C00BC
:104E5000384649463246234601F058FE4046FFF7A1
:104E60008DFE054618B90134642CF1D16424642CFC
:104E700001D107253CE0042D3AD187F80BA0C8F8F2
:104E80001C605FEA8A70DAD5B11E182031F8022F53
:104E90000130002AFAD14EF64F41C4F6C461A0FB9E
:104EA00001018C0840462146FFF742FE054618B333
:104EB000F5B9D8F80000D8F8101002F0F1F905465D
:104EC000B0B9D8F814000021202202F0F1F8D8E996
:104ED00005010B2202F0DEF8D8F81800D8F81410FB
:104EE000C07A00F018000873D8F8000001210171A1
:104EF000284604B0BDE8F087013CD9D0B8F80600D8
:104F0000011B404600F05CF805460028D0D1D8F8D7
:104F1000180002F067FB0646012700BFD8F8000022
:104F2000D8F8101002F0BCF9A0B9D8F81410D8F8CD
:104F30001C00E2B2334601F05FFDD8F8000000210A
:104F400007714046FFF780FE05460028B0D1013CBE
:104F5000E4D1ADE70546ABE72DE9F041018C04460D
:104F6000C6884FF6FF708142204608BF314600F0E8
:104F700027F8002818BFBDE8F0814FF0E5080127A9
:104F80002068216902F08CF9054698B96069002112
:104F9000202202F08DF8606980F80080E0882168A6
:104FA000B0420F7106D220460021FFF74DFE0028C7
:104FB000E6D00546042D08BF02252846BDE8F0814D
:104FC000F0B581B08668C180012E42D004460068E9
:104FD0000D4641698E423CD2EEB11EB341898078C4
:104FE000490901FB00F72068AF4203D93146FFF7BA
:104FF000AFFB1CE0314601F0E3FD064601302BD04B
:10500000022E26D320684069864222D2ED1B2068FA
:10501000BD42EFD2EAE7017803290CBF466A0026B9
:10502000002EDBD10189A94213D9406A0026E6602F
:1050300078B121684A895209B5FBF2F303FB125299
:10504000184401EB42113031C4E90401002001B0E1
:10505000F0BD022001B0F0BD012001B0F0BD0000A4
:1050600001281CBF0120704780B5FEF7B5FFFFF790
:10507000EDF8012000F02CF880BD000001281CBFD5
:1050800004207047032908D002290BD001291CBF36
:10509000002070474FF47A4001E04FF480301060F8
:1050A000002070474FF480501080002070470000AF
:1050B00001281CBF0420704780B54FF0807000EBC2
:1050C000023C1A0308466146FEF7F4FE002080BD4C
:1050D00001281CBF0120704780B5FFF713F844F288
:1050E0001901C0F2EF01401A18BF012080BD000075
:1050F00070B501284FF0040011D11D46002B08BFE8
:1051000070BD4FF0807000EB023630460C46FFF762
:1051100017F82A0320463146FEF7F8FE002070BD3E
:1051200010B5044601F0C6F8002818BF10BD20468F
:1051300002F0FEFA002804BF0021216010BD00002B
:1051400010B5044602F0F4FA002804BF00212160E3
:1051500010BD00002DE9F04F83B016460D460290B9
:1051600002A91046002201F009FB8046002864D104
:10517000D6F800B0DBE90447B81E84425CD99BF83E
:1051800000A00095BAF1010F15D10024022705E017
:105190000134DBF814000137874244D258463946BF
:1051A00001F00EFD0028F3D0411C3AD00128F0D1C7
:1051B0004FF0020837E0DBF820900BF1300001904F
:1051C00000240020002113E08D78CE784B782D0448
:1051D0000A7866F31B6545EA032313446FF0030264
:1051E0000425002B294408BF0134013F10441AD084
:1051F00020B1BAF1020FE7D10EE000BF5846494690
:1052000002F04EF8804670B9BBF80A00019909F126
:105210000109BAF1020FD7D10B886FF00102022504
:10522000DFE74FF001089BF80500009D40F001000A
:10523000CBF810408BF805002C605FFA88F003B0C3
:10524000BDE8F08F2DE9F0410E46044602F070FAF9
:10525000074610B13846BDE8F081E57915B128461A
:10526000BDE8F081E068B04203D2A179890758BF58
:105270000646A1684FF00008002EC4F8088056D0FA
:1052800020688278438903FB02F539B1721E013927
:10529000B2FBF5F2B1FBF5F39A4204D2216931B3C6
:1052A000616131B941E0684208406169A060361A25
:1052B000D9B3AE4229D9A2792068920703D401F06C
:1052C0007FFC014603E0FFF797FA0146D8B1481C7E
:1052D00017D002295FD32068406981425BD2A06861
:1052E000761B2844AE426161A060E4D80DE0002145
:1052F000FFF782FA0146013003D001294BD021612A
:10530000CEE7012548E000212E462068A3684289A7
:105310003344B6FBF2F5A36005FB12622AB1FFF736
:1053200017FAC0B305EB000801E04FF00008206851
:10533000A1684289B1FBF2F303FB1211E9B1A26942
:1053400090451AD0A17949060BD5407804F1240183
:1053500001230125FFF7CCFEF0B9A07900F0BF00D2
:10536000A071214651F8240B4246407801230125C3
:10537000FFF79EFE80B9C4F81880D4E90201884284
:105380007FF668AFA179E06041F020003D46A07152
:105390002846BDE8F08102252846E571BDE8F08188
:1053A0002DE9F04FADF50D7D8C9001F087FC814625
:1053B00083A88CA9012201F0E1F90646002840F0FB
:1053C000A08080A8899068468C998A9083A801F073
:1053D0004BFB0646002808BF0826042E40F09180AB
:1053E000839F002138460026FFF706FA002808BFF1
:1053F00007260128804608BF0226013008BF012683
:1054000016B1002E59D105E0384602F03BF90646A8
:10541000002E52D138464146FFF79AF97A8907F1B2
:10542000300B05465846002101F042FE5846202127
:105430000B2201F03DFE102087F83B004FEA1920B7
:1054400087F847004FEA194087F848004FEA19608B
:105450002E2487F849005846414687F8304087F89F
:10546000469002F0B9F807F1500A504659462022FA
:1054700001F010FE38788599032887F8514003D150
:10548000786A081A08BF0146504602F0A5F8BC78B1
:105490009CB14FF0010A00BF3846FD6287F804A0B6
:1054A00002F0F0F8064640B97A89584600210135E5
:1054B00001F0FEFD013C2006EED12EB156B18398DD
:1054C000414601F0F3FF1CE083A8FFF7A5FC064668
:1054D000002EF4D188981021C1724FEA1921C175AC
:1054E0004FEA194101764FEA19614176414680F849
:1054F000169002F071F883980121017102F084F88E
:10550000064630460DF50D7DBDE8F08F2DE9F04FD4
:105510008DB001290C9001D913272BE00CA8164659
:105520000D4601F063FC00281DD440F29001C2F248
:10553000000151F820A0BAF1000F16D0C4B200212A
:1055400020468AF80010FFF78BFDC1070FD14007F6
:105550000FD40AF10A09204602214A46FFF78EFDC0
:1055600060B1012706E00B2704E00C2702E00327C7
:1055700000E00A2738460DB0BDE8F08FB9F800000A
:10558000A0F50070B0F5606F01D90127F2E70AAA13
:10559000204601210127FFF771FD0028EAD10A9872
:1055A0008028E7D34FF0000C002DA6F1010108BFC1
:1055B0004FF03F0C0E42A0EB0C0E18BF0026CDF8AA
:1055C00028E0C6B9B9F800104FF4FA62490AB2FBF4
:1055D000F1F14FF2AC63BEFBF1F249F23271C0F669
:1055E0000001C0F601030439023B33F8027F0231A7
:1055F000BA42FAD34E88B6F5007F03D3B9F800104B
:10560000B6FBF1F6002E08BF0126802E28BF8026AB
:10561000BEFBF6F340F6F57101208B424FF6F571B3
:1056200088BF02208B424FF6F67188BF03208B4261
:1056300007900AD3B9F800104FF0200801EB83025D
:105640000732B2FBF1F0002217E0012806D103EB8C
:1056500043010131032202EB510102E0042101EB7D
:105660004301B9F800204FF0010811440139B1FBA2
:10567000F2F04FF48041B1FBF2F208EB0C0739462F
:10568000391801EB020BA6EB0C0159448E45099029
:105690000597069201D20E276CE70BAA204603213C
:1056A0000893CDF810C0FFF7E9FC20B90B9801383A
:1056B000B0F5004F01D301200B900B9B08980BEB2A
:1056C00003024FF6F571013A5B4288424FF0000C3D
:1056D00002EA030288BF4FF0010CA2EB0B038842E1
:1056E0004FF000010B934FF6F57288BF194601EB9E
:1056F0000807DDE9098B904298BF9844069A039702
:10570000ABEB0203DB1BA3EB0803079AB3FBF6F03A
:10571000931E40F6F677B3FA83F3B8424FF00007D2
:105720004FF6F6724FF0000E4FEA531338BF0127C1
:10573000904238BF4FF0010E3B424FF00E0702BFC0
:10574000CDE90001CDF824801CEA0E007FF412AFF1
:10575000089A4FF6F570824201D90C270BE006201B
:10576000BBF5803F38BF0420074638BF01270799A3
:10577000012918BF0746002D00F0C5804FF0F00B3F
:105780004FF6F6700025824238BF0125BAF80A208C
:105790000AF13007384600214FF0000801F088FC7C
:1057A000C2A138460B22029701F074FCBAF80A0035
:1057B00069008AF83B00000A8AF83C0003988AF8DE
:1057C0003D608AF83E00000A8AF83F000120AAF8EE
:1057D00040000A988AF84210B8EB104F14BFCAF87C
:1057E0005000AAF843003F200499C0F2FF00CAF815
:1057F000480000208AF845B08AF84C10AAF84D00FD
:105800008AF84F0001F05AFA089A4FF6F6718A4268
:105810000B901FD30999CAF87300080A8AF855003B
:10582000080C8AF85600080E8AF857000220CAF8B9
:105830005C000120C0F20600CAF8600080208AF8EF
:10584000700029208AF854108AF872000AF1770053
:105850009EA110E0CAF85700099897A18AF846005F
:10586000000A8AF8470080208AF8540029208AF824
:1058700056000AF15B00132201F00CFC4AF6552099
:105880000299049AAAF82E02204601230127FFF765
:105890002FFC089900287FF46DAE4FF6F670814218
:1058A0000598019901EB000806D304980299821D1E
:1058B00020460123FFF71CFC07986FF0FF05012825
:1058C000B9F8002004BF4FF60075C0F2FF0502983A
:1058D000002101F0EDFB08994FF6F5708142CDF8FB
:1058E0002CB059D96BF0FF000B904FF0FF30CAF885
:1058F0003100CAF83500AAF839000F208AF830B014
:105900008AF83B0054E0BAF80A200AF1300528462C
:1059100000214FF0000B01F0CBFB0A98049945F2EF
:105920005B620144C0F21552A1FB022340F2011256
:10593000C91AAAF8EF21FE2203EB51013F238AF88E
:10594000F3214A0B43EAD1318AF8F411010A8AF8AB
:10595000FA018AF8FB11010C000E8AF8FD014AF6E3
:1059600055200B928AF8F521CAF8F6318AF8FC1115
:10597000AAF82E0220462946002201238AF8F1B116
:105980008AF8F2710127FFF7B3FB089A00287FF429
:10599000F1AD4FF0F80BF3E645EA0B01280E0B9141
:1059A0004FF6FF718AF830B0AAF831108AF8330048
:1059B000DDF808B020465946424601230127FFF78B
:1059C00097FB00287FF4D6ADB9F800205846002197
:1059D00001F06EFB08F10105DDF824800B97B8F1AA
:1059E000020F0FD30127204659462A460123FFF70D
:1059F0007FFB00287FF4BEAD0B9801350130404598
:105A00000B90F0D308994FF6F570DDF81880012758
:105A1000814288BFB046204659462A460123FFF7F7
:105A200067FB00287FF4A6ADB8F1010805F1010578
:105A3000F1D108994FF6F67081422DD345F25220EC
:105A4000C4F26110CAF8300047F27220C6F2411069
:105A5000CAF814020098049D0138010A8AF8180255
:105A60008AF81912010C000E8AF81B020220029E0D
:105A7000CAF81C024AF655208AF81A12AAF82E0211
:105A80006A1C204631460123FFF732FBEA1D2046FF
:105A900031460123FFF72CFB204600210022FFF7AF
:105AA000EDFA0746002818BF012763E5EBFE904D8D
:105AB00053444F53352E30004E4F204E414D45201C
:105AC0002020204641542020202020004E4F204EF0
:105AD000414D4520202020464154333220202000D3
